{
  "abi": [
    {
      "type": "fallback",
      "stateMutability": "payable"
    },
    {
      "type": "receive",
      "stateMutability": "payable"
    },
    {
      "type": "function",
      "name": "accountId",
      "inputs": [],
      "outputs": [
        {
          "name": "accountImplementationId",
          "type": "string",
          "internalType": "string"
        }
      ],
      "stateMutability": "pure"
    },
    {
      "type": "function",
      "name": "domainSeparator",
      "inputs": [],
      "outputs": [
        {
          "name": "",
          "type": "bytes32",
          "internalType": "bytes32"
        }
      ],
      "stateMutability": "view"
    },
    {
      "type": "function",
      "name": "emergencyUninstallHook",
      "inputs": [
        {
          "name": "data",
          "type": "tuple",
          "internalType": "struct EmergencyUninstall",
          "components": [
            {
              "name": "hook",
              "type": "address",
              "internalType": "address"
            },
            {
              "name": "hookType",
              "type": "uint256",
              "internalType": "uint256"
            },
            {
              "name": "deInitData",
              "type": "bytes",
              "internalType": "bytes"
            },
            {
              "name": "nonce",
              "type": "uint256",
              "internalType": "uint256"
            }
          ]
        },
        {
          "name": "signature",
          "type": "bytes",
          "internalType": "bytes"
        }
      ],
      "outputs": [],
      "stateMutability": "nonpayable"
    },
    {
      "type": "function",
      "name": "entryPoint",
      "inputs": [],
      "outputs": [
        {
          "name": "",
          "type": "address",
          "internalType": "address"
        }
      ],
      "stateMutability": "view"
    },
    {
      "type": "function",
      "name": "execute",
      "inputs": [
        {
          "name": "mode",
          "type": "bytes32",
          "internalType": "ModeCode"
        },
        {
          "name": "executionCalldata",
          "type": "bytes",
          "internalType": "bytes"
        }
      ],
      "outputs": [],
      "stateMutability": "nonpayable"
    },
    {
      "type": "function",
      "name": "executeFromExecutor",
      "inputs": [
        {
          "name": "mode",
          "type": "bytes32",
          "internalType": "ModeCode"
        },
        {
          "name": "executionCalldata",
          "type": "bytes",
          "internalType": "bytes"
        }
      ],
      "outputs": [
        {
          "name": "returnDatas",
          "type": "bytes[]",
          "internalType": "bytes[]"
        }
      ],
      "stateMutability": "nonpayable"
    },
    {
      "type": "function",
      "name": "getActiveHook",
      "inputs": [],
      "outputs": [
        {
          "name": "hook",
          "type": "address",
          "internalType": "address"
        }
      ],
      "stateMutability": "view"
    },
    {
      "type": "function",
      "name": "getExecutorsPaginated",
      "inputs": [
        {
          "name": "cursor",
          "type": "address",
          "internalType": "address"
        },
        {
          "name": "pageSize",
          "type": "uint256",
          "internalType": "uint256"
        }
      ],
      "outputs": [
        {
          "name": "array",
          "type": "address[]",
          "internalType": "address[]"
        },
        {
          "name": "next",
          "type": "address",
          "internalType": "address"
        }
      ],
      "stateMutability": "view"
    },
    {
      "type": "function",
      "name": "getFallbackHandlerBySelector",
      "inputs": [
        {
          "name": "selector",
          "type": "bytes4",
          "internalType": "bytes4"
        }
      ],
      "outputs": [
        {
          "name": "",
          "type": "bytes1",
          "internalType": "CallType"
        },
        {
          "name": "",
          "type": "address",
          "internalType": "address"
        }
      ],
      "stateMutability": "view"
    },
    {
      "type": "function",
      "name": "getNonce",
      "inputs": [
        {
          "name": "safe",
          "type": "address",
          "internalType": "address"
        },
        {
          "name": "validator",
          "type": "address",
          "internalType": "address"
        }
      ],
      "outputs": [
        {
          "name": "nonce",
          "type": "uint256",
          "internalType": "uint256"
        }
      ],
      "stateMutability": "view"
    },
    {
      "type": "function",
      "name": "getPrevalidationHook",
      "inputs": [
        {
          "name": "moduleType",
          "type": "uint256",
          "internalType": "uint256"
        }
      ],
      "outputs": [
        {
          "name": "hook",
          "type": "address",
          "internalType": "address"
        }
      ],
      "stateMutability": "view"
    },
    {
      "type": "function",
      "name": "getSafeOp",
      "inputs": [
        {
          "name": "userOp",
          "type": "tuple",
          "internalType": "struct PackedUserOperation",
          "components": [
            {
              "name": "sender",
              "type": "address",
              "internalType": "address"
            },
            {
              "name": "nonce",
              "type": "uint256",
              "internalType": "uint256"
            },
            {
              "name": "initCode",
              "type": "bytes",
              "internalType": "bytes"
            },
            {
              "name": "callData",
              "type": "bytes",
              "internalType": "bytes"
            },
            {
              "name": "accountGasLimits",
              "type": "bytes32",
              "internalType": "bytes32"
            },
            {
              "name": "preVerificationGas",
              "type": "uint256",
              "internalType": "uint256"
            },
            {
              "name": "gasFees",
              "type": "bytes32",
              "internalType": "bytes32"
            },
            {
              "name": "paymasterAndData",
              "type": "bytes",
              "internalType": "bytes"
            },
            {
              "name": "signature",
              "type": "bytes",
              "internalType": "bytes"
            }
          ]
        },
        {
          "name": "entryPoint",
          "type": "address",
          "internalType": "address"
        }
      ],
      "outputs": [
        {
          "name": "operationData",
          "type": "bytes",
          "internalType": "bytes"
        },
        {
          "name": "validAfter",
          "type": "uint48",
          "internalType": "uint48"
        },
        {
          "name": "validUntil",
          "type": "uint48",
          "internalType": "uint48"
        },
        {
          "name": "signatures",
          "type": "bytes",
          "internalType": "bytes"
        }
      ],
      "stateMutability": "view"
    },
    {
      "type": "function",
      "name": "getValidatorsPaginated",
      "inputs": [
        {
          "name": "cursor",
          "type": "address",
          "internalType": "address"
        },
        {
          "name": "pageSize",
          "type": "uint256",
          "internalType": "uint256"
        }
      ],
      "outputs": [
        {
          "name": "array",
          "type": "address[]",
          "internalType": "address[]"
        },
        {
          "name": "next",
          "type": "address",
          "internalType": "address"
        }
      ],
      "stateMutability": "view"
    },
    {
      "type": "function",
      "name": "initializeAccount",
      "inputs": [
        {
          "name": "modules",
          "type": "tuple[]",
          "internalType": "struct ModuleInit[]",
          "components": [
            {
              "name": "module",
              "type": "address",
              "internalType": "address"
            },
            {
              "name": "initData",
              "type": "bytes",
              "internalType": "bytes"
            },
            {
              "name": "moduleType",
              "type": "uint256",
              "internalType": "uint256"
            }
          ]
        },
        {
          "name": "registryInit",
          "type": "tuple",
          "internalType": "struct RegistryInit",
          "components": [
            {
              "name": "registry",
              "type": "address",
              "internalType": "contract IERC7484"
            },
            {
              "name": "attesters",
              "type": "address[]",
              "internalType": "address[]"
            },
            {
              "name": "threshold",
              "type": "uint8",
              "internalType": "uint8"
            }
          ]
        }
      ],
      "outputs": [],
      "stateMutability": "nonpayable"
    },
    {
      "type": "function",
      "name": "initializeAccountWithValidators",
      "inputs": [
        {
          "name": "validators",
          "type": "tuple[]",
          "internalType": "struct ModuleInit[]",
          "components": [
            {
              "name": "module",
              "type": "address",
              "internalType": "address"
            },
            {
              "name": "initData",
              "type": "bytes",
              "internalType": "bytes"
            },
            {
              "name": "moduleType",
              "type": "uint256",
              "internalType": "uint256"
            }
          ]
        }
      ],
      "outputs": [],
      "stateMutability": "nonpayable"
    },
    {
      "type": "function",
      "name": "installModule",
      "inputs": [
        {
          "name": "moduleType",
          "type": "uint256",
          "internalType": "uint256"
        },
        {
          "name": "module",
          "type": "address",
          "internalType": "address"
        },
        {
          "name": "initData",
          "type": "bytes",
          "internalType": "bytes"
        }
      ],
      "outputs": [],
      "stateMutability": "nonpayable"
    },
    {
      "type": "function",
      "name": "isModuleInstalled",
      "inputs": [
        {
          "name": "moduleType",
          "type": "uint256",
          "internalType": "uint256"
        },
        {
          "name": "module",
          "type": "address",
          "internalType": "address"
        },
        {
          "name": "additionalContext",
          "type": "bytes",
          "internalType": "bytes"
        }
      ],
      "outputs": [
        {
          "name": "",
          "type": "bool",
          "internalType": "bool"
        }
      ],
      "stateMutability": "view"
    },
    {
      "type": "function",
      "name": "isValidSignature",
      "inputs": [
        {
          "name": "hash",
          "type": "bytes32",
          "internalType": "bytes32"
        },
        {
          "name": "data",
          "type": "bytes",
          "internalType": "bytes"
        }
      ],
      "outputs": [
        {
          "name": "magicValue",
          "type": "bytes4",
          "internalType": "bytes4"
        }
      ],
      "stateMutability": "view"
    },
    {
      "type": "function",
      "name": "setRegistry",
      "inputs": [
        {
          "name": "registry",
          "type": "address",
          "internalType": "contract IERC7484"
        },
        {
          "name": "attesters",
          "type": "address[]",
          "internalType": "address[]"
        },
        {
          "name": "threshold",
          "type": "uint8",
          "internalType": "uint8"
        }
      ],
      "outputs": [],
      "stateMutability": "nonpayable"
    },
    {
      "type": "function",
      "name": "supportsExecutionMode",
      "inputs": [
        {
          "name": "encodedMode",
          "type": "bytes32",
          "internalType": "ModeCode"
        }
      ],
      "outputs": [
        {
          "name": "supported",
          "type": "bool",
          "internalType": "bool"
        }
      ],
      "stateMutability": "pure"
    },
    {
      "type": "function",
      "name": "supportsModule",
      "inputs": [
        {
          "name": "moduleTypeId",
          "type": "uint256",
          "internalType": "uint256"
        }
      ],
      "outputs": [
        {
          "name": "",
          "type": "bool",
          "internalType": "bool"
        }
      ],
      "stateMutability": "pure"
    },
    {
      "type": "function",
      "name": "uninstallModule",
      "inputs": [
        {
          "name": "moduleType",
          "type": "uint256",
          "internalType": "uint256"
        },
        {
          "name": "module",
          "type": "address",
          "internalType": "address"
        },
        {
          "name": "deInitData",
          "type": "bytes",
          "internalType": "bytes"
        }
      ],
      "outputs": [],
      "stateMutability": "nonpayable"
    },
    {
      "type": "function",
      "name": "validateUserOp",
      "inputs": [
        {
          "name": "userOp",
          "type": "tuple",
          "internalType": "struct PackedUserOperation",
          "components": [
            {
              "name": "sender",
              "type": "address",
              "internalType": "address"
            },
            {
              "name": "nonce",
              "type": "uint256",
              "internalType": "uint256"
            },
            {
              "name": "initCode",
              "type": "bytes",
              "internalType": "bytes"
            },
            {
              "name": "callData",
              "type": "bytes",
              "internalType": "bytes"
            },
            {
              "name": "accountGasLimits",
              "type": "bytes32",
              "internalType": "bytes32"
            },
            {
              "name": "preVerificationGas",
              "type": "uint256",
              "internalType": "uint256"
            },
            {
              "name": "gasFees",
              "type": "bytes32",
              "internalType": "bytes32"
            },
            {
              "name": "paymasterAndData",
              "type": "bytes",
              "internalType": "bytes"
            },
            {
              "name": "signature",
              "type": "bytes",
              "internalType": "bytes"
            }
          ]
        },
        {
          "name": "userOpHash",
          "type": "bytes32",
          "internalType": "bytes32"
        },
        {
          "name": "missingAccountFunds",
          "type": "uint256",
          "internalType": "uint256"
        }
      ],
      "outputs": [
        {
          "name": "validSignature",
          "type": "uint256",
          "internalType": "uint256"
        }
      ],
      "stateMutability": "nonpayable"
    },
    {
      "type": "event",
      "name": "ERC7484RegistryConfigured",
      "inputs": [
        {
          "name": "smartAccount",
          "type": "address",
          "indexed": true,
          "internalType": "address"
        },
        {
          "name": "registry",
          "type": "address",
          "indexed": true,
          "internalType": "contract IERC7484"
        }
      ],
      "anonymous": false
    },
    {
      "type": "event",
      "name": "EmergencyHookUninstallRequest",
      "inputs": [
        {
          "name": "hook",
          "type": "address",
          "indexed": false,
          "internalType": "address"
        },
        {
          "name": "time",
          "type": "uint256",
          "indexed": false,
          "internalType": "uint256"
        }
      ],
      "anonymous": false
    },
    {
      "type": "event",
      "name": "EmergencyHookUninstallRequestReset",
      "inputs": [
        {
          "name": "hook",
          "type": "address",
          "indexed": false,
          "internalType": "address"
        },
        {
          "name": "time",
          "type": "uint256",
          "indexed": false,
          "internalType": "uint256"
        }
      ],
      "anonymous": false
    },
    {
      "type": "event",
      "name": "ModuleInstalled",
      "inputs": [
        {
          "name": "moduleTypeId",
          "type": "uint256",
          "indexed": false,
          "internalType": "uint256"
        },
        {
          "name": "module",
          "type": "address",
          "indexed": false,
          "internalType": "address"
        }
      ],
      "anonymous": false
    },
    {
      "type": "event",
      "name": "ModuleUninstalled",
      "inputs": [
        {
          "name": "moduleTypeId",
          "type": "uint256",
          "indexed": false,
          "internalType": "uint256"
        },
        {
          "name": "module",
          "type": "address",
          "indexed": false,
          "internalType": "address"
        }
      ],
      "anonymous": false
    },
    {
      "type": "event",
      "name": "Safe7579Initialized",
      "inputs": [
        {
          "name": "safe",
          "type": "address",
          "indexed": true,
          "internalType": "address"
        }
      ],
      "anonymous": false
    },
    {
      "type": "event",
      "name": "TryExecutionFailed",
      "inputs": [
        {
          "name": "safe",
          "type": "address",
          "indexed": false,
          "internalType": "contract ISafe"
        },
        {
          "name": "numberInBatch",
          "type": "uint256",
          "indexed": false,
          "internalType": "uint256"
        }
      ],
      "anonymous": false
    },
    {
      "type": "event",
      "name": "TryExecutionsFailed",
      "inputs": [
        {
          "name": "safe",
          "type": "address",
          "indexed": false,
          "internalType": "contract ISafe"
        },
        {
          "name": "success",
          "type": "bool[]",
          "indexed": false,
          "internalType": "bool[]"
        }
      ],
      "anonymous": false
    },
    {
      "type": "error",
      "name": "AccountAccessUnauthorized",
      "inputs": []
    },
    {
      "type": "error",
      "name": "EmergencyTimeLockNotExpired",
      "inputs": []
    },
    {
      "type": "error",
      "name": "EmergencyUninstallSigError",
      "inputs": []
    },
    {
      "type": "error",
      "name": "ExecutionFailed",
      "inputs": []
    },
    {
      "type": "error",
      "name": "FallbackInstalled",
      "inputs": [
        {
          "name": "msgSig",
          "type": "bytes4",
          "internalType": "bytes4"
        }
      ]
    },
    {
      "type": "error",
      "name": "HookAlreadyInstalled",
      "inputs": [
        {
          "name": "currentHook",
          "type": "address",
          "internalType": "address"
        }
      ]
    },
    {
      "type": "error",
      "name": "InvalidCallType",
      "inputs": [
        {
          "name": "callType",
          "type": "bytes1",
          "internalType": "CallType"
        }
      ]
    },
    {
      "type": "error",
      "name": "InvalidFallbackHandler",
      "inputs": [
        {
          "name": "msgSig",
          "type": "bytes4",
          "internalType": "bytes4"
        }
      ]
    },
    {
      "type": "error",
      "name": "InvalidHookType",
      "inputs": []
    },
    {
      "type": "error",
      "name": "InvalidInitData",
      "inputs": [
        {
          "name": "safe",
          "type": "address",
          "internalType": "address"
        }
      ]
    },
    {
      "type": "error",
      "name": "InvalidInput",
      "inputs": []
    },
    {
      "type": "error",
      "name": "InvalidModule",
      "inputs": [
        {
          "name": "module",
          "type": "address",
          "internalType": "address"
        }
      ]
    },
    {
      "type": "error",
      "name": "InvalidModuleType",
      "inputs": [
        {
          "name": "module",
          "type": "address",
          "internalType": "address"
        },
        {
          "name": "moduleType",
          "type": "uint256",
          "internalType": "uint256"
        }
      ]
    },
    {
      "type": "error",
      "name": "InvalidNonce",
      "inputs": []
    },
    {
      "type": "error",
      "name": "LinkedList_AlreadyInitialized",
      "inputs": []
    },
    {
      "type": "error",
      "name": "LinkedList_EntryAlreadyInList",
      "inputs": [
        {
          "name": "entry",
          "type": "address",
          "internalType": "address"
        }
      ]
    },
    {
      "type": "error",
      "name": "LinkedList_InvalidEntry",
      "inputs": [
        {
          "name": "entry",
          "type": "address",
          "internalType": "address"
        }
      ]
    },
    {
      "type": "error",
      "name": "LinkedList_InvalidPage",
      "inputs": []
    },
    {
      "type": "error",
      "name": "ModuleNotInstalled",
      "inputs": [
        {
          "name": "module",
          "type": "address",
          "internalType": "address"
        },
        {
          "name": "moduleType",
          "type": "uint256",
          "internalType": "uint256"
        }
      ]
    },
    {
      "type": "error",
      "name": "NoFallbackHandler",
      "inputs": [
        {
          "name": "msgSig",
          "type": "bytes4",
          "internalType": "bytes4"
        }
      ]
    },
    {
      "type": "error",
      "name": "PreValidationHookAlreadyInstalled",
      "inputs": [
        {
          "name": "currentHook",
          "type": "address",
          "internalType": "address"
        },
        {
          "name": "moduleType",
          "type": "uint256",
          "internalType": "uint256"
        }
      ]
    },
    {
      "type": "error",
      "name": "UnsupportedCallType",
      "inputs": [
        {
          "name": "callType",
          "type": "bytes1",
          "internalType": "CallType"
        }
      ]
    },
    {
      "type": "error",
      "name": "UnsupportedExecType",
      "inputs": [
        {
          "name": "execType",
          "type": "bytes1",
          "internalType": "ExecType"
        }
      ]
    },
    {
      "type": "error",
      "name": "UnsupportedModuleType",
      "inputs": [
        {
          "name": "moduleTypeId",
          "type": "uint256",
          "internalType": "uint256"
        }
      ]
    }
  ],
  "bytecode": {
    "object": "0x60a060405234801561000f575f5ffd5b5060405161001c90610047565b604051809103905ff080158015610035573d5f5f3e3d5ffd5b506001600160a01b0316608052610054565b610ad78061676583390190565b6080516166c16100a45f395f818161169d015281816118d301528181611a880152818161225101528181612b4b0152818161480b015281816148f001528181614f10015261506f01526166c15ff3fe608060405260043610610183575f3560e01c80639517e29f116100d5578063d828435d1161007e578063eab77e1711610058578063eab77e17146105b5578063f2dc691d146105d4578063f698da25146105f35761018a565b8063d828435d14610558578063e9ae5c5314610577578063ea5f61d0146105965761018a565b8063b0d691fe116100af578063b0d691fe146104eb578063d03c79141461050d578063d691c9641461052c5761018a565b80639517e29f146104625780639cfd7cff14610481578063a71763a8146104cc5761018a565b80633065ca431161013757806355d559f41161011157806355d559f4146103e75780635bfeadbb146104165780635faac46b146104355761018a565b80633065ca43146102e35780633c4ddc9d14610304578063481ddd23146103235761018a565b80631626ba7e116101685780631626ba7e1461024757806319822f7c14610297578063236b58a1146102c45761018a565b80630a664dba146101d6578063112d3a7d146102185761018a565b3661018a57005b335f9081526005602052604081205436906060906001600160a01b0316836101b18261065a565b90506101bd858561070b565b92506101c982826108c0565b5050915050805190602001f35b3480156101e1575f5ffd5b50335f908152600560205260409020546001600160a01b03165b6040516001600160a01b0390911681526020015b60405180910390f35b348015610223575f5ffd5b50610237610232366004615449565b610947565b604051901515815260200161020f565b348015610252575f5ffd5b506102666102613660046154a1565b6109d7565b6040517fffffffff00000000000000000000000000000000000000000000000000000000909116815260200161020f565b3480156102a2575f5ffd5b506102b66102b13660046156ec565b610dcc565b60405190815260200161020f565b3480156102cf575f5ffd5b506101fb6102de366004615736565b610f37565b3480156102ee575f5ffd5b506103026102fd36600461578e565b610fb4565b005b34801561030f575f5ffd5b5061030261031e3660046157fd565b611058565b34801561032e575f5ffd5b506103bf61033d366004615869565b7fffffffff00000000000000000000000000000000000000000000000000000000165f9081526004602090815260408083203384528252918290208251808401909352546001600160a01b0381168084527401000000000000000000000000000000000000000090910460f81b6001600160f81b031916929091018290529091565b604080516001600160f81b031990931683526001600160a01b0390911660208301520161020f565b3480156103f2575f5ffd5b50610406610401366004615884565b6111cd565b60405161020f9493929190615901565b348015610421575f5ffd5b5061030261043036600461594c565b611421565b348015610440575f5ffd5b5061045461044f3660046159a0565b611771565b60405161020f9291906159ca565b34801561046d575f5ffd5b5061030261047c366004615449565b61178d565b34801561048c575f5ffd5b50604080518082018252601a81527f7268696e6573746f6e652e73616665373537392e76312e302e300000000000006020820152905161020f9190615a29565b3480156104d7575f5ffd5b506103026104e6366004615449565b611977565b3480156104f6575f5ffd5b506f71727de22e5e9d8baf0edac6f37da0326101fb565b348015610518575f5ffd5b50610237610527366004615736565b611abc565b348015610537575f5ffd5b5061054b6105463660046154a1565b611b6a565b60405161020f9190615a3b565b348015610563575f5ffd5b506102b6610572366004615abc565b611c17565b348015610582575f5ffd5b506103026105913660046154a1565b611ceb565b3480156105a1575f5ffd5b506104546105b03660046159a0565b612071565b3480156105c0575f5ffd5b506103026105cf366004615af8565b612081565b3480156105df575f5ffd5b506102376105ee366004615736565b6120d4565b3480156105fe575f5ffd5b506102b6604080517f47e79534a245952e8b16893a336b85a3d9ea9fa8c573f3d803afb92a79469218602082015246918101919091523060608201525f9060800160405160208183030381529060405280519060200120905090565b60606001600160a01b03821615610706576106ed33835f36601319013560601c345f366040516024016106909493929190615b84565b60408051601f198184030181529190526020810180517bffffffffffffffffffffffffffffffffffffffffffffffffffffffff167fd68f60250000000000000000000000000000000000000000000000000000000017905261211c565b9050808060200190518101906107039190615c03565b90505b919050565b5f80357fffffffff0000000000000000000000000000000000000000000000000000000016815260046020908152604080832033845290915290208054606091906001600160a01b0381169074010000000000000000000000000000000000000000900460f81b816107ff575f3560e01c63bc197c81811463f23a6e6182141763150b7a02821417156107a257806020526020603cf35b506040517f48c9ceda0000000000000000000000000000000000000000000000000000000081527fffffffff000000000000000000000000000000000000000000000000000000005f351660048201526024015b60405180910390fd5b6001600160f81b031981167ffe0000000000000000000000000000000000000000000000000000000000000003610870576108663383888836601319013560601c60405160200161085293929190615c35565b6040516020818303038152906040526121d7565b93505050506108ba565b6001600160f81b031981166108b65761086633835f898936601319013560601c6040516020016108a293929190615c35565b60405160208183030381529060405261211c565b5050505b92915050565b6001600160a01b038216156109435761094333835f846040516024016108e69190615a29565b60408051601f198184030181529190526020810180517bffffffffffffffffffffffffffffffffffffffffffffffffffffffff167f173bf7da00000000000000000000000000000000000000000000000000000000179052612304565b5050565b5f6001850361097857336001600160a01b03851603610968575060016109cf565b610971846123ca565b90506109cf565b6002850361098957610971846123d7565b6003850361099c576109718484846123e4565b600485036109ad5761097184612446565b60088514806109bc5750600985145b156109cc57610971848484612488565b505f5b949350505050565b5f33828203610b9c576109f436601319013560601c8686866124f8565b50809550505f610a7e826001600160a01b031663f698da256040518163ffffffff1660e01b8152600401602060405180830381865afa158015610a39573d5f5f3e3d5ffd5b505050506040513d601f19601f82011682018060405250810190610a5d9190615c6e565b60408051602081018a9052015b6040516020818303038152906040526125fd565b80516020909101206040517f5ae6bd37000000000000000000000000000000000000000000000000000000008152600481018290529091506001600160a01b03831690635ae6bd3790602401602060405180830381865afa158015610ae5573d5f5f3e3d5ffd5b505050506040513d601f19601f82011682018060405250810190610b099190615c6e565b5f03610b71576040517f08c379a000000000000000000000000000000000000000000000000000000000815260206004820152601160248201527f48617368206e6f7420617070726f76656400000000000000000000000000000060448201526064016107f6565b507f1626ba7e000000000000000000000000000000000000000000000000000000009150610dc59050565b5f610baa6014828688615c85565b610bb391615cac565b60601c90506060610bdf610bcc60131936013560601c90565b88610bda886014818c615c85565b6124f8565b90975090506001600160a01b0382161580610c005750610bfe826123ca565b155b15610d28575f610c7a846001600160a01b031663f698da256040518163ffffffff1660e01b8152600401602060405180830381865afa158015610c45573d5f5f3e3d5ffd5b505050506040513d601f19601f82011682018060405250810190610c699190615c6e565b60408051602081018c905201610a6a565b805160208201206040517f934f3a11000000000000000000000000000000000000000000000000000000008152919250906001600160a01b0386169063934f3a1190610cce90849086908890600401615d12565b5f6040518083038186803b158015610ce4575f5ffd5b505afa158015610cf6573d5f5f3e3d5ffd5b507f1626ba7e000000000000000000000000000000000000000000000000000000009850610dc5975050505050505050565b5f610da8338436601319013560601c8b86604051602401610d4b93929190615d3c565b60408051601f198184030181529190526020810180517bffffffffffffffffffffffffffffffffffffffffffffffffffffffff167ff551e2ee000000000000000000000000000000000000000000000000000000001790526121d7565b905080806020019051810190610dbe9190615d6c565b9450505050505b9392505050565b5f60131936013560601c6f71727de22e5e9d8baf0edac6f37da03214610e1e576040517fac52ccbe00000000000000000000000000000000000000000000000000000000815260040160405180910390fd5b6020840151606081901c90610e348587866126c0565b61010088015294506001600160a01b0382161580610e585750610e56826123ca565b155b15610e6d57610e668661278c565b9250610efe565b5f610ee433845f8a8a604051602401610e87929190615e27565b60408051601f198184030181529190526020810180517bffffffffffffffffffffffffffffffffffffffffffffffffffffffff167f970032030000000000000000000000000000000000000000000000000000000017905261211c565b905080806020019051810190610efa9190615c6e565b9350505b8315610f2e57610f2e336f71727de22e5e9d8baf0edac6f37da0328660405180602001604052805f815250612304565b50509392505050565b5f60098203610f5d575050335f908152600760205260409020546001600160a01b031690565b60088203610f82575050335f908152600860205260409020546001600160a01b031690565b6040517f5691922f00000000000000000000000000000000000000000000000000000000815260040160405180910390fd5b60131936013560601c6f71727de22e5e9d8baf0edac6f37da0321480610fe157503360131936013560601c145b611017576040517fac52ccbe00000000000000000000000000000000000000000000000000000000815260040160405180910390fd5b6110496110276020830183615e48565b6110346020840184615e63565b6110446060860160408701615ec7565b612850565b611053838361294a565b505050565b60131936013560601c6f71727de22e5e9d8baf0edac6f37da032148061108557503360131936013560601c145b6110bb576040517fac52ccbe00000000000000000000000000000000000000000000000000000000815260040160405180910390fd5b335f9081527fe90b7bceb6e7df5418fb78d8ee546e97c83a08bbccc01a0644d599ccd2a7c2e060205260409020546001600160a01b031661094357611101600233612bc7565b805f5b8181101561119d573684848381811061111f5761111f615ee0565b90506020028101906111319190615f0d565b9050600181604001351461117a5761114c6020820182615e48565b6040805163484d218160e01b81526001600160a01b03909216600483015282013560248201526044016107f6565b6111943361118b6020840184615e48565b60029190612c71565b50600101611104565b5060405133907ff48581d8a62b775b74f2fb67f1d5806a9a356fbcc598040ab3071d3e37af40c2905f90a2505050565b6101008201516060905f90819083906111e881846006612dae565b6111f190615f49565b60d01c9350611203816006600c612dae565b61120c90615f49565b60d01c925061121c81600c612e13565b9150505f604051806101c001604052807fc03dfc11d8b10bf9cf703d558958c8c42777f785d998c62060d85a4f0ef6ea7f5f1b8152602001885f01516001600160a01b03168152602001886020015181526020018860400151805190602001208152602001886060015180519060200120815260200161129b89612e21565b6fffffffffffffffffffffffffffffffff1681526020016112bb89612e30565b6fffffffffffffffffffffffffffffffff1681526020018860a0015181526020016112e589612e4e565b6fffffffffffffffffffffffffffffffff16815260200161130589612e5d565b6fffffffffffffffffffffffffffffffff16815260e089015180516020918201209082015265ffffffffffff8087166040830152851660608201526001600160a01b0388166080909101526101c081209091507f1900000000000000000000000000000000000000000000000000000000000000600160f81b6113d9604080517f47e79534a245952e8b16893a336b85a3d9ea9fa8c573f3d803afb92a79469218602082015246918101919091523060608201525f9060800160405160208183030381529060405280519060200120905090565b6040516001600160f81b031993841660208201529290911660218301526022820152604281018290526062016040516020818303038152906040529550505092959194509250565b5f803681602087018035906114369089615e48565b61144360408a018a615fb3565b9350935093509350600484148061145a5750600884145b806114655750600984145b84906114a0576040517f41c38b300000000000000000000000000000000000000000000000000000000081526004016107f691815260200190565b506114ad84848484610947565b838590916114f8576040517fcb5daf190000000000000000000000000000000000000000000000000000000081526001600160a01b03909216600483015260248201526044016107f6565b5050611505878787612e7b565b6001600160a01b0383165f90815260066020908152604080832033845290915281205490819003611592576001600160a01b0384165f81815260066020908152604080832033845282529182902042908190558251938452908301527f2841d18703faaff388732165e48fe431468531b1b1e626b1b7cbcbfc0d79c74091015b60405180910390a1611767565b6115a0620151806003616041565b6115aa9082616058565b4210611608576001600160a01b0384165f818152600660209081526040808320338452825280832092909255815192835242908301527fcbd44a75f6935b5837022648b6c8487db984701200c5381c7c0f8c2b1d69b9da9101611585565b6116156201518082616058565b4210611735576001600160a01b0384165f9081526006602090815260408083203384529091528120557ffffffffffffffffffffffffffffffffffffffffffffffffffffffffffffffffc85016116765761167084848461312a565b50611697565b60088514806116855750600985145b15611697576116958484846131ea565b505b611730337f0000000000000000000000000000000000000000000000000000000000000000878787876040516024016116d3949392919061606b565b60408051601f198184030181529190526020810180517bffffffffffffffffffffffffffffffffffffffffffffffffffffffff167f7827252500000000000000000000000000000000000000000000000000000000179052613339565b611767565b6040517f07f2f2d200000000000000000000000000000000000000000000000000000000815260040160405180910390fd5b5050505050505050565b60605f6117816002338686613415565b915091505b9250929050565b335f908152600560205260408120546001600160a01b0316906117af8261065a565b905060131936013560601c6f71727de22e5e9d8baf0edac6f37da03214806117de57503360131936013560601c145b611814576040517fac52ccbe00000000000000000000000000000000000000000000000000000000815260040160405180910390fd5b60606001870361183057611829868686613607565b90506118cd565b6002870361184357611829868686613717565b60038703611856576118298686866137e5565b6004870361186957611829868686613b91565b8661187957611829868686613d2c565b60088714806118885750600987145b1561189857611829868686613f2f565b6040517f41c38b30000000000000000000000000000000000000000000000000000000008152600481018890526024016107f6565b611964337f000000000000000000000000000000000000000000000000000000000000000089898560405160240161190793929190616093565b60408051601f198184030181529190526020810180517bffffffffffffffffffffffffffffffffffffffffffffffffffffffff167f9517e29f00000000000000000000000000000000000000000000000000000000179052613f88565b5061196f82826108c0565b505050505050565b335f908152600560205260408120546001600160a01b0316906119998261065a565b905060131936013560601c6f71727de22e5e9d8baf0edac6f37da03214806119c857503360131936013560601c145b6119fe576040517fac52ccbe00000000000000000000000000000000000000000000000000000000815260040160405180910390fd5b606060018703611a1a57611a1386868661404f565b9050611a82565b60028703611a2d57611a1386868661406f565b60038703611a4057611a1386868661408f565b60048703611a5357611a1386868661312a565b86611a6357611a1386868661414c565b6008871480611a725750600987145b1561189857611a138686866131ea565b611964337f00000000000000000000000000000000000000000000000000000000000000008989856040516024016116d393929190616093565b5f81600881901b6001600160f81b03198216600160f81b03611ae15760019250611b1c565b6001600160f81b03198216611af95760019250611b1c565b6001600160f81b031980831603611b135760019250611b1c565b505f9392505050565b828015611b3157506001600160f81b03198116155b15611b3d575050919050565b828015611b5757506001600160f81b03198116600160f81b145b15611b13575050919050565b5050919050565b6060611b7c366013190135821c6123d7565b611bbc576040517fb927fe5e00000000000000000000000000000000000000000000000000000000815260131936013560601c60048201526024016107f6565b335f908152600560205260408120546001600160a01b031690611bde8261065a565b905036601319013560601c6002611bf582826142f7565b87600881901b611c0781838b8b61438c565b965050505050610f2e82826108c0565b5f602082901b77ffffffffffffffffffffffffffffffffffffffff00000000166f71727de22e5e9d8baf0edac6f37da0326040517f35567e1a0000000000000000000000000000000000000000000000000000000081526001600160a01b03868116600483015277ffffffffffffffffffffffffffffffffffffffffffffffff8416602483015291909116906335567e1a90604401602060405180830381865afa158015611cc7573d5f5f3e3d5ffd5b505050506040513d601f19601f820116820180604052508101906109cf9190615c6e565b335f908152600560205260408120546001600160a01b031690611d0d8261065a565b905060131936013560601c6f71727de22e5e9d8baf0edac6f37da0321480611d3c57503360131936013560601c145b611d72576040517fac52ccbe00000000000000000000000000000000000000000000000000000000815260040160405180910390fd5b84600881901b336001600160f81b03198216611ef4576001600160f81b03198316600160f81b03611dbf57365f611da9898961476f565b91509150611db8838383614805565b505061205d565b6001600160f81b03198316611e2e575f5f365f611ddc8b8b61489a565b9350935093509350611e2585858585858080601f0160208091040260200160405190810160405280939291908181526020018383808284375f9201919091525061230492505050565b5050505061205d565b6001600160f81b031980841603611eb6575f611e4d601482898b615c85565b611e5691615cac565b60601c9050365f611e6a896014818d615c85565b91509150611eae848484848080601f0160208091040260200160405190810160405280939291908181526020018383808284375f92019190915250613f8892505050565b50505061205d565b6040517fb96fcfe40000000000000000000000000000000000000000000000000000000081526001600160f81b0319841660048201526024016107f6565b6001600160f81b03198216600160f81b0361201f576001600160f81b03198316600160f81b03611f3957365f611f2a898961476f565b91509150611db88383836148ea565b6001600160f81b03198316611f9f575f5f365f611f568b8b61489a565b9350935093509350611e2585858585858080601f0160208091040260200160405190810160405280939291908181526020018383808284375f9201919091525061497f92505050565b6001600160f81b031980841603611eb6575f611fbe601482898b615c85565b611fc791615cac565b60601c9050365f611fdb896014818d615c85565b91509150611eae848484848080601f0160208091040260200160405190810160405280939291908181526020018383808284375f9201919091525061333992505050565b6040517f1187dc060000000000000000000000000000000000000000000000000000000081526001600160f81b0319831660048201526024016107f6565b50505061206a82826108c0565b5050505050565b60605f6117816003338686613415565b3360131936013560601c146120c2576040517fac52ccbe00000000000000000000000000000000000000000000000000000000815260040160405180910390fd5b6120ce84848484612850565b50505050565b5f600182036120e557506001919050565b600282036120f557506001919050565b6003820361210557506001919050565b6004820361211557506001919050565b505f919050565b60605f856001600160a01b0316635229073f8686865f6040518563ffffffff1660e01b815260040161215194939291906160f3565b5f604051808303815f875af115801561216c573d5f5f3e3d5ffd5b505050506040513d5f823e601f3d908101601f191682016040526121939190810190616138565b92509050806121ce576040517facfdb44400000000000000000000000000000000000000000000000000000000815260040160405180910390fd5b50949350505050565b60605f83836040516024016121ed929190616183565b60408051601f198184030181529181526020820180517bffffffffffffffffffffffffffffffffffffffffffffffffffffffff167f6a22165700000000000000000000000000000000000000000000000000000000179052519091505f9061227b907f0000000000000000000000000000000000000000000000000000000000000000908490602401616183565b60408051601f19818403018152919052602080820180517bffffffffffffffffffffffffffffffffffffffffffffffffffffffff167fb4faba0900000000000000000000000000000000000000000000000000000000178152825192935090915f91895afa5060203d036040519350808401604052806020853e505f51610f2e57825160208401fd5b6040517f468721a70000000000000000000000000000000000000000000000000000000081525f906001600160a01b0386169063468721a7906123519087908790879087906004016160f3565b6020604051808303815f875af115801561236d573d5f5f3e3d5ffd5b505050506040513d601f19601f8201168201806040525081019061239191906161a4565b90508061206a576040517facfdb44400000000000000000000000000000000000000000000000000000000815260040160405180910390fd5b5f61070360023384614a5b565b5f61070360033384614a5b565b5f806123f283850185615869565b7fffffffff00000000000000000000000000000000000000000000000000000000165f9081526004602090815260408083203384529091529020546001600160a01b03908116908616149150509392505050565b335f908152600560205260408120546001600160a01b0390811690831615801590610dc55750826001600160a01b0316816001600160a01b0316149392505050565b5f8061249683850185615736565b9050600981036124c4575050335f908152600760205260409020546001600160a01b03848116911614610dc5565b600881036124f0575050335f908152600860205260409020546001600160a01b03848116911614610dc5565b509392505050565b5f60605f6125066008610f37565b90506001600160a01b03811661255d5785858581818080601f0160208091040260200160405190810160405280939291908181526020018383808284375f920191909152509598509196506125f495505050505050565b5f6125d733838a8a8a8a60405160240161257a9493929190615b84565b60408051601f198184030181529190526020810180517bffffffffffffffffffffffffffffffffffffffffffffffffffffffff167f7a0468b7000000000000000000000000000000000000000000000000000000001790526121d7565b9050808060200190518101906125ed91906161bd565b9350935050505b94509492505050565b8051602080830191909120604080517f60b3cbf8b4a223d68d641b3b6ddf9a298e7f33710cf3d3a9d1146b5a6150fbca938101939093528201526060907f190000000000000000000000000000000000000000000000000000000000000090600160f81b90859084015b60408051808303601f190181529082905280516020918201206001600160f81b03199586169183019190915292909316602184015260228301526042820152606201604051602081830303815290604052905092915050565b5f60605f6126ce6009610f37565b90506001600160a01b0381166126ee575050506101008201518390612784565b5f61276733835f89898c60405160240161270a939291906161ec565b60408051601f198184030181529190526020810180517bffffffffffffffffffffffffffffffffffffffffffffffffffffffff167fe24f8f930000000000000000000000000000000000000000000000000000000017905261211c565b90508080602001905181019061277d91906161bd565b9350935050505b935093915050565b5f808080806127ab866f71727de22e5e9d8baf0edac6f37da0326111cd565b835160208501206040517f934f3a110000000000000000000000000000000000000000000000000000000081529498509296509094509250339163934f3a11916127fb9188908690600401615d12565b5f6040518083038186803b158015612811575f5ffd5b505afa925050508015612822575060015b6128395761283260018385614a9d565b9450612847565b6128445f8385614a9d565b94505b50505050919050565b335f90815260208190526040902080547fffffffffffffffffffffffff0000000000000000000000000000000000000000166001600160a01b0386169081179091551561290f5761290f33855f8487876040516024016128b293929190616210565b60408051601f198184030181529190526020810180517bffffffffffffffffffffffffffffffffffffffffffffffffffffffff167ff05c04e100000000000000000000000000000000000000000000000000000000179052612304565b6040516001600160a01b0385169033907f9452c8fb077c3ea8f28a77c87488af657b1e44d010ad9a5992d73870da040e94905f90a350505050565b335f9081527fe90b7bceb6e7df5418fb78d8ee546e97c83a08bbccc01a0644d599ccd2a7c2e0602052604090205460609082906001600160a01b031615158061299857612998600233612bc7565b6129a3600333612bc7565b5f5b82811015612b9557368686838181106129c0576129c0615ee0565b90506020028101906129d29190615f0d565b905060408101355f198101612a44578315612a1b576040517fd8e3ed1b0000000000000000000000000000000000000000000000000000000081523360048201526024016107f6565b612a3d612a2b6020840184615e48565b612a386020850185615fb3565b613607565b9550612b45565b6002826040013503612a7257612a3d612a606020840184615e48565b612a6d6020850185615fb3565b613717565b6003826040013503612aa057612a3d612a8e6020840184615e48565b612a9b6020850185615fb3565b6137e5565b6004826040013503612ace57612a3d612abc6020840184615e48565b612ac96020850185615fb3565b613b91565b600882604001351480612ae5575060098260400135145b15612b0c57612a3d612afa6020840184615e48565b612b076020850185615fb3565b613f2f565b612b196020830183615e48565b60405163484d218160e01b81526001600160a01b039091166004820152602481018290526044016107f6565b612b8b337f000000000000000000000000000000000000000000000000000000000000000083612b786020870187615e48565b8a60405160240161190793929190616093565b50506001016129a5565b5060405133907ff48581d8a62b775b74f2fb67f1d5806a9a356fbcc598040ab3071d3e37af40c2905f90a25050505050565b60015f908152602083815260408083206001600160a01b0380861685529252909120541615612c22576040517f53c85e6600000000000000000000000000000000000000000000000000000000815260040160405180910390fd5b60015f818152602093845260408082206001600160a01b0394909416825292909352912080547fffffffffffffffffffffffff0000000000000000000000000000000000000000169091179055565b6001600160a01b0381161580612c9057506001600160a01b0381166001145b15612cd2576040517f7c84ecfb0000000000000000000000000000000000000000000000000000000081526001600160a01b03821660048201526024016107f6565b6001600160a01b038181165f9081526020858152604080832086851684529091529020541615612d39576040517f40d3d1a40000000000000000000000000000000000000000000000000000000081526001600160a01b03821660048201526024016107f6565b60015f908152602084815260408083206001600160a01b039586168085528184528285208054968816808752988552838620918652908452919093208054949095167fffffffffffffffffffffffff000000000000000000000000000000000000000094851617909455528154169091179055565b60608351828111612dbd578092505b838111612dc8578093505b5081831015610dc55750604051828203848401601f19601f830181165b8281015185820152810180612de5575050508060208301015f81526020810160405250808252509392505050565b6060610dc583835f19612dae565b5f610703826080015160801c90565b5f61070382608001516fffffffffffffffffffffffffffffffff1690565b5f6107038260c0015160801c90565b5f6107038260c001516fffffffffffffffffffffffffffffffff1690565b5f612e896014828486615c85565b612e9291615cac565b60601c90505f3390505f816001600160a01b031663f698da256040518163ffffffff1660e01b8152600401602060405180830381865afa158015612ed8573d5f5f3e3d5ffd5b505050506040513d601f19601f82011682018060405250810190612efc9190615c6e565b90505f612f098288614ad3565b60608801355f90815260016020908152604080832033845290915290205490915060ff1615612f64576040517f756688fe00000000000000000000000000000000000000000000000000000000815260040160405180910390fd5b60608701355f90815260016020818152604080842033855290915290912080547fffffffffffffffffffffffffffffffffffffffffffffffffffffffffffffff001690911790556001600160a01b0384161580612fc75750612fc5846123ca565b155b1561305e575f612fe48383604051602001610a6a91815260200190565b805160208201209091506001600160a01b03851663934f3a11828461300c8b6014818f615c85565b6040518563ffffffff1660e01b815260040161302b9493929190616267565b5f6040518083038186803b158015613041575f5ffd5b505afa158015613053573d5f5f3e3d5ffd5b505050505050613121565b5f61308e338636601319013560601c8561307b8b6014818f615c85565b604051602401610d4b9493929190615b84565b80519091507f1626ba7e00000000000000000000000000000000000000000000000000000000906130c89083016020908101908401615d6c565b7fffffffff000000000000000000000000000000000000000000000000000000001614611767576040517fbf6b584300000000000000000000000000000000000000000000000000000000815260040160405180910390fd5b50505050505050565b335f908152600560205260409020546060906001600160a01b0385811691161461317b5760405163484d218160e01b81526001600160a01b03851660048281019190915260248201526044016107f6565b335f9081526005602090815260409182902080547fffffffffffffffffffffffff00000000000000000000000000000000000000001690558151601f850182900482028101820190925283825284908490819084018382808284375f9201919091525092979650505050505050565b60605f6131f983850185616292565b925090507ffffffffffffffffffffffffffffffffffffffffffffffffffffffffffffffff781016132a957335f908152600760205260409020546001600160a01b038681169116146132705760405163484d218160e01b81526001600160a01b0386166004820152602481018290526044016107f6565b335f90815260076020526040902080547fffffffffffffffffffffffff00000000000000000000000000000000000000001690556124f0565b600881036124f057335f908152600860205260409020546001600160a01b038681169116146132fd5760405163484d218160e01b81526001600160a01b0386166004820152602481018290526044016107f6565b335f90815260086020526040902080547fffffffffffffffffffffffff0000000000000000000000000000000000000000169055509392505050565b6040517f468721a70000000000000000000000000000000000000000000000000000000081525f906001600160a01b0385169063468721a790613387908690859087906001906004016160f3565b6020604051808303815f875af11580156133a3573d5f5f3e3d5ffd5b505050506040513d601f19601f820116820180604052508101906133c791906161a4565b9050806120ce57604080516001600160a01b03861681525f60208201527fb8bc84bd77f5eb08210b8eb20fd63b3ec6a7992d277ab94663bae0e066f792ac910160405180910390a150505050565b60605f6001600160a01b03841660011480159061343a5750613438868686614a5b565b155b1561347c576040517f7c84ecfb0000000000000000000000000000000000000000000000000000000081526001600160a01b03851660048201526024016107f6565b825f036134b5576040517ff725081700000000000000000000000000000000000000000000000000000000815260040160405180910390fd5b8267ffffffffffffffff8111156134ce576134ce6154e9565b6040519080825280602002602001820160405280156134f7578160200160208202803683370190505b506001600160a01b038086165f908152602089815260408083208a85168452909152812054929450911691505b6001600160a01b0382161580159061354657506001600160a01b038216600114155b801561355157508381105b156135b5578183828151811061356957613569615ee0565b6001600160a01b039283166020918202929092018101919091529281165f90815288845260408082208984168352909452929092205490911690806135ad816162cc565b915050613524565b6001600160a01b0382166001148015906135ce57505f81115b156135fa57826135df6001836162e4565b815181106135ef576135ef615ee0565b602002602001015191505b8083525094509492505050565b606083600161361682826142f7565b6040517fecd0596100000000000000000000000000000000000000000000000000000000815260016004820181905287916001600160a01b0383169063ecd0596190602401602060405180830381865afa158015613676573d5f5f3e3d5ffd5b505050506040513d601f19601f8201168201806040525081019061369a91906161a4565b6136c95760405163484d218160e01b81526001600160a01b0383166004820152602481018290526044016107f6565b6136d56002338a612c71565b86868080601f0160208091040260200160405190810160405280939291908181526020018383808284375f92019190915250929b9a5050505050505050505050565b606083600261372682826142f7565b6040517fecd0596100000000000000000000000000000000000000000000000000000000815260026004820181905287916001600160a01b0383169063ecd0596190602401602060405180830381865afa158015613786573d5f5f3e3d5ffd5b505050506040513d601f19601f820116820180604052508101906137aa91906161a4565b6137d95760405163484d218160e01b81526001600160a01b0383166004820152602481018290526044016107f6565b6136d56003338a612c71565b60608360036137f482826142f7565b6040517fecd0596100000000000000000000000000000000000000000000000000000000815260036004820181905287916001600160a01b0383169063ecd0596190602401602060405180830381865afa158015613854573d5f5f3e3d5ffd5b505050506040513d601f19601f8201168201806040525081019061387891906161a4565b6138a75760405163484d218160e01b81526001600160a01b0383166004820152602481018290526044016107f6565b5f806138b5888a018a6162f7565b985090925090507fffffffff0000000000000000000000000000000000000000000000000000000082167f6d61fe7000000000000000000000000000000000000000000000000000000000148061394d57507fffffffff0000000000000000000000000000000000000000000000000000000082167f8a91b0e300000000000000000000000000000000000000000000000000000000145b156139a8576040517f79bd117b0000000000000000000000000000000000000000000000000000000081527fffffffff00000000000000000000000000000000000000000000000000000000831660048201526024016107f6565b6001600160f81b03198116151580156139eb57506001600160f81b031981167ffe0000000000000000000000000000000000000000000000000000000000000014155b15613a2e576040517f76087dc10000000000000000000000000000000000000000000000000000000081526001600160f81b0319821660048201526024016107f6565b7fffffffff0000000000000000000000000000000000000000000000000000000082165f9081526004602090815260408083203384529091529020546001600160a01b031615613ace576040517f74420d150000000000000000000000000000000000000000000000000000000081527fffffffff00000000000000000000000000000000000000000000000000000000831660048201526024016107f6565b7fffffffff000000000000000000000000000000000000000000000000000000009091165f908152600460209081526040808320338452909152902080546001600160a01b039a909a167fffffffffffffffffffffffff000000000000000000000000000000000000000060f89390931c7401000000000000000000000000000000000000000002929092167fffffffffffffffffffffff000000000000000000000000000000000000000000909a169990991717909755509195945050505050565b6060836004613ba082826142f7565b6040517fecd05961000000000000000000000000000000000000000000000000000000008152600481810181905287916001600160a01b0383169063ecd0596190602401602060405180830381865afa158015613bff573d5f5f3e3d5ffd5b505050506040513d601f19601f82011682018060405250810190613c2391906161a4565b613c525760405163484d218160e01b81526001600160a01b0383166004820152602481018290526044016107f6565b335f908152600560205260409020546001600160a01b03168015613cad576040517f741cbe030000000000000000000000000000000000000000000000000000000081526001600160a01b03821660048201526024016107f6565b335f9081526005602090815260409182902080547fffffffffffffffffffffffff0000000000000000000000000000000000000000166001600160a01b038d161790558151601f8a0182900482028101820190925288825289908990819084018382808284375f92019190915250929c9b505050505050505050505050565b60608235830160208181019135908581013586018082019190359060408801358801908101903584838114613d8d576040517fb4fa3fb300000000000000000000000000000000000000000000000000000000815260040160405180910390fd5b5f5b81811015613ee9575f888883818110613daa57613daa615ee0565b90506020020135905060018103613de957613de38d888885818110613dd157613dd1615ee0565b9050602002810190612a389190615fb3565b50613ee0565b60028103613e1957613de38d888885818110613e0757613e07615ee0565b9050602002810190612a6d9190615fb3565b60038103613e4957613de38d888885818110613e3757613e37615ee0565b9050602002810190612a9b9190615fb3565b60048103613e7957613de38d888885818110613e6757613e67615ee0565b9050602002810190612ac99190615fb3565b6008811480613e885750600981145b15613eb557613de38d888885818110613ea357613ea3615ee0565b9050602002810190612b079190615fb3565b60405163484d218160e01b81526001600160a01b038e166004820152602481018290526044016107f6565b50600101613d8f565b5082828080601f0160208091040260200160405190810160405280939291908181526020018383808284375f92019190915250929e9d5050505050505050505050505050565b60605f613f3e83850185616292565b925090507ffffffffffffffffffffffffffffffffffffffffffffffffffffffffffffffff78101613f7757613f7285614aed565b6124f0565b600881036124f0576124f085614c5b565b6040517f468721a70000000000000000000000000000000000000000000000000000000081525f906001600160a01b0385169063468721a790613fd6908690859087906001906004016160f3565b6020604051808303815f875af1158015613ff2573d5f5f3e3d5ffd5b505050506040513d601f19601f8201168201806040525081019061401691906161a4565b9050806120ce576040517facfdb44400000000000000000000000000000000000000000000000000000000815260040160405180910390fd5b60605f61405e83850185616361565b925090506124f06002338388614dc9565b60605f61407e83850185616361565b925090506124f06003338388614dc9565b60605f61409e83850185616398565b7fffffffff0000000000000000000000000000000000000000000000000000000082165f908152600460209081526040808320338452909152902080549194509192506001600160a01b0387811691161461411e5760405163484d218160e01b81526001600160a01b0387166004820152600360248201526044016107f6565b80547fffffffffffffffffffffffff0000000000000000000000000000000000000000169055509392505050565b606082358301602081810191359085810135860180820191903590604088013588019081019035848381146141ad576040517fb4fa3fb300000000000000000000000000000000000000000000000000000000815260040160405180910390fd5b5f5b81811015613ee9575f8888838181106141ca576141ca615ee0565b9050602002013590506001810361420e576142088d8888858181106141f1576141f1615ee0565b90506020028101906142039190615fb3565b61404f565b506142ee565b60028103614243576142088d88888581811061422c5761422c615ee0565b905060200281019061423e9190615fb3565b61406f565b60038103614278576142088d88888581811061426157614261615ee0565b90506020028101906142739190615fb3565b61408f565b600481036142ad576142088d88888581811061429657614296615ee0565b90506020028101906142a89190615fb3565b61312a565b60088114806142bc5750600981145b15613eb5576142088d8888858181106142d7576142d7615ee0565b90506020028101906142e99190615fb3565b6131ea565b506001016141af565b335f908152602081905260409020546001600160a01b03168015611053576040517f529562a10000000000000000000000000000000000000000000000000000000081523360048201526001600160a01b0384811660248301526044820184905282169063529562a1906064015f6040518083038186803b15801561437a575f5ffd5b505afa158015613121573d5f5f3e3d5ffd5b60606001600160f81b031985166145a0576001600160f81b03198416600160f81b036143d657365f6143be858561476f565b915091506143cd338383614f08565b925050506109cf565b6001600160f81b03198416614490575f5f365f6143f3878761489a565b6040805160018082528183019092529498509296509094509250816020015b606081526020019060019003908161441257905050945061446a33858585858080601f0160208091040260200160405190810160405280939291908181526020018383808284375f9201919091525061211c92505050565b855f8151811061447c5761447c615ee0565b6020026020010181905250505050506109cf565b6001600160f81b031980851603614562575f6144af6014828587615c85565b6144b891615cac565b60601c9050365f6144cc8560148189615c85565b604080516001808252818301909252929450909250816020015b60608152602001906001900390816144e657905050935061453d338484848080601f0160208091040260200160405190810160405280939291908181526020018383808284375f92019190915250614fb292505050565b845f8151811061454f5761454f615ee0565b60200260200101819052505050506109cf565b6040517fb96fcfe40000000000000000000000000000000000000000000000000000000081526001600160f81b0319851660048201526024016107f6565b6001600160f81b03198516600160f81b03614731576001600160f81b03198416600160f81b036145f057365f6145d6858561476f565b915091506145e5338383615065565b93506109cf92505050565b6001600160f81b03198416614684575f5f365f61460d878761489a565b6040805160018082528183019092529498509296509094509250816020015b606081526020019060019003908161462c57905050945061446a33858585858080601f0160208091040260200160405190810160405280939291908181526020018383808284375f9201919091525061519992505050565b6001600160f81b031980851603614562575f6146a36014828587615c85565b6146ac91615cac565b60601c9050365f6146c08560148189615c85565b604080516001808252818301909252929450909250816020015b60608152602001906001900390816146da57905050935061453d338484848080601f0160208091040260200160405190810160405280939291908181526020018383808284375f9201919091525061526392505050565b6040517f1187dc060000000000000000000000000000000000000000000000000000000081526001600160f81b0319861660048201526024016107f6565b365f833580850160208587010360208201945081359350808460051b8301118360401c17156147a55763ba597e7e5f526004601cfd5b83156147fb578392505b6001830392508260051b850135915081850160408101358082018381358201118460408501111782861782351760401c17156147f25763ba597e7e5f526004601cfd5b505050826147af575b5050509250929050565b611053837f0000000000000000000000000000000000000000000000000000000000000000848460405160240161483d9291906163b4565b60408051601f198184030181529190526020810180517bffffffffffffffffffffffffffffffffffffffffffffffffffffffff167f3f707e6b00000000000000000000000000000000000000000000000000000000179052613f88565b5f8036816148ab6014828789615c85565b6148b491615cac565b60601c93506148c7603460148789615c85565b6148d0916164ef565b92506148df8560348189615c85565b949793965094505050565b611053837f000000000000000000000000000000000000000000000000000000000000000084846040516024016149229291906163b4565b60408051601f198184030181529190526020810180517bffffffffffffffffffffffffffffffffffffffffffffffffffffffff167f50c8902200000000000000000000000000000000000000000000000000000000179052613339565b6040517f468721a70000000000000000000000000000000000000000000000000000000081525f906001600160a01b0386169063468721a7906149cc9087908790879087906004016160f3565b6020604051808303815f875af11580156149e8573d5f5f3e3d5ffd5b505050506040513d601f19601f82011682018060405250810190614a0c91906161a4565b90508061206a57604080516001600160a01b03871681525f60208201527fb8bc84bd77f5eb08210b8eb20fd63b3ec6a7992d277ab94663bae0e066f792ac910160405180910390a15050505050565b5f60016001600160a01b038316148015906109cf5750506001600160a01b039081165f9081526020938452604080822093831682529290935291205416151590565b5f60d08265ffffffffffff16901b60a08465ffffffffffff16901b85614ac3575f614ac6565b60015b60ff161717949350505050565b5f614ade838361532d565b80519060200120905092915050565b806009614afa82826142f7565b6040517fecd0596100000000000000000000000000000000000000000000000000000000815260096004820181905284916001600160a01b0383169063ecd0596190602401602060405180830381865afa158015614b5a573d5f5f3e3d5ffd5b505050506040513d601f19601f82011682018060405250810190614b7e91906161a4565b614bad5760405163484d218160e01b81526001600160a01b0383166004820152602481018290526044016107f6565b335f908152600760205260409020546001600160a01b03168015614c0f576040517fb9aa8b3f0000000000000000000000000000000000000000000000000000000081526001600160a01b0382166004820152600960248201526044016107f6565b5050335f90815260076020526040902080547fffffffffffffffffffffffff0000000000000000000000000000000000000000166001600160a01b039590951694909417909355505050565b806008614c6882826142f7565b6040517fecd0596100000000000000000000000000000000000000000000000000000000815260086004820181905284916001600160a01b0383169063ecd0596190602401602060405180830381865afa158015614cc8573d5f5f3e3d5ffd5b505050506040513d601f19601f82011682018060405250810190614cec91906161a4565b614d1b5760405163484d218160e01b81526001600160a01b0383166004820152602481018290526044016107f6565b335f908152600860205260409020546001600160a01b03168015614d7d576040517fb9aa8b3f0000000000000000000000000000000000000000000000000000000081526001600160a01b0382166004820152600860248201526044016107f6565b5050335f90815260086020526040902080547fffffffffffffffffffffffff0000000000000000000000000000000000000000166001600160a01b039590951694909417909355505050565b6001600160a01b0381161580614de857506001600160a01b0381166001145b15614e2a576040517f7c84ecfb0000000000000000000000000000000000000000000000000000000081526001600160a01b03831660048201526024016107f6565b6001600160a01b038281165f908152602086815260408083208785168452909152902054811690821614614e95576040517f7c84ecfb0000000000000000000000000000000000000000000000000000000081526001600160a01b03821660048201526024016107f6565b6001600160a01b039081165f908152602085815260408083209584168084528683528184208054968616855297835281842090845282529091208054939092167fffffffffffffffffffffffff000000000000000000000000000000000000000093841617909155919091528154169055565b6060614f9f847f00000000000000000000000000000000000000000000000000000000000000008585604051602401614f429291906163b4565b60408051601f198184030181529190526020810180517bffffffffffffffffffffffffffffffffffffffffffffffffffffffff167f6108557300000000000000000000000000000000000000000000000000000000179052614fb2565b8060200190518101906109cf91906165b8565b60605f846001600160a01b0316635229073f855f8660016040518563ffffffff1660e01b8152600401614fe894939291906160f3565b5f604051808303815f875af1158015615003573d5f5f3e3d5ffd5b505050506040513d5f823e601f3d908101601f1916820160405261502a9190810190616138565b92509050806124f0576040517facfdb44400000000000000000000000000000000000000000000000000000000815260040160405180910390fd5b6060805f6150fe867f000000000000000000000000000000000000000000000000000000000000000087876040516024016150a19291906163b4565b60408051601f198184030181529190526020810180517bffffffffffffffffffffffffffffffffffffffffffffffffffffffff167f9abb6e1700000000000000000000000000000000000000000000000000000000179052615263565b90508080602001905181019061511491906165ea565b815191945092505f5b8181101561518e5784818151811061513757615137615ee0565b602002602001015161518657604080516001600160a01b038a168152602081018390527fb8bc84bd77f5eb08210b8eb20fd63b3ec6a7992d277ab94663bae0e066f792ac910160405180910390a15b60010161511d565b505050935093915050565b60605f856001600160a01b0316635229073f8686865f6040518563ffffffff1660e01b81526004016151ce94939291906160f3565b5f604051808303815f875af11580156151e9573d5f5f3e3d5ffd5b505050506040513d5f823e601f3d908101601f191682016040526152109190810190616138565b92509050806121ce57604080516001600160a01b03881681525f60208201527fb8bc84bd77f5eb08210b8eb20fd63b3ec6a7992d277ab94663bae0e066f792ac910160405180910390a150949350505050565b60605f846001600160a01b0316635229073f855f8660016040518563ffffffff1660e01b815260040161529994939291906160f3565b5f604051808303815f875af11580156152b4573d5f5f3e3d5ffd5b505050506040513d5f823e601f3d908101601f191682016040526152db9190810190616138565b92509050806124f057604080516001600160a01b03871681525f60208201527fb8bc84bd77f5eb08210b8eb20fd63b3ec6a7992d277ab94663bae0e066f792ac910160405180910390a1509392505050565b60607f1900000000000000000000000000000000000000000000000000000000000000600160f81b847fd3ddfc12654178cc44d4a7b6b969cfdce7ffe6342326ba37825314cffa0fba9c6153846020870187615e48565b60208701356153966040890189615fb3565b6040516153a49291906166a5565b6040519081900381206126679493929160608b0135906020019485526001600160a01b0393909316602085015260408401919091526060830152608082015260a00190565b6001600160a01b03811681146153fd575f5ffd5b50565b8035610706816153e9565b5f5f83601f84011261541b575f5ffd5b50813567ffffffffffffffff811115615432575f5ffd5b602083019150836020828501011115611786575f5ffd5b5f5f5f5f6060858703121561545c575f5ffd5b84359350602085013561546e816153e9565b9250604085013567ffffffffffffffff811115615489575f5ffd5b6154958782880161540b565b95989497509550505050565b5f5f5f604084860312156154b3575f5ffd5b83359250602084013567ffffffffffffffff8111156154d0575f5ffd5b6154dc8682870161540b565b9497909650939450505050565b7f4e487b71000000000000000000000000000000000000000000000000000000005f52604160045260245ffd5b604051610120810167ffffffffffffffff8111828210171561553a5761553a6154e9565b60405290565b604051601f8201601f1916810167ffffffffffffffff81118282101715615569576155696154e9565b604052919050565b5f67ffffffffffffffff82111561558a5761558a6154e9565b50601f01601f191660200190565b5f82601f8301126155a7575f5ffd5b81356155ba6155b582615571565b615540565b8181528460208386010111156155ce575f5ffd5b816020850160208301375f918101602001919091529392505050565b5f61012082840312156155fb575f5ffd5b615603615516565b905061560e82615400565b815260208281013590820152604082013567ffffffffffffffff811115615633575f5ffd5b61563f84828501615598565b604083015250606082013567ffffffffffffffff81111561565e575f5ffd5b61566a84828501615598565b6060830152506080828101359082015260a0808301359082015260c0808301359082015260e082013567ffffffffffffffff8111156156a7575f5ffd5b6156b384828501615598565b60e08301525061010082013567ffffffffffffffff8111156156d3575f5ffd5b6156df84828501615598565b6101008301525092915050565b5f5f5f606084860312156156fe575f5ffd5b833567ffffffffffffffff811115615714575f5ffd5b615720868287016155ea565b9660208601359650604090950135949350505050565b5f60208284031215615746575f5ffd5b5035919050565b5f5f83601f84011261575d575f5ffd5b50813567ffffffffffffffff811115615774575f5ffd5b6020830191508360208260051b8501011115611786575f5ffd5b5f5f5f604084860312156157a0575f5ffd5b833567ffffffffffffffff8111156157b6575f5ffd5b6157c28682870161574d565b909450925050602084013567ffffffffffffffff8111156157e1575f5ffd5b8401606081870312156157f2575f5ffd5b809150509250925092565b5f5f6020838503121561580e575f5ffd5b823567ffffffffffffffff811115615824575f5ffd5b6158308582860161574d565b90969095509350505050565b7fffffffff00000000000000000000000000000000000000000000000000000000811681146153fd575f5ffd5b5f60208284031215615879575f5ffd5b8135610dc58161583c565b5f5f60408385031215615895575f5ffd5b823567ffffffffffffffff8111156158ab575f5ffd5b6158b7858286016155ea565b92505060208301356158c8816153e9565b809150509250929050565b5f81518084528060208401602086015e5f602082860101526020601f19601f83011685010191505092915050565b608081525f61591360808301876158d3565b65ffffffffffff8616602084015265ffffffffffff85166040840152828103606084015261594181856158d3565b979650505050505050565b5f5f5f6040848603121561595e575f5ffd5b833567ffffffffffffffff811115615974575f5ffd5b840160808187031215615985575f5ffd5b9250602084013567ffffffffffffffff8111156154d0575f5ffd5b5f5f604083850312156159b1575f5ffd5b82356159bc816153e9565b946020939093013593505050565b604080825283519082018190525f9060208501906060840190835b81811015615a0c5783516001600160a01b03168352602093840193909201916001016159e5565b505080925050506001600160a01b03831660208301529392505050565b602081525f610dc560208301846158d3565b5f602082016020835280845180835260408501915060408160051b8601019250602086015f5b82811015615ab0577fffffffffffffffffffffffffffffffffffffffffffffffffffffffffffffffc0878603018452615a9b8583516158d3565b94506020938401939190910190600101615a61565b50929695505050505050565b5f5f60408385031215615acd575f5ffd5b8235615ad8816153e9565b915060208301356158c8816153e9565b803560ff81168114610706575f5ffd5b5f5f5f5f60608587031215615b0b575f5ffd5b8435615b16816153e9565b9350602085013567ffffffffffffffff811115615b31575f5ffd5b615b3d8782880161574d565b9094509250615b50905060408601615ae8565b905092959194509250565b81835281816020850137505f602082840101525f6020601f19601f840116840101905092915050565b6001600160a01b0385168152836020820152606060408201525f615bac606083018486615b5b565b9695505050505050565b5f82601f830112615bc5575f5ffd5b8151615bd36155b582615571565b818152846020838601011115615be7575f5ffd5b8160208501602083015e5f918101602001919091529392505050565b5f60208284031215615c13575f5ffd5b815167ffffffffffffffff811115615c29575f5ffd5b6109cf84828501615bb6565b8284823760609190911b7fffffffffffffffffffffffffffffffffffffffff000000000000000000000000169101908152601401919050565b5f60208284031215615c7e575f5ffd5b5051919050565b5f5f85851115615c93575f5ffd5b83861115615c9f575f5ffd5b5050820193919092039150565b80357fffffffffffffffffffffffffffffffffffffffff0000000000000000000000008116906014841015615d0b577fffffffffffffffffffffffffffffffffffffffff000000000000000000000000808560140360031b1b82161691505b5092915050565b838152606060208201525f615d2a60608301856158d3565b8281036040840152615bac81856158d3565b6001600160a01b0384168152826020820152606060408201525f615d6360608301846158d3565b95945050505050565b5f60208284031215615d7c575f5ffd5b8151610dc58161583c565b80516001600160a01b03168252602081015160208301525f60408201516101206040850152615dba6101208501826158d3565b905060608301518482036060860152615dd382826158d3565b9150506080830151608085015260a083015160a085015260c083015160c085015260e083015184820360e0860152615e0b82826158d3565b915050610100830151848203610100860152615d6382826158d3565b604081525f615e396040830185615d87565b90508260208301529392505050565b5f60208284031215615e58575f5ffd5b8135610dc5816153e9565b5f5f83357fffffffffffffffffffffffffffffffffffffffffffffffffffffffffffffffe1843603018112615e96575f5ffd5b83018035915067ffffffffffffffff821115615eb0575f5ffd5b6020019150600581901b3603821315611786575f5ffd5b5f60208284031215615ed7575f5ffd5b610dc582615ae8565b7f4e487b71000000000000000000000000000000000000000000000000000000005f52603260045260245ffd5b5f82357fffffffffffffffffffffffffffffffffffffffffffffffffffffffffffffffa1833603018112615f3f575f5ffd5b9190910192915050565b805160208201517fffffffffffff0000000000000000000000000000000000000000000000000000811691906006821015611b63577fffffffffffff000000000000000000000000000000000000000000000000000060069290920360031b82901b161692915050565b5f5f83357fffffffffffffffffffffffffffffffffffffffffffffffffffffffffffffffe1843603018112615fe6575f5ffd5b83018035915067ffffffffffffffff821115616000575f5ffd5b602001915036819003821315611786575f5ffd5b7f4e487b71000000000000000000000000000000000000000000000000000000005f52601160045260245ffd5b80820281158282048414176108ba576108ba616014565b808201808211156108ba576108ba616014565b8481526001600160a01b0384166020820152606060408201525f615bac606083018486615b5b565b8381526001600160a01b0383166020820152606060408201525f615d6360608301846158d3565b600281106160ef577f4e487b71000000000000000000000000000000000000000000000000000000005f52602160045260245ffd5b9052565b6001600160a01b0385168152836020820152608060408201525f61611a60808301856158d3565b9050615d6360608301846160ba565b80518015158114610706575f5ffd5b5f5f60408385031215616149575f5ffd5b61615283616129565b9150602083015167ffffffffffffffff81111561616d575f5ffd5b61617985828601615bb6565b9150509250929050565b6001600160a01b0383168152604060208201525f6109cf60408301846158d3565b5f602082840312156161b4575f5ffd5b610dc582616129565b5f5f604083850312156161ce575f5ffd5b8251602084015190925067ffffffffffffffff81111561616d575f5ffd5b606081525f6161fe6060830186615d87565b60208301949094525060400152919050565b60ff8416815260406020820181905281018290525f8360608301825b8581101561625c57823561623f816153e9565b6001600160a01b031682526020928301929091019060010161622c565b509695505050505050565b848152606060208201525f61627f60608301866158d3565b8281036040840152615941818587615b5b565b5f5f604083850312156162a3575f5ffd5b82359150602083013567ffffffffffffffff8111156162c0575f5ffd5b61617985828601615598565b5f5f1982036162dd576162dd616014565b5060010190565b818103818111156108ba576108ba616014565b5f5f5f60608486031215616309575f5ffd5b83356163148161583c565b925060208401356001600160f81b031981168114616330575f5ffd5b9150604084013567ffffffffffffffff81111561634b575f5ffd5b61635786828701615598565b9150509250925092565b5f5f60408385031215616372575f5ffd5b823561637d816153e9565b9150602083013567ffffffffffffffff8111156162c0575f5ffd5b5f5f604083850312156163a9575f5ffd5b823561637d8161583c565b602080825281018290525f6040600584901b8301810190830185837fffffffffffffffffffffffffffffffffffffffffffffffffffffffffffffffa136839003015b878210156164e2577fffffffffffffffffffffffffffffffffffffffffffffffffffffffffffffffc08786030184528235818112616432575f5ffd5b8901803561643f816153e9565b6001600160a01b03168652602081810135908701526040810135368290037fffffffffffffffffffffffffffffffffffffffffffffffffffffffffffffffe1018112616489575f5ffd5b0160208101903567ffffffffffffffff8111156164a4575f5ffd5b8036038213156164b2575f5ffd5b606060408801526164c7606088018284615b5b565b965050506020830192506020840193506001820191506163f6565b5092979650505050505050565b803560208310156108ba575f19602084900360031b1b1692915050565b5f67ffffffffffffffff821115616525576165256154e9565b5060051b60200190565b5f82601f83011261653e575f5ffd5b815161654c6155b58261650c565b8082825260208201915060208360051b86010192508583111561656d575f5ffd5b602085015b838110156165ae57805167ffffffffffffffff811115616590575f5ffd5b61659f886020838a0101615bb6565b84525060209283019201616572565b5095945050505050565b5f602082840312156165c8575f5ffd5b815167ffffffffffffffff8111156165de575f5ffd5b6109cf8482850161652f565b5f5f604083850312156165fb575f5ffd5b825167ffffffffffffffff811115616611575f5ffd5b8301601f81018513616621575f5ffd5b805161662f6155b58261650c565b8082825260208201915060208360051b850101925087831115616650575f5ffd5b6020840193505b828410156166795761666884616129565b825260209384019390910190616657565b80955050505050602083015167ffffffffffffffff811115616699575f5ffd5b6161798582860161652f565b818382375f910190815291905056fea164736f6c634300081c000a6080604052348015600e575f5ffd5b50610abb8061001c5f395ff3fe608060405234801561000f575f5ffd5b506004361061007a575f3560e01c80636a221657116100585780636a221657146100cf57806378272525146100e25780639517e29f146100f55780639abb6e1714610108575f5ffd5b80633f707e6b1461007e57806350c890221461009357806361085573146100a6575b5f5ffd5b61009161008c366004610606565b610129565b005b6100916100a1366004610606565b610192565b6100b96100b4366004610606565b6101f6565b6040516100c6919061072d565b60405180910390f35b6100916100dd36600461079b565b6102b7565b6100916100f036600461089c565b6102d8565b61009161010336600461089c565b6103af565b61011b610116366004610606565b61047c565b6040516100c692919061091f565b805f5b8181101561018c573684848381811061014757610147610978565b905060200281019061015991906109a5565b905061018261016b60208301836109e1565b602083013561017d60408501856109fa565b6105a5565b505060010161012c565b50505050565b805f5b8181101561018c57368484838181106101b0576101b0610978565b90506020028101906101c291906109a5565b90506101eb6101d460208301836109e1565b60208301356101e660408501856109fa565b6105d8565b505050600101610195565b6060818067ffffffffffffffff8111156102125761021261076e565b60405190808252806020026020018201604052801561024557816020015b60608152602001906001900390816102305790505b5091505f5b818110156102af573685858381811061026557610265610978565b905060200281019061027791906109a5565b905061028961016b60208301836109e1565b84838151811061029b5761029b610978565b60209081029190910101525060010161024a565b505092915050565b6040515f5f835160208501865afa3d5f833e80156102d3573d82f35b503d81fd5b6040517f8a91b0e300000000000000000000000000000000000000000000000000000000815273ffffffffffffffffffffffffffffffffffffffff841690638a91b0e39061032c9085908590600401610a62565b5f604051808303815f87803b158015610343575f5ffd5b505af1158015610355573d5f5f3e3d5ffd5b50506040805187815273ffffffffffffffffffffffffffffffffffffffff871660208201527f341347516a9de374859dfda710fa4828b2d48cb57d4fbe4c1149612b8e02276e93500190505b60405180910390a150505050565b6040517f6d61fe7000000000000000000000000000000000000000000000000000000000815273ffffffffffffffffffffffffffffffffffffffff841690636d61fe70906104039085908590600401610a62565b5f604051808303815f87803b15801561041a575f5ffd5b505af115801561042c573d5f5f3e3d5ffd5b50506040805187815273ffffffffffffffffffffffffffffffffffffffff871660208201527fd21d0b289f126c4b473ea641963e766833c2f13866e4ff480abd787c100ef12393500190506103a1565b606080828067ffffffffffffffff8111156104995761049961076e565b6040519080825280602002602001820160405280156104cc57816020015b60608152602001906001900390816104b75790505b5091508067ffffffffffffffff8111156104e8576104e861076e565b604051908082528060200260200182016040528015610511578160200160208202803683370190505b5092505f5b8181101561059c573686868381811061053157610531610978565b905060200281019061054391906109a5565b90506105556101d460208301836109e1565b86848151811061056757610567610978565b6020026020010186858151811061058057610580610978565b6020908102919091010191909152901515905250600101610516565b50509250929050565b604051818382375f38838387895af16105c0573d5f823e3d81fd5b3d8152602081013d5f823e3d01604052949350505050565b6040515f90828482375f388483888a5af191503d8152602081013d5f823e3d81016040525094509492505050565b5f5f60208385031215610617575f5ffd5b823567ffffffffffffffff81111561062d575f5ffd5b8301601f8101851361063d575f5ffd5b803567ffffffffffffffff811115610653575f5ffd5b8560208260051b8401011115610667575f5ffd5b6020919091019590945092505050565b5f82825180855260208501945060208160051b830101602085015f5b83811015610721577fffffffffffffffffffffffffffffffffffffffffffffffffffffffffffffffe0858403018852815180518085528060208301602087015e5f6020828701015260207fffffffffffffffffffffffffffffffffffffffffffffffffffffffffffffffe0601f83011686010194505050602082019150602088019750600181019050610693565b50909695505050505050565b602081525f61073f6020830184610677565b9392505050565b803573ffffffffffffffffffffffffffffffffffffffff81168114610769575f5ffd5b919050565b7f4e487b71000000000000000000000000000000000000000000000000000000005f52604160045260245ffd5b5f5f604083850312156107ac575f5ffd5b6107b583610746565b9150602083013567ffffffffffffffff8111156107d0575f5ffd5b8301601f810185136107e0575f5ffd5b803567ffffffffffffffff8111156107fa576107fa61076e565b6040517fffffffffffffffffffffffffffffffffffffffffffffffffffffffffffffffe0603f7fffffffffffffffffffffffffffffffffffffffffffffffffffffffffffffffe0601f8501160116810181811067ffffffffffffffff821117156108665761086661076e565b60405281815282820160200187101561087d575f5ffd5b816020840160208301375f602083830101528093505050509250929050565b5f5f5f5f606085870312156108af575f5ffd5b843593506108bf60208601610746565b9250604085013567ffffffffffffffff8111156108da575f5ffd5b8501601f810187136108ea575f5ffd5b803567ffffffffffffffff811115610900575f5ffd5b876020828401011115610911575f5ffd5b949793965060200194505050565b604080825283519082018190525f9060208501906060840190835b8181101561095a578351151583526020938401939092019160010161093a565b5050838103602085015261096e8186610677565b9695505050505050565b7f4e487b71000000000000000000000000000000000000000000000000000000005f52603260045260245ffd5b5f82357fffffffffffffffffffffffffffffffffffffffffffffffffffffffffffffffa18336030181126109d7575f5ffd5b9190910192915050565b5f602082840312156109f1575f5ffd5b61073f82610746565b5f5f83357fffffffffffffffffffffffffffffffffffffffffffffffffffffffffffffffe1843603018112610a2d575f5ffd5b83018035915067ffffffffffffffff821115610a47575f5ffd5b602001915036819003821315610a5b575f5ffd5b9250929050565b60208152816020820152818360408301375f818301604090810191909152601f9092017fffffffffffffffffffffffffffffffffffffffffffffffffffffffffffffffe016010191905056fea164736f6c634300081c000a",
    "linkReferences": {}
  },
  "methodIdentifiers": {
    "accountId()": "9cfd7cff",
    "domainSeparator()": "f698da25",
    "emergencyUninstallHook((address,uint256,bytes,uint256),bytes)": "5bfeadbb",
    "entryPoint()": "b0d691fe",
    "execute(bytes32,bytes)": "e9ae5c53",
    "executeFromExecutor(bytes32,bytes)": "d691c964",
    "getActiveHook()": "0a664dba",
    "getExecutorsPaginated(address,uint256)": "ea5f61d0",
    "getFallbackHandlerBySelector(bytes4)": "481ddd23",
    "getNonce(address,address)": "d828435d",
    "getPrevalidationHook(uint256)": "236b58a1",
    "getSafeOp((address,uint256,bytes,bytes,bytes32,uint256,bytes32,bytes,bytes),address)": "55d559f4",
    "getValidatorsPaginated(address,uint256)": "5faac46b",
    "initializeAccount((address,bytes,uint256)[],(address,address[],uint8))": "3065ca43",
    "initializeAccountWithValidators((address,bytes,uint256)[])": "3c4ddc9d",
    "installModule(uint256,address,bytes)": "9517e29f",
    "isModuleInstalled(uint256,address,bytes)": "112d3a7d",
    "isValidSignature(bytes32,bytes)": "1626ba7e",
    "setRegistry(address,address[],uint8)": "eab77e17",
    "supportsExecutionMode(bytes32)": "d03c7914",
    "supportsModule(uint256)": "f2dc691d",
    "uninstallModule(uint256,address,bytes)": "a71763a8",
    "validateUserOp((address,uint256,bytes,bytes,bytes32,uint256,bytes32,bytes,bytes),bytes32,uint256)": "19822f7c"
  },
  "id": 15
}