{"abi":[{"type":"fallback","stateMutability":"payable"},{"type":"receive","stateMutability":"payable"},{"type":"function","name":"accountId","inputs":[],"outputs":[{"name":"accountImplementationId","type":"string","internalType":"string"}],"stateMutability":"pure"},{"type":"function","name":"domainSeparator","inputs":[],"outputs":[{"name":"","type":"bytes32","internalType":"bytes32"}],"stateMutability":"view"},{"type":"function","name":"entryPoint","inputs":[],"outputs":[{"name":"","type":"address","internalType":"address"}],"stateMutability":"view"},{"type":"function","name":"execute","inputs":[{"name":"mode","type":"bytes32","internalType":"ModeCode"},{"name":"executionCalldata","type":"bytes","internalType":"bytes"}],"outputs":[],"stateMutability":"nonpayable"},{"type":"function","name":"executeFromExecutor","inputs":[{"name":"mode","type":"bytes32","internalType":"ModeCode"},{"name":"executionCalldata","type":"bytes","internalType":"bytes"}],"outputs":[{"name":"returnDatas","type":"bytes[]","internalType":"bytes[]"}],"stateMutability":"nonpayable"},{"type":"function","name":"getActiveHook","inputs":[],"outputs":[{"name":"hook","type":"address","internalType":"address"}],"stateMutability":"view"},{"type":"function","name":"getActiveHook","inputs":[{"name":"selector","type":"bytes4","internalType":"bytes4"}],"outputs":[{"name":"hook","type":"address","internalType":"address"}],"stateMutability":"view"},{"type":"function","name":"getExecutorsPaginated","inputs":[{"name":"cursor","type":"address","internalType":"address"},{"name":"pageSize","type":"uint256","internalType":"uint256"}],"outputs":[{"name":"array","type":"address[]","internalType":"address[]"},{"name":"next","type":"address","internalType":"address"}],"stateMutability":"view"},{"type":"function","name":"getNonce","inputs":[{"name":"safe","type":"address","internalType":"address"},{"name":"validator","type":"address","internalType":"address"}],"outputs":[{"name":"nonce","type":"uint256","internalType":"uint256"}],"stateMutability":"view"},{"type":"function","name":"getSafeOp","inputs":[{"name":"userOp","type":"tuple","internalType":"struct PackedUserOperation","components":[{"name":"sender","type":"address","internalType":"address"},{"name":"nonce","type":"uint256","internalType":"uint256"},{"name":"initCode","type":"bytes","internalType":"bytes"},{"name":"callData","type":"bytes","internalType":"bytes"},{"name":"accountGasLimits","type":"bytes32","internalType":"bytes32"},{"name":"preVerificationGas","type":"uint256","internalType":"uint256"},{"name":"gasFees","type":"bytes32","internalType":"bytes32"},{"name":"paymasterAndData","type":"bytes","internalType":"bytes"},{"name":"signature","type":"bytes","internalType":"bytes"}]},{"name":"entryPoint","type":"address","internalType":"address"}],"outputs":[{"name":"operationData","type":"bytes","internalType":"bytes"},{"name":"validAfter","type":"uint48","internalType":"uint48"},{"name":"validUntil","type":"uint48","internalType":"uint48"},{"name":"signatures","type":"bytes","internalType":"bytes"}],"stateMutability":"view"},{"type":"function","name":"getValidatorsPaginated","inputs":[{"name":"cursor","type":"address","internalType":"address"},{"name":"pageSize","type":"uint256","internalType":"uint256"}],"outputs":[{"name":"array","type":"address[]","internalType":"address[]"},{"name":"next","type":"address","internalType":"address"}],"stateMutability":"view"},{"type":"function","name":"initializeAccount","inputs":[{"name":"validators","type":"tuple[]","internalType":"struct ModuleInit[]","components":[{"name":"module","type":"address","internalType":"address"},{"name":"initData","type":"bytes","internalType":"bytes"}]},{"name":"executors","type":"tuple[]","internalType":"struct ModuleInit[]","components":[{"name":"module","type":"address","internalType":"address"},{"name":"initData","type":"bytes","internalType":"bytes"}]},{"name":"fallbacks","type":"tuple[]","internalType":"struct ModuleInit[]","components":[{"name":"module","type":"address","internalType":"address"},{"name":"initData","type":"bytes","internalType":"bytes"}]},{"name":"hooks","type":"tuple[]","internalType":"struct ModuleInit[]","components":[{"name":"module","type":"address","internalType":"address"},{"name":"initData","type":"bytes","internalType":"bytes"}]},{"name":"registryInit","type":"tuple","internalType":"struct RegistryInit","components":[{"name":"registry","type":"address","internalType":"contract IERC7484"},{"name":"attesters","type":"address[]","internalType":"address[]"},{"name":"threshold","type":"uint8","internalType":"uint8"}]}],"outputs":[],"stateMutability":"nonpayable"},{"type":"function","name":"initializeAccountWithValidators","inputs":[{"name":"validators","type":"tuple[]","internalType":"struct ModuleInit[]","components":[{"name":"module","type":"address","internalType":"address"},{"name":"initData","type":"bytes","internalType":"bytes"}]}],"outputs":[],"stateMutability":"nonpayable"},{"type":"function","name":"installModule","inputs":[{"name":"moduleType","type":"uint256","internalType":"uint256"},{"name":"module","type":"address","internalType":"address"},{"name":"initData","type":"bytes","internalType":"bytes"}],"outputs":[],"stateMutability":"nonpayable"},{"type":"function","name":"isModuleInstalled","inputs":[{"name":"moduleType","type":"uint256","internalType":"uint256"},{"name":"module","type":"address","internalType":"address"},{"name":"additionalContext","type":"bytes","internalType":"bytes"}],"outputs":[{"name":"","type":"bool","internalType":"bool"}],"stateMutability":"view"},{"type":"function","name":"isValidSignature","inputs":[{"name":"hash","type":"bytes32","internalType":"bytes32"},{"name":"data","type":"bytes","internalType":"bytes"}],"outputs":[{"name":"magicValue","type":"bytes4","internalType":"bytes4"}],"stateMutability":"view"},{"type":"function","name":"setRegistry","inputs":[{"name":"registry","type":"address","internalType":"contract IERC7484"},{"name":"attesters","type":"address[]","internalType":"address[]"},{"name":"threshold","type":"uint8","internalType":"uint8"}],"outputs":[],"stateMutability":"nonpayable"},{"type":"function","name":"supportsExecutionMode","inputs":[{"name":"encodedMode","type":"bytes32","internalType":"ModeCode"}],"outputs":[{"name":"supported","type":"bool","internalType":"bool"}],"stateMutability":"pure"},{"type":"function","name":"supportsModule","inputs":[{"name":"moduleTypeId","type":"uint256","internalType":"uint256"}],"outputs":[{"name":"","type":"bool","internalType":"bool"}],"stateMutability":"pure"},{"type":"function","name":"uninstallModule","inputs":[{"name":"moduleType","type":"uint256","internalType":"uint256"},{"name":"module","type":"address","internalType":"address"},{"name":"deInitData","type":"bytes","internalType":"bytes"}],"outputs":[],"stateMutability":"nonpayable"},{"type":"function","name":"validateUserOp","inputs":[{"name":"userOp","type":"tuple","internalType":"struct PackedUserOperation","components":[{"name":"sender","type":"address","internalType":"address"},{"name":"nonce","type":"uint256","internalType":"uint256"},{"name":"initCode","type":"bytes","internalType":"bytes"},{"name":"callData","type":"bytes","internalType":"bytes"},{"name":"accountGasLimits","type":"bytes32","internalType":"bytes32"},{"name":"preVerificationGas","type":"uint256","internalType":"uint256"},{"name":"gasFees","type":"bytes32","internalType":"bytes32"},{"name":"paymasterAndData","type":"bytes","internalType":"bytes"},{"name":"signature","type":"bytes","internalType":"bytes"}]},{"name":"userOpHash","type":"bytes32","internalType":"bytes32"},{"name":"missingAccountFunds","type":"uint256","internalType":"uint256"}],"outputs":[{"name":"validSignature","type":"uint256","internalType":"uint256"}],"stateMutability":"nonpayable"},{"type":"event","name":"ERC7484RegistryConfigured","inputs":[{"name":"smartAccount","type":"address","indexed":true,"internalType":"address"},{"name":"registry","type":"address","indexed":true,"internalType":"contract IERC7484"}],"anonymous":false},{"type":"event","name":"ModuleInstalled","inputs":[{"name":"moduleTypeId","type":"uint256","indexed":false,"internalType":"uint256"},{"name":"module","type":"address","indexed":false,"internalType":"address"}],"anonymous":false},{"type":"event","name":"ModuleUninstalled","inputs":[{"name":"moduleTypeId","type":"uint256","indexed":false,"internalType":"uint256"},{"name":"module","type":"address","indexed":false,"internalType":"address"}],"anonymous":false},{"type":"event","name":"Safe7579Initialized","inputs":[{"name":"safe","type":"address","indexed":true,"internalType":"address"}],"anonymous":false},{"type":"event","name":"TryExecutionFailed","inputs":[{"name":"safe","type":"address","indexed":false,"internalType":"contract ISafe"},{"name":"numberInBatch","type":"uint256","indexed":false,"internalType":"uint256"}],"anonymous":false},{"type":"event","name":"TryExecutionsFailed","inputs":[{"name":"safe","type":"address","indexed":false,"internalType":"contract ISafe"},{"name":"success","type":"bool[]","indexed":false,"internalType":"bool[]"}],"anonymous":false},{"type":"error","name":"AccountAccessUnauthorized","inputs":[]},{"type":"error","name":"ExecutionFailed","inputs":[]},{"type":"error","name":"FallbackInstalled","inputs":[{"name":"msgSig","type":"bytes4","internalType":"bytes4"}]},{"type":"error","name":"HookAlreadyInstalled","inputs":[{"name":"currentHook","type":"address","internalType":"address"}]},{"type":"error","name":"InvalidCallType","inputs":[{"name":"callType","type":"bytes1","internalType":"CallType"}]},{"type":"error","name":"InvalidFallbackHandler","inputs":[{"name":"msgSig","type":"bytes4","internalType":"bytes4"}]},{"type":"error","name":"InvalidHookType","inputs":[]},{"type":"error","name":"InvalidInitData","inputs":[{"name":"safe","type":"address","internalType":"address"}]},{"type":"error","name":"InvalidInput","inputs":[]},{"type":"error","name":"InvalidModule","inputs":[{"name":"module","type":"address","internalType":"address"}]},{"type":"error","name":"InvalidModuleType","inputs":[{"name":"module","type":"address","internalType":"address"},{"name":"moduleType","type":"uint256","internalType":"uint256"}]},{"type":"error","name":"LinkedList_AlreadyInitialized","inputs":[]},{"type":"error","name":"LinkedList_EntryAlreadyInList","inputs":[{"name":"entry","type":"address","internalType":"address"}]},{"type":"error","name":"LinkedList_InvalidEntry","inputs":[{"name":"entry","type":"address","internalType":"address"}]},{"type":"error","name":"LinkedList_InvalidPage","inputs":[]},{"type":"error","name":"NoFallbackHandler","inputs":[{"name":"msgSig","type":"bytes4","internalType":"bytes4"}]},{"type":"error","name":"UnsupportedCallType","inputs":[{"name":"callType","type":"bytes1","internalType":"CallType"}]},{"type":"error","name":"UnsupportedExecType","inputs":[{"name":"execType","type":"bytes1","internalType":"ExecType"}]},{"type":"error","name":"UnsupportedModuleType","inputs":[{"name":"moduleTypeId","type":"uint256","internalType":"uint256"}]}],"bytecode":{"object":"0x60a060405234801561001057600080fd5b5060405161001d9061004b565b604051809103906000f080158015610039573d6000803e3d6000fd5b506001600160a01b0316608052610058565b6109e180614ee083390190565b608051614e206100c0600039600081816112330152818161142b0152818161158c01528181611dd5015281816121f7015281816122d101528181612368015281816123ff0152818161356c015281816136240152818161394c0152613a6c0152614e206000f3fe60806040526004361061012e5760003560e01c8063a71763a8116100ab578063d828435d1161006f578063d828435d146104a2578063e9ae5c53146104c2578063ea5f61d0146104e2578063eab77e1714610502578063f2dc691d14610522578063f698da251461054257610135565b8063a71763a8146103c7578063b0d691fe146103e7578063b875d5d81461040a578063d03c791414610455578063d691c9641461047557610135565b806355d559f4116100f257806355d559f4146102dd5780635faac46b1461030d57806379aad60e1461033b5780639517e29f1461035b5780639cfd7cff1461037b57610135565b80630a664dba146101e0578063112d3a7d146102245780631626ba7e1461025457806319822f7c1461028d578063540fb4f9146102bb57610135565b3661013557005b600036606060003560e01c63bc197c81811463f23a6e6182141763150b7a028214171561016657806020526020603cf35b50336000818152600460209081526040808320546001600160e01b031984351680855260058452828520958552949092528220546001600160a01b0391821692911690806101b48484610557565b915091506101c28888610615565b95506101d084848484610728565b5050505050915050805190602001f35b3480156101ec57600080fd5b50336000908152600460205260409020546001600160a01b03165b6040516001600160a01b0390911681526020015b60405180910390f35b34801561023057600080fd5b5061024461023f366004613d3b565b6107ab565b604051901515815260200161021b565b34801561026057600080fd5b5061027461026f366004613d96565b610820565b6040516001600160e01b0319909116815260200161021b565b34801561029957600080fd5b506102ad6102a8366004613dfa565b610b96565b60405190815260200161021b565b3480156102c757600080fd5b506102db6102d6366004613e9d565b610caa565b005b3480156102e957600080fd5b506102fd6102f8366004613f99565b610d5a565b60405161021b949392919061403a565b34801561031957600080fd5b5061032d610328366004614086565b610fb7565b60405161021b9291906140b2565b34801561034757600080fd5b506102db610356366004614115565b610fd3565b34801561036757600080fd5b506102db610376366004613d3b565b6110d8565b34801561038757600080fd5b50604080518082018252601a81527f7268696e6573746f6e652e73616665373537392e76312e302e300000000000006020820152905161021b9190614156565b3480156103d357600080fd5b506102db6103e2366004613d3b565b6112a3565b3480156103f357600080fd5b506f71727de22e5e9d8baf0edac6f37da032610207565b34801561041657600080fd5b5061020761042536600461417f565b6001600160e01b03191660009081526005602090815260408083203384529091529020546001600160a01b031690565b34801561046157600080fd5b5061024461047036600461419c565b6115ca565b34801561048157600080fd5b50610495610490366004613d96565b611672565b60405161021b91906141b5565b3480156104ae57600080fd5b506102ad6104bd36600461421a565b61175b565b3480156104ce57600080fd5b506102db6104dd366004613d96565b6117fb565b3480156104ee57600080fd5b5061032d6104fd366004614086565b611b98565b34801561050e57600080fd5b506102db61051d366004614259565b611ba9565b34801561052e57600080fd5b5061024461053d36600461419c565b611c18565b34801561054e57600080fd5b506102ad611c67565b6060806001600160a01b038416156105d7576105be33856000610578611cc0565b3460003660405160240161058f94939291906142e8565b60408051601f198184030181529190526020810180516001600160e01b031663d68f602560e01b179052611ccc565b9150818060200190518101906105d491906143d1565b91505b6001600160a01b0383161561060e576105f533846000610578611cc0565b90508080602001905181019061060b91906143d1565b90505b9250929050565b600080356001600160e01b031916815260036020908152604080832033845290915290208054606091906001600160a01b03811690600160a01b900460f81b8161068557604051632464e76d60e11b81526001600160e01b03196000351660048201526024015b60405180910390fd5b61069381607f60f91b611d75565b156106d7576106cd338388886106a7611cc0565b6040516020016106b993929190614405565b604051602081830303815290604052611d87565b9350505050610722565b6106e2816000611d75565b1561071e576106cd3383600089896106f8611cc0565b60405160200161070a93929190614405565b604051602081830303815290604052611ccc565b5050505b92915050565b6001600160a01b0384161561077e5761077e338560008560405160240161074f9190614156565b60408051601f198184030181529190526020810180516001600160e01b0316630b9dfbed60e11b179052611e5c565b6001600160a01b038316156107a5576107a5338460008460405160240161074f9190614156565b50505050565b6000600185036107dd57336001600160a01b038516036107cd57506001610818565b6107d684611efb565b9050610818565b600285036107ee576107d684611f09565b60038503610801576107d6848484611f17565b60048503610814576107d6848484611f63565b5060005b949350505050565b6000338282036109ba5760006108f1826001600160a01b031663f698da256040518163ffffffff1660e01b8152600401602060405180830381865afa15801561086d573d6000803e3d6000fd5b505050506040513d601f19601f82011682018060405250810190610891919061442b565b60408051602081018a90527f60b3cbf8b4a223d68d641b3b6ddf9a298e7f33710cf3d3a9d1146b5a6150fbca91015b60408051601f1981840301815282825280516020918201209083015201604051602081830303815290604052611f9e565b8051602090910120604051635ae6bd3760e01b8152600481018290529091506001600160a01b03831690635ae6bd3790602401602060405180830381865afa158015610941573d6000803e3d6000fd5b505050506040513d601f19601f82011682018060405250810190610965919061442b565b6000036109a85760405162461bcd60e51b815260206004820152601160248201527012185cda081b9bdd08185c1c1c9bdd9959607a1b604482015260640161067c565b50630b135d3f60e11b9150610b8f9050565b60006109c96014828688614444565b6109d29161446e565b60601c90508015806109ea57506109e881611efb565b155b15610b14576000610a89836001600160a01b031663f698da256040518163ffffffff1660e01b8152600401602060405180830381865afa158015610a32573d6000803e3d6000fd5b505050506040513d601f19601f82011682018060405250810190610a56919061442b565b60408051602081018b90527f60b3cbf8b4a223d68d641b3b6ddf9a298e7f33710cf3d3a9d1146b5a6150fbca91016108c0565b805160208201209091506001600160a01b03841663934f3a118284610ab18a6014818e614444565b6040518563ffffffff1660e01b8152600401610ad094939291906144bb565b60006040518083038186803b158015610ae857600080fd5b505afa158015610afc573d6000803e3d6000fd5b50630b135d3f60e11b9750610b8f9650505050505050565b6000610b733383610b23611cc0565b8a610b318a6014818e614444565b604051602401610b4494939291906142e8565b60408051601f198184030181529190526020810180516001600160e01b0316637aa8f17760e11b179052611d87565b905080806020019051810190610b8991906144e7565b93505050505b9392505050565b60006f71727de22e5e9d8baf0edac6f37da032610bb1611cc0565b6001600160a01b031614610bd857604051635629665f60e11b815260040160405180910390fd5b6020840135606081901c90811580610bf65750610bf482611efb565b155b15610c0b57610c0486612018565b9250610c70565b6000610c56338460008a8a604051602401610c27929190614549565b60408051601f198184030181529190526020810180516001600160e01b0316639700320360e01b179052611ccc565b905080806020019051810190610c6c919061442b565b9350505b8315610ca157610ca1336f71727de22e5e9d8baf0edac6f37da0328660405180602001604052806000815250611e5c565b50509392505050565b6f71727de22e5e9d8baf0edac6f37da032610cc3611cc0565b6001600160a01b03161480610cf05750610cdb611cc0565b6001600160a01b0316336001600160a01b0316145b610d0d57604051635629665f60e11b815260040160405180910390fd5b610d3f610d1d602083018361464d565b610d2a602084018461466a565b610d3a60608601604087016146b3565b6120c7565b610d4f898989898989898961217e565b505050505050505050565b6060600080823682610d706101008901896146ce565b9092509050610d83600660008385614444565b610d8c91614714565b60d01c9450610d9f600c60068385614444565b610da891614714565b60d01c9350610dba81600c8185614444565b8080601f0160208091040260200160405190810160405280939291908181526020018383808284376000920182905250604080516101c081019091527fc03dfc11d8b10bf9cf703d558958c8c42777f785d998c62060d85a4f0ef6ea7f815294975095509293505060208084019250610e3691508a018a61464d565b6001600160a01b0316815260200188602001358152602001888060400190610e5e91906146ce565b604051610e6c92919061474a565b6040519081900390208152602001610e8760608a018a6146ce565b604051610e9592919061474a565b60405180910390208152602001610eab8961246e565b6001600160801b03168152602001610ec28961247e565b6001600160801b031681526020018860a001358152602001610ee389612493565b6001600160801b03168152602001610efa896124a2565b6001600160801b03168152602001610f1560e08a018a6146ce565b604051610f2392919061474a565b6040805191829003909120825265ffffffffffff80881660208401528616908201526001600160a01b0388166060909101526101c08120909150601960f81b600160f81b610f6f611c67565b6040516001600160f81b031993841660208201529290911660218301526022820152604281018290526062016040516020818303038152906040529550505092959194509250565b60606000610fc860013386866124b7565b915091509250929050565b6f71727de22e5e9d8baf0edac6f37da032610fec611cc0565b6001600160a01b031614806110195750611004611cc0565b6001600160a01b0316336001600160a01b0316145b61103657604051635629665f60e11b815260040160405180910390fd5b61104160013361267b565b6110d4576110506001336126a7565b8060005b818110156110a6573684848381811061106f5761106f61475a565b90506020028101906110819190614770565b905061109d33611094602084018461464d565b60019190612707565b50600101611054565b5060405133907ff48581d8a62b775b74f2fb67f1d5806a9a356fbcc598040ab3071d3e37af40c290600090a2505b5050565b336000908152600460209081526040808320547fd00bcad91b775f25eb0aee15808d12dfdaa6dc5a7d6b754e26f9c205d2a3b8df909252822054639517e29f60e01b926001600160a01b039283169290911690806111368484610557565b915091506111516f71727de22e5e9d8baf0edac6f37da03290565b6001600160a01b0316611162611cc0565b6001600160a01b0316148061118f575061117a611cc0565b6001600160a01b0316336001600160a01b0316145b6111ac57604051635629665f60e11b815260040160405180910390fd5b606060018a036111c8576111c18989896127fc565b905061122d565b60028a036111db576111c1898989612858565b60038a036111ee576111c1898989612873565b60048a03611201576111c18989896129f2565b89611211576111c1898989612b92565b60405163041c38b360e41b8152600481018b905260240161067c565b611296337f00000000000000000000000000000000000000000000000000000000000000008c8c8560405160240161126793929190614790565b60408051601f198184030181529190526020810180516001600160e01b0316639517e29f60e01b179052612d43565b50610d4f84848484610728565b336000908152600460209081526040808320547fc45a7acaba78a7b4c4432b604d301355b314c0a7811768a1ee2563c9d34ca4e09092529091205484916314e2ec7560e31b916001600160a01b0391821691908116908416821480159061131c5750806001600160a01b0316846001600160a01b031614155b156114a25760008061132e8484610557565b915091506113496f71727de22e5e9d8baf0edac6f37da03290565b6001600160a01b031661135a611cc0565b6001600160a01b031614806113875750611372611cc0565b6001600160a01b0316336001600160a01b0316145b6113a457604051635629665f60e11b815260040160405180910390fd5b606060018b036113c0576113b98a8a8a612ddc565b9050611425565b60028b036113d3576113b98a8a8a612e05565b60038b036113e6576113b98a8a8a612e26565b60048b036113f9576113b98a8a8a612e72565b8a611409576113b98a8a8a612f2a565b60405163041c38b360e41b8152600481018c905260240161067c565b61148e337f00000000000000000000000000000000000000000000000000000000000000008d8d8560405160240161145f93929190614790565b60408051601f198184030181529190526020810180516001600160e01b0316637827252560e01b17905261307d565b5061149b84848484610728565b50506115c0565b6f71727de22e5e9d8baf0edac6f37da0326114bb611cc0565b6001600160a01b031614806114e857506114d3611cc0565b6001600160a01b0316336001600160a01b0316145b61150557604051635629665f60e11b815260040160405180910390fd5b6060600189036115215761151a888888612ddc565b9050611586565b600289036115345761151a888888612e05565b600389036115475761151a888888612e26565b6004890361155a5761151a888888612e72565b8861156a5761151a888888612f2a565b60405163041c38b360e41b8152600481018a905260240161067c565b610d4f337f00000000000000000000000000000000000000000000000000000000000000008b8b8560405160240161145f93929190614790565b5050505050505050565b600081600881901b6115e082600160f81b611d75565b156115ee5760019250611631565b6115f9826000611d75565b156116075760019250611631565b611619826001600160f81b0319611d75565b156116275760019250611631565b5060009392505050565b8280156116445750611644816000611d75565b15611650575050919050565b828015611666575061166681600160f81b611d75565b15611627575050919050565b606061168461167f611cc0565b611f09565b6116b557611690611cc0565b604051635c93ff2f60e11b81526001600160a01b03909116600482015260240161067c565b336000908152600460209081526040808320547f4162c930ade27880570b0eb31efbc8a626b97e81a40ced27163509dfe16398829092528220546335a4725960e21b926001600160a01b039283169290911690806117138484610557565b9150915061171f611cc0565b600261172b8282613133565b8a600881901b61173d81838e8e6131be565b99505050505061174f84848484610728565b50505050509392505050565b6000602082901b640100000000600160c01b03166f71727de22e5e9d8baf0edac6f37da032604051631aab3f0d60e11b81526001600160a01b0386811660048301526001600160c01b038416602483015291909116906335567e1a90604401602060405180830381865afa1580156117d7573d6000803e3d6000fd5b505050506040513d601f19601f82011682018060405250810190610818919061442b565b336000908152600460209081526040808320547fccfe1b2bef70acd8e661aeb5430e147f4c75cb320972acba718a28da428e1a3090925282205463e9ae5c5360e01b926001600160a01b039283169290911690806118598484610557565b915091506118746f71727de22e5e9d8baf0edac6f37da03290565b6001600160a01b0316611885611cc0565b6001600160a01b031614806118b2575061189d611cc0565b6001600160a01b0316336001600160a01b0316145b6118cf57604051635629665f60e11b815260040160405180910390fd5b87600881901b336118e1826000611d75565b15611a3a576118f483600160f81b611d75565b156119155789358a0160208101903561190e838383613566565b5050611b89565b611920836000611d75565b15611988576000803660006119358e8e6135cd565b935093509350935061197f85858585858080601f016020809104026020016040519081016040528093929190818152602001838380828437600092019190915250611e5c92505050565b50505050611b89565b61199a836001600160f81b0319611d75565b15611a1f5760006119ae6014828c8e614444565b6119b79161446e565b60601c90503660008c8c60149080926119d293929190614444565b91509150611a17848484848080601f016020809104026020016040519081016040528093929190818152602001838380828437600092019190915250612d4392505050565b505050611b89565b82604051632e5bf3f960e21b815260040161067c91906147c3565b611a4882600160f81b611d75565b15611b6e57611a5b83600160f81b611d75565b15611a755789358a0160208101903561190e83838361361e565b611a80836000611d75565b15611adf57600080366000611a958e8e6135cd565b935093509350935061197f85858585858080601f01602080910402602001604051908101604052809392919081815260200183838082843760009201919091525061368592505050565b611af1836001600160f81b0319611d75565b15611a1f576000611b056014828c8e614444565b611b0e9161446e565b60601c90503660008c8c6014908092611b2993929190614444565b91509150611a17848484848080601f01602080910402602001604051908101604052809392919081815260200183838082843760009201919091525061307d92505050565b816040516308c3ee0360e11b815260040161067c91906147c3565b5050506115c084848484610728565b60606000610fc860023386866124b7565b6f71727de22e5e9d8baf0edac6f37da032611bc2611cc0565b6001600160a01b03161480611bef5750611bda611cc0565b6001600160a01b0316336001600160a01b0316145b611c0c57604051635629665f60e11b815260040160405180910390fd5b6107a5848484846120c7565b600060018203611c2a57506001919050565b60028203611c3a57506001919050565b60038203611c4a57506001919050565b60048203611c5a57506001919050565b506000919050565b919050565b604080517f47e79534a245952e8b16893a336b85a3d9ea9fa8c573f3d803afb92a794692186020820152469181019190915230606082015260009060800160405160208183030381529060405280519060200120905090565b60131936013560601c90565b60606000856001600160a01b0316635229073f86868660006040518563ffffffff1660e01b8152600401611d039493929190614810565b6000604051808303816000875af1158015611d22573d6000803e3d6000fd5b505050506040513d6000823e601f3d908101601f19168201604052611d4a9190810190614856565b9250905080611d6c57604051632b3f6d1160e21b815260040160405180910390fd5b50949350505050565b6001600160f81b031990811691161490565b606060008383604051602401611d9e9291906148a3565b60408051601f198184030181529181526020820180516001600160e01b0316636a22165760e01b17905251909150600090611dff907f00000000000000000000000000000000000000000000000000000000000000009084906024016148a3565b60408051601f19818403018152919052602080820180516001600160e01b031663b4faba0960e01b17815282519293509091600091895afa5060203d036040519350808401604052806020853e50600051610ca157825160208401fd5b60405163468721a760e01b81526000906001600160a01b0386169063468721a790611e91908790879087908790600401614810565b6020604051808303816000875af1158015611eb0573d6000803e3d6000fd5b505050506040513d601f19601f82011682018060405250810190611ed491906148c7565b905080611ef457604051632b3f6d1160e21b815260040160405180910390fd5b5050505050565b60006107226001338461373b565b60006107226002338461373b565b600080611f268385018561417f565b6001600160e01b03191660009081526003602090815260408083203384529091529020546001600160a01b03908116908616149150509392505050565b60008080611f73848601866148f1565b915091506000611f83838361377f565b6001600160a01b039081169088161493505050509392505050565b6060601960f81b600160f81b858585604051602001611fbe92919061491d565b60408051808303601f190181529082905280516020918201206001600160f81b0319958616918301919091529290931660218401526022830152604282015260620160405160208183030381529060405290509392505050565b600080808080612038866f71727de22e5e9d8baf0edac6f37da032610d5a565b8351602085012060405163934f3a1160e01b81529498509296509094509250339163934f3a119161206f9188908690600401614943565b60006040518083038186803b15801561208757600080fd5b505afa925050508015612098575060015b6120af576120a860018385613815565b94506120be565b6120bb60008385613815565b94505b50505050919050565b33600090815260208190526040902080546001600160a01b0319166001600160a01b0386169081179091551561214257612142338560008487876040516024016121139392919061496e565b60408051601f198184030181529190526020810180516001600160e01b031663f05c04e160e01b179052611e5c565b6040516001600160a01b0385169033907f9452c8fb077c3ea8f28a77c87488af657b1e44d010ad9a5992d73870da040e9490600090a350505050565b60608761218c60013361267b565b6122475761219b6001336126a7565b60005b8181101561224157368b8b838181106121b9576121b961475a565b90506020028101906121cb9190614770565b90506121ef6121dd602083018361464d565b6121ea60208401846146ce565b6127fc565b9350612238337f00000000000000000000000000000000000000000000000000000000000000006001612225602086018661464d565b8860405160240161126793929190614790565b5060010161219e565b50612268565b80156122685760405163d8e3ed1b60e01b815233600482015260240161067c565b6122736002336126a7565b508560005b8181101561230857368989838181106122935761229361475a565b90506020028101906122a59190614770565b90506122c96122b7602083018361464d565b6122c460208401846146ce565b612858565b93506122ff337f00000000000000000000000000000000000000000000000000000000000000006002612225602086018661464d565b50600101612278565b5084905060005b8181101561239f573687878381811061232a5761232a61475a565b905060200281019061233c9190614770565b905061236061234e602083018361464d565b61235b60208401846146ce565b612873565b9350612396337f00000000000000000000000000000000000000000000000000000000000000006003612225602086018661464d565b5060010161230f565b5082905060005b8181101561243657368585838181106123c1576123c161475a565b90506020028101906123d39190614770565b90506123f76123e5602083018361464d565b6123f260208401846146ce565b6129f2565b935061242d337f00000000000000000000000000000000000000000000000000000000000000006004612225602086018661464d565b506001016123a6565b5060405133907ff48581d8a62b775b74f2fb67f1d5806a9a356fbcc598040ab3071d3e37af40c290600090a250505050505050505050565b6000610722826080013560801c90565b60006001600160801b03608083013516610722565b600060c082013560801c610722565b60006001600160801b0360c083013516610722565b606060006001600160a01b0384166001148015906124dd57506124db86868661373b565b155b1561250657604051637c84ecfb60e01b81526001600160a01b038516600482015260240161067c565b826000036125275760405163f725081760e01b815260040160405180910390fd5b826001600160401b0381111561253f5761253f61431a565b604051908082528060200260200182016040528015612568578160200160208202803683370190505b506001600160a01b038086166000908152602089815260408083208a85168452909152812054929450911691505b6001600160a01b038216158015906125b857506001600160a01b038216600114155b80156125c357508381105b1561262857818382815181106125db576125db61475a565b6001600160a01b0392831660209182029290920181019190915292811660009081528884526040808220898416835290945292909220549091169080612620816149dc565b915050612596565b6001600160a01b0382166001148015906126425750600081115b1561266e57826126536001836149f5565b815181106126635761266361475a565b602002602001015191505b8083525094509492505050565b60016000908152602092835260408082206001600160a01b039384168352909352919091205416151590565b6126b1828261267b565b156126cf576040516329e42f3360e11b815260040160405180910390fd5b60016000818152602093845260408082206001600160a01b0394909416825292909352912080546001600160a01b0319169091179055565b6001600160a01b038116158061272657506001600160a01b0381166001145b1561274f57604051637c84ecfb60e01b81526001600160a01b038216600482015260240161067c565b6001600160a01b038181166000908152602085815260408083208685168452909152902054161561279e57604051631034f46960e21b81526001600160a01b038216600482015260240161067c565b60016000908152602084815260408083206001600160a01b039586168085528184528285208054968816808752988552838620918652908452919093208054949095166001600160a01b031994851617909455528154169091179055565b606083600161280b8282613133565b61281760013388612707565b84848080601f016020809104026020016040519081016040528093929190818152602001838380828437600092019190915250929998505050505050505050565b60608360026128678282613133565b61281760023388612707565b60608360036128828282613133565b6000808061289287890189614a59565b919450925090506001600160e01b031983166306d61fe760e41b14806128c857506001600160e01b03198316638a91b0e360e01b145b156128f2576040516379bd117b60e01b81526001600160e01b03198416600482015260240161067c565b6128fd826000611d75565b8015612912575061291282607f60f91b611d75565b1561293257816040516376087dc160e01b815260040161067c91906147c3565b6001600160e01b0319831660009081526003602090815260408083203384529091529020546001600160a01b03161561298a576040516374420d1560e01b81526001600160e01b03198416600482015260240161067c565b6001600160e01b03199092166000908152600360209081526040808320338452909152902080546001600160a01b038a166001600160a01b031960f89490941c600160a01b02939093166001600160a81b031990911617919091179055925050509392505050565b6060836004612a018282613133565b60008080612a1187890189614ac7565b91945092509050600080846001811115612a2d57612a2d6147d8565b148015612a4257506001600160e01b03198316155b15612ab85750336000908152600460205260409020546001600160a01b03168015612a8b5760405163741cbe0360e01b81526001600160a01b038216600482015260240161067c565b33600090815260046020526040902080546001600160a01b0319166001600160a01b038c16179055612b85565b6001846001811115612acc57612acc6147d8565b03612b6c57506001600160e01b0319821660009081526005602090815260408083203384529091529020546001600160a01b03168015612b2a5760405163741cbe0360e01b81526001600160a01b038216600482015260240161067c565b6001600160e01b031983166000908152600560209081526040808320338452909152902080546001600160a01b0319166001600160a01b038c16179055612b85565b604051635691922f60e01b815260040160405180910390fd5b5098975050505050505050565b60608235830160208181019135908581013586018082019190359060408801358801908101903584838114612bda5760405163b4fa3fb360e01b815260040160405180910390fd5b60005b81811015612cfc576000888883818110612bf957612bf961475a565b90506020020135905060018103612c3857612c328d888885818110612c2057612c2061475a565b90506020028101906121ea91906146ce565b50612cf3565b60028103612c6857612c328d888885818110612c5657612c5661475a565b90506020028101906122c491906146ce565b60038103612c9857612c328d888885818110612c8657612c8661475a565b905060200281019061235b91906146ce565b60048103612cc857612c328d888885818110612cb657612cb661475a565b90506020028101906123f291906146ce565b60405163484d218160e01b81526001600160a01b038e1660048201526024810182905260440161067c565b50600101612bdd565b5082828080601f016020809104026020016040519081016040528093929190818152602001838380828437600092019190915250929e9d5050505050505050505050505050565b60405163468721a760e01b81526000906001600160a01b0385169063468721a790612d7990869085908790600190600401614810565b6020604051808303816000875af1158015612d98573d6000803e3d6000fd5b505050506040513d601f19601f82011682018060405250810190612dbc91906148c7565b9050806107a557604051632b3f6d1160e21b815260040160405180910390fd5b60606000612dec83850185614af5565b92509050612dfd600133838861384d565b509392505050565b60606000612e1583850185614af5565b92509050612dfd600233838861384d565b60606000612e3683850185614b3a565b6001600160e01b03199091166000908152600360209081526040808320338452909152902080546001600160a01b031916905595945050505050565b6060600080612e8384860186614ac7565b945090925090506000826001811115612e9e57612e9e6147d8565b148015612eb357506001600160e01b03198116155b15612eda5733600090815260046020526040902080546001600160a01b0319169055610ca1565b6001826001811115612eee57612eee6147d8565b03612b6c576001600160e01b031981166000908152600560209081526040808320338452909152902080546001600160a01b0319169055610ca1565b60608235830160208181019135908581013586018082019190359060408801358801908101903584838114612f725760405163b4fa3fb360e01b815260040160405180910390fd5b60005b81811015612cfc576000888883818110612f9157612f9161475a565b90506020020135905060018103612fd557612fcf8d888885818110612fb857612fb861475a565b9050602002810190612fca91906146ce565b612ddc565b50613074565b6002810361300a57612fcf8d888885818110612ff357612ff361475a565b905060200281019061300591906146ce565b612e05565b6003810361303f57612fcf8d8888858181106130285761302861475a565b905060200281019061303a91906146ce565b612e26565b60048103612cc857612fcf8d88888581811061305d5761305d61475a565b905060200281019061306f91906146ce565b612e72565b50600101612f75565b60405163468721a760e01b81526000906001600160a01b0385169063468721a7906130b390869085908790600190600401614810565b6020604051808303816000875af11580156130d2573d6000803e3d6000fd5b505050506040513d601f19601f820116820180604052508101906130f691906148c7565b9050806107a557604080516001600160a01b038616815260006020820152600080516020614dcb833981519152910160405180910390a150505050565b336000908152602081905260409020546001600160a01b031680156131b95760405163529562a160e01b81523360048201526001600160a01b0384811660248301526044820184905282169063529562a19060640160006040518083038186803b1580156131a057600080fd5b505afa1580156131b4573d6000803e3d6000fd5b505050505b505050565b60606131cb856000611d75565b156133b7576131de84600160f81b611d75565b1561320157823583016020810190356131f8338383613944565b92505050610818565b61320c846000611d75565b156132c05760008036600061322187876135cd565b6040805160018082528183019092529498509296509094509250816020015b606081526020019060019003908161324057905050945061329933858585858080601f016020809104026020016040519081016040528093929190818152602001838380828437600092019190915250611ccc92505050565b856000815181106132ac576132ac61475a565b602002602001018190525050505050610818565b6132d2846001600160f81b0319611d75565b1561339c5760006132e66014828587614444565b6132ef9161446e565b60601c90503660006133048560148189614444565b604080516001808252818301909252929450909250816020015b606081526020019060019003908161331e579050509350613376338484848080601f0160208091040260200160405190810160405280939291908181526020018383808284376000920191909152506139c092505050565b846000815181106133895761338961475a565b6020026020010181905250505050610818565b83604051632e5bf3f960e21b815260040161067c91906147c3565b6133c585600160f81b611d75565b1561354b576133d884600160f81b611d75565b156133fd57823583016020810190356133f2338383613a61565b935061081892505050565b613408846000611d75565b156134955760008036600061341d87876135cd565b6040805160018082528183019092529498509296509094509250816020015b606081526020019060019003908161343c57905050945061329933858585858080601f016020809104026020016040519081016040528093929190818152602001838380828437600092019190915250613b5792505050565b6134a7846001600160f81b0319611d75565b1561339c5760006134bb6014828587614444565b6134c49161446e565b60601c90503660006134d98560148189614444565b604080516001808252818301909252929450909250816020015b60608152602001906001900390816134f3579050509350613376338484848080601f016020809104026020016040519081016040528093929190818152602001838380828437600092019190915250613c1792505050565b846040516308c3ee0360e11b815260040161067c91906147c3565b6131b9837f0000000000000000000000000000000000000000000000000000000000000000848460405160240161359e929190614b58565b60408051601f198184030181529190526020810180516001600160e01b0316633f707e6b60e01b179052612d43565b60008036816135df6014828789614444565b6135e89161446e565b60601c93506135fb603460148789614444565b61360491614c0a565b92506136138560348189614444565b949793965094505050565b6131b9837f00000000000000000000000000000000000000000000000000000000000000008484604051602401613656929190614b58565b60408051601f198184030181529190526020810180516001600160e01b0316632864481160e11b17905261307d565b60405163468721a760e01b81526000906001600160a01b0386169063468721a7906136ba908790879087908790600401614810565b6020604051808303816000875af11580156136d9573d6000803e3d6000fd5b505050506040513d601f19601f820116820180604052508101906136fd91906148c7565b905080611ef457604080516001600160a01b038716815260006020820152600080516020614dcb833981519152910160405180910390a15050505050565b600060016001600160a01b038316148015906108185750506001600160a01b0390811660009081526020938452604080822093831682529290935291205416151590565b600080836001811115613794576137946147d8565b1480156137a957506001600160e01b03198216155b156137c95750336000908152600460205260409020546001600160a01b03165b60018360018111156137dd576137dd6147d8565b0361072257506001600160e01b03191660009081526005602090815260408083203384529091529020546001600160a01b0316919050565b600060d08265ffffffffffff16901b60a08465ffffffffffff16901b8561383d576000613840565b60015b60ff161717949350505050565b6001600160a01b038116158061386c57506001600160a01b0381166001145b1561389557604051637c84ecfb60e01b81526001600160a01b038316600482015260240161067c565b6001600160a01b0382811660009081526020868152604080832087851684529091529020548116908216146138e857604051637c84ecfb60e01b81526001600160a01b038216600482015260240161067c565b6001600160a01b039081166000908152602085815260408083209584168084528683528184208054968616855297835281842090845282529091208054939092166001600160a01b031993841617909155919091528154169055565b60606139ad847f0000000000000000000000000000000000000000000000000000000000000000858560405160240161397e929190614b58565b60408051601f198184030181529190526020810180516001600160e01b0316636108557360e01b1790526139c0565b8060200190518101906108189190614cd7565b60606000846001600160a01b0316635229073f8560008660016040518563ffffffff1660e01b81526004016139f89493929190614810565b6000604051808303816000875af1158015613a17573d6000803e3d6000fd5b505050506040513d6000823e601f3d908101601f19168201604052613a3f9190810190614856565b9250905080612dfd57604051632b3f6d1160e21b815260040160405180910390fd5b6060806000613acd867f00000000000000000000000000000000000000000000000000000000000000008787604051602401613a9e929190614b58565b60408051601f198184030181529190526020810180516001600160e01b0316639abb6e1760e01b179052613c17565b905080806020019051810190613ae39190614d0b565b8151919450925060005b81811015613b4c57848181518110613b0757613b0761475a565b6020026020010151613b4457604080516001600160a01b038a16815260208101839052600080516020614dcb833981519152910160405180910390a15b600101613aed565b505050935093915050565b60606000856001600160a01b0316635229073f86868660006040518563ffffffff1660e01b8152600401613b8e9493929190614810565b6000604051808303816000875af1158015613bad573d6000803e3d6000fd5b505050506040513d6000823e601f3d908101601f19168201604052613bd59190810190614856565b9250905080611d6c57604080516001600160a01b038816815260006020820152600080516020614dcb833981519152910160405180910390a150949350505050565b60606000846001600160a01b0316635229073f8560008660016040518563ffffffff1660e01b8152600401613c4f9493929190614810565b6000604051808303816000875af1158015613c6e573d6000803e3d6000fd5b505050506040513d6000823e601f3d908101601f19168201604052613c969190810190614856565b9250905080612dfd57604080516001600160a01b038716815260006020820152600080516020614dcb833981519152910160405180910390a1509392505050565b6001600160a01b0381168114613cec57600080fd5b50565b8035611c6281613cd7565b60008083601f840112613d0c57600080fd5b5081356001600160401b03811115613d2357600080fd5b60208301915083602082850101111561060e57600080fd5b60008060008060608587031215613d5157600080fd5b843593506020850135613d6381613cd7565b925060408501356001600160401b03811115613d7e57600080fd5b613d8a87828801613cfa565b95989497509550505050565b600080600060408486031215613dab57600080fd5b8335925060208401356001600160401b03811115613dc857600080fd5b613dd486828701613cfa565b9497909650939450505050565b60006101208284031215613df457600080fd5b50919050565b600080600060608486031215613e0f57600080fd5b83356001600160401b03811115613e2557600080fd5b613e3186828701613de1565b9660208601359650604090950135949350505050565b60008083601f840112613e5957600080fd5b5081356001600160401b03811115613e7057600080fd5b6020830191508360208260051b850101111561060e57600080fd5b600060608284031215613df457600080fd5b600080600080600080600080600060a08a8c031215613ebb57600080fd5b89356001600160401b03811115613ed157600080fd5b613edd8c828d01613e47565b909a5098505060208a01356001600160401b03811115613efc57600080fd5b613f088c828d01613e47565b90985096505060408a01356001600160401b03811115613f2757600080fd5b613f338c828d01613e47565b90965094505060608a01356001600160401b03811115613f5257600080fd5b613f5e8c828d01613e47565b90945092505060808a01356001600160401b03811115613f7d57600080fd5b613f898c828d01613e8b565b9150509295985092959850929598565b60008060408385031215613fac57600080fd5b82356001600160401b03811115613fc257600080fd5b613fce85828601613de1565b9250506020830135613fdf81613cd7565b809150509250929050565b60005b83811015614005578181015183820152602001613fed565b50506000910152565b60008151808452614026816020860160208601613fea565b601f01601f19169290920160200192915050565b60808152600061404d608083018761400e565b65ffffffffffff8616602084015265ffffffffffff85166040840152828103606084015261407b818561400e565b979650505050505050565b6000806040838503121561409957600080fd5b82356140a481613cd7565b946020939093013593505050565b6040808252835190820181905260009060208501906060840190835b818110156140f55783516001600160a01b03168352602093840193909201916001016140ce565b50506001600160a01b039490941660209390930192909252509092915050565b6000806020838503121561412857600080fd5b82356001600160401b0381111561413e57600080fd5b61414a85828601613e47565b90969095509350505050565b602081526000610b8f602083018461400e565b6001600160e01b031981168114613cec57600080fd5b60006020828403121561419157600080fd5b8135610b8f81614169565b6000602082840312156141ae57600080fd5b5035919050565b6000602082016020835280845180835260408501915060408160051b86010192506020860160005b8281101561420e57603f198786030184526141f985835161400e565b945060209384019391909101906001016141dd565b50929695505050505050565b6000806040838503121561422d57600080fd5b823561423881613cd7565b91506020830135613fdf81613cd7565b803560ff81168114611c6257600080fd5b6000806000806060858703121561426f57600080fd5b843561427a81613cd7565b935060208501356001600160401b0381111561429557600080fd5b6142a187828801613e47565b90945092506142b4905060408601614248565b905092959194509250565b81835281816020850137506000828201602090810191909152601f909101601f19169091010190565b60018060a01b03851681528360208201526060604082015260006143106060830184866142bf565b9695505050505050565b634e487b7160e01b600052604160045260246000fd5b604051601f8201601f191681016001600160401b03811182821017156143585761435861431a565b604052919050565b60006001600160401b038211156143795761437961431a565b50601f01601f191660200190565b600082601f83011261439857600080fd5b81516143ab6143a682614360565b614330565b8181528460208386010111156143c057600080fd5b610818826020830160208701613fea565b6000602082840312156143e357600080fd5b81516001600160401b038111156143f957600080fd5b61081884828501614387565b8284823760609190911b6bffffffffffffffffffffffff19169101908152601401919050565b60006020828403121561443d57600080fd5b5051919050565b6000808585111561445457600080fd5b8386111561446157600080fd5b5050820193919092039150565b80356bffffffffffffffffffffffff1981169060148410156144b4576bffffffffffffffffffffffff196bffffffffffffffffffffffff198560140360031b1b82161691505b5092915050565b8481526060602082015260006144d4606083018661400e565b828103604084015261407b8185876142bf565b6000602082840312156144f957600080fd5b8151610b8f81614169565b6000808335601e1984360301811261451b57600080fd5b83016020810192503590506001600160401b0381111561453a57600080fd5b80360382131561060e57600080fd5b6040815261456a6040820161455d85613cef565b6001600160a01b03169052565b6020830135606082015260006145836040850185614504565b610120608085015261459a610160850182846142bf565b9150506145aa6060860186614504565b848303603f190160a08601526145c18382846142bf565b608088013560c08781019190915260a089013560e080890191909152908901356101008801529093506145f992508701905086614504565b848303603f19016101208601526146118382846142bf565b92505050614623610100860186614504565b848303603f190161014086015261463b8382846142bf565b93505050508260208301529392505050565b60006020828403121561465f57600080fd5b8135610b8f81613cd7565b6000808335601e1984360301811261468157600080fd5b8301803591506001600160401b0382111561469b57600080fd5b6020019150600581901b360382131561060e57600080fd5b6000602082840312156146c557600080fd5b610b8f82614248565b6000808335601e198436030181126146e557600080fd5b8301803591506001600160401b038211156146ff57600080fd5b60200191503681900382131561060e57600080fd5b80356001600160d01b031981169060068410156144b4576001600160d01b031960069490940360031b84901b1690921692915050565b8183823760009101908152919050565b634e487b7160e01b600052603260045260246000fd5b60008235603e1983360301811261478657600080fd5b9190910192915050565b8381526001600160a01b03831660208201526060604082018190526000906147ba9083018461400e565b95945050505050565b6001600160f81b031991909116815260200190565b634e487b7160e01b600052602160045260246000fd5b6002811061480c57634e487b7160e01b600052602160045260246000fd5b9052565b60018060a01b0385168152836020820152608060408201526000614837608083018561400e565b90506147ba60608301846147ee565b80518015158114611c6257600080fd5b6000806040838503121561486957600080fd5b61487283614846565b915060208301516001600160401b0381111561488d57600080fd5b61489985828601614387565b9150509250929050565b6001600160a01b03831681526040602082018190526000906108189083018461400e565b6000602082840312156148d957600080fd5b610b8f82614846565b803560028110611c6257600080fd5b6000806040838503121561490457600080fd5b61490d836148e2565b91506020830135613fdf81614169565b82815260008251614935816020850160208701613fea565b919091016020019392505050565b83815260606020820152600061495c606083018561400e565b8281036040840152614310818561400e565b60ff84168152604060208201819052810182905260008360608301825b858110156149bb57823561499e81613cd7565b6001600160a01b031682526020928301929091019060010161498b565b509695505050505050565b634e487b7160e01b600052601160045260246000fd5b6000600182016149ee576149ee6149c6565b5060010190565b81810381811115610722576107226149c6565b600082601f830112614a1957600080fd5b8135614a276143a682614360565b818152846020838601011115614a3c57600080fd5b816020850160208301376000918101602001919091529392505050565b600080600060608486031215614a6e57600080fd5b8335614a7981614169565b925060208401356001600160f81b031981168114614a9657600080fd5b915060408401356001600160401b03811115614ab157600080fd5b614abd86828701614a08565b9150509250925092565b600080600060608486031215614adc57600080fd5b614ae5846148e2565b92506020840135614a9681614169565b60008060408385031215614b0857600080fd5b8235614b1381613cd7565b915060208301356001600160401b03811115614b2e57600080fd5b61489985828601614a08565b60008060408385031215614b4d57600080fd5b8235614b1381614169565b6020808252810182905260006040600584901b830181019083018583605e1936839003015b87821015614bfd57868503603f190184528235818112614b9c57600080fd5b89018035614ba981613cd7565b6001600160a01b0316865260208181013590870152614bcb6040820182614504565b915060606040880152614be26060880183836142bf565b96505050602083019250602084019350600182019150614b7d565b5092979650505050505050565b8035602083101561072257600019602084900360031b1b1692915050565b60006001600160401b03821115614c4157614c4161431a565b5060051b60200190565b600082601f830112614c5c57600080fd5b8151614c6a6143a682614c28565b8082825260208201915060208360051b860101925085831115614c8c57600080fd5b602085015b83811015614ccd5780516001600160401b03811115614caf57600080fd5b614cbe886020838a0101614387565b84525060209283019201614c91565b5095945050505050565b600060208284031215614ce957600080fd5b81516001600160401b03811115614cff57600080fd5b61081884828501614c4b565b60008060408385031215614d1e57600080fd5b82516001600160401b03811115614d3457600080fd5b8301601f81018513614d4557600080fd5b8051614d536143a682614c28565b8082825260208201915060208360051b850101925087831115614d7557600080fd5b6020840193505b82841015614d9e57614d8d84614846565b825260209384019390910190614d7c565b8095505050505060208301516001600160401b03811115614dbe57600080fd5b61489985828601614c4b56feb8bc84bd77f5eb08210b8eb20fd63b3ec6a7992d277ab94663bae0e066f792aca2646970667358221220b036b09bb84f1d04595601aa459ba3f00258528546e47433527a4520cb14f40264736f6c634300081c00336080604052348015600f57600080fd5b506109c28061001f6000396000f3fe608060405234801561001057600080fd5b506004361061007d5760003560e01c80636a2216571161005b5780636a221657146100d357806378272525146100e65780639517e29f146100f95780639abb6e171461010c57600080fd5b80633f707e6b1461008257806350c890221461009757806361085573146100aa575b600080fd5b6100956100903660046105ba565b61012d565b005b6100956100a53660046105ba565b610197565b6100bd6100b83660046105ba565b6101fc565b6040516100ca91906106c4565b60405180910390f35b6100956100e1366004610710565b6102be565b6100956100f43660046107da565b6102e1565b6100956101073660046107da565b61038a565b61011f61011a3660046105ba565b610429565b6040516100ca929190610864565b8060005b81811015610191573684848381811061014c5761014c6108be565b905060200281019061015e91906108d4565b905061018761017060208301836108f4565b6020830135610182604085018561090f565b610553565b5050600101610131565b50505050565b8060005b8181101561019157368484838181106101b6576101b66108be565b90506020028101906101c891906108d4565b90506101f16101da60208301836108f4565b60208301356101ec604085018561090f565b610589565b50505060010161019b565b6060818067ffffffffffffffff811115610218576102186106fa565b60405190808252806020026020018201604052801561024b57816020015b60608152602001906001900390816102365790505b50915060005b818110156102b6573685858381811061026c5761026c6108be565b905060200281019061027e91906108d4565b905061029061017060208301836108f4565b8483815181106102a2576102a26108be565b602090810291909101015250600101610251565b505092915050565b604051600080835160208501865afa3d6000833e80156102dc573d82f35b503d81fd5b604051638a91b0e360e01b81526001600160a01b03841690638a91b0e39061030f908590859060040161095d565b600060405180830381600087803b15801561032957600080fd5b505af115801561033d573d6000803e3d6000fd5b5050604080518781526001600160a01b03871660208201527f341347516a9de374859dfda710fa4828b2d48cb57d4fbe4c1149612b8e02276e93500190505b60405180910390a150505050565b6040516306d61fe760e41b81526001600160a01b03841690636d61fe70906103b8908590859060040161095d565b600060405180830381600087803b1580156103d257600080fd5b505af11580156103e6573d6000803e3d6000fd5b5050604080518781526001600160a01b03871660208201527fd21d0b289f126c4b473ea641963e766833c2f13866e4ff480abd787c100ef123935001905061037c565b606080828067ffffffffffffffff811115610446576104466106fa565b60405190808252806020026020018201604052801561047957816020015b60608152602001906001900390816104645790505b5091508067ffffffffffffffff811115610495576104956106fa565b6040519080825280602002602001820160405280156104be578160200160208202803683370190505b50925060005b8181101561054a57368686838181106104df576104df6108be565b90506020028101906104f191906108d4565b90506105036101da60208301836108f4565b868481518110610515576105156108be565b6020026020010186858151811061052e5761052e6108be565b60209081029190910101919091529015159052506001016104c4565b50509250929050565b60405181838237600038838387895af1610570573d6000823e3d81fd5b3d8152602081013d6000823e3d01604052949350505050565b604051600090828482376000388483888a5af191503d8152602081013d6000823e3d81016040525094509492505050565b600080602083850312156105cd57600080fd5b823567ffffffffffffffff8111156105e457600080fd5b8301601f810185136105f557600080fd5b803567ffffffffffffffff81111561060c57600080fd5b8560208260051b840101111561062157600080fd5b6020919091019590945092505050565b600082825180855260208501945060208160051b8301016020850160005b838110156106b857848303601f190188528151805180855260005b818110156106865760208184018101518783018201520161066a565b506000602082870101526020601f19601f8301168601019450505060208201915060208801975060018101905061064f565b50909695505050505050565b6020815260006106d76020830184610631565b9392505050565b80356001600160a01b03811681146106f557600080fd5b919050565b634e487b7160e01b600052604160045260246000fd5b6000806040838503121561072357600080fd5b61072c836106de565b9150602083013567ffffffffffffffff81111561074857600080fd5b8301601f8101851361075957600080fd5b803567ffffffffffffffff811115610773576107736106fa565b604051601f8201601f19908116603f0116810167ffffffffffffffff811182821017156107a2576107a26106fa565b6040528181528282016020018710156107ba57600080fd5b816020840160208301376000602083830101528093505050509250929050565b600080600080606085870312156107f057600080fd5b84359350610800602086016106de565b9250604085013567ffffffffffffffff81111561081c57600080fd5b8501601f8101871361082d57600080fd5b803567ffffffffffffffff81111561084457600080fd5b87602082840101111561085657600080fd5b949793965060200194505050565b6040808252835190820181905260009060208501906060840190835b818110156108a05783511515835260209384019390920191600101610880565b505083810360208501526108b48186610631565b9695505050505050565b634e487b7160e01b600052603260045260246000fd5b60008235605e198336030181126108ea57600080fd5b9190910192915050565b60006020828403121561090657600080fd5b6106d7826106de565b6000808335601e1984360301811261092657600080fd5b83018035915067ffffffffffffffff82111561094157600080fd5b60200191503681900382131561095657600080fd5b9250929050565b60208152816020820152818360408301376000818301604090810191909152601f909201601f1916010191905056fea26469706673582212202b8658977dda48808f1f5dbb4e29a26970a0bc240c23f8d93e934c2bbd27896d64736f6c634300081c0033","linkReferences":{}},"methodIdentifiers":{"accountId()":"9cfd7cff","domainSeparator()":"f698da25","entryPoint()":"b0d691fe","execute(bytes32,bytes)":"e9ae5c53","executeFromExecutor(bytes32,bytes)":"d691c964","getActiveHook()":"0a664dba","getActiveHook(bytes4)":"b875d5d8","getExecutorsPaginated(address,uint256)":"ea5f61d0","getNonce(address,address)":"d828435d","getSafeOp((address,uint256,bytes,bytes,bytes32,uint256,bytes32,bytes,bytes),address)":"55d559f4","getValidatorsPaginated(address,uint256)":"5faac46b","initializeAccount((address,bytes)[],(address,bytes)[],(address,bytes)[],(address,bytes)[],(address,address[],uint8))":"540fb4f9","initializeAccountWithValidators((address,bytes)[])":"79aad60e","installModule(uint256,address,bytes)":"9517e29f","isModuleInstalled(uint256,address,bytes)":"112d3a7d","isValidSignature(bytes32,bytes)":"1626ba7e","setRegistry(address,address[],uint8)":"eab77e17","supportsExecutionMode(bytes32)":"d03c7914","supportsModule(uint256)":"f2dc691d","uninstallModule(uint256,address,bytes)":"a71763a8","validateUserOp((address,uint256,bytes,bytes,bytes32,uint256,bytes32,bytes,bytes),bytes32,uint256)":"19822f7c"},"id":114}