{"abi":[{"type":"constructor","inputs":[{"name":"entryPoint","type":"address","internalType":"address"},{"name":"registry","type":"address","internalType":"contract IERC7484"}],"stateMutability":"nonpayable"},{"type":"receive","stateMutability":"payable"},{"type":"function","name":"REGISTRY","inputs":[],"outputs":[{"name":"","type":"address","internalType":"contract IERC7484"}],"stateMutability":"view"},{"type":"function","name":"SUPPORTED_ENTRYPOINT","inputs":[],"outputs":[{"name":"","type":"address","internalType":"address"}],"stateMutability":"view"},{"type":"function","name":"accountId","inputs":[],"outputs":[{"name":"accountImplementationId","type":"string","internalType":"string"}],"stateMutability":"pure"},{"type":"function","name":"addSafe7579","inputs":[{"name":"safe7579","type":"address","internalType":"address"},{"name":"modules","type":"tuple[]","internalType":"struct ModuleInit[]","components":[{"name":"module","type":"address","internalType":"address"},{"name":"initData","type":"bytes","internalType":"bytes"},{"name":"moduleType","type":"uint256","internalType":"uint256"}]},{"name":"attesters","type":"address[]","internalType":"address[]"},{"name":"threshold","type":"uint8","internalType":"uint8"}],"outputs":[],"stateMutability":"nonpayable"},{"type":"function","name":"domainSeparator","inputs":[],"outputs":[{"name":"","type":"bytes32","internalType":"bytes32"}],"stateMutability":"view"},{"type":"function","name":"getInitHash","inputs":[],"outputs":[{"name":"value","type":"bytes32","internalType":"bytes32"}],"stateMutability":"view"},{"type":"function","name":"getSafeOp","inputs":[{"name":"userOp","type":"tuple","internalType":"struct PackedUserOperation","components":[{"name":"sender","type":"address","internalType":"address"},{"name":"nonce","type":"uint256","internalType":"uint256"},{"name":"initCode","type":"bytes","internalType":"bytes"},{"name":"callData","type":"bytes","internalType":"bytes"},{"name":"accountGasLimits","type":"bytes32","internalType":"bytes32"},{"name":"preVerificationGas","type":"uint256","internalType":"uint256"},{"name":"gasFees","type":"bytes32","internalType":"bytes32"},{"name":"paymasterAndData","type":"bytes","internalType":"bytes"},{"name":"signature","type":"bytes","internalType":"bytes"}]},{"name":"entryPoint","type":"address","internalType":"address"}],"outputs":[{"name":"operationData","type":"bytes","internalType":"bytes"},{"name":"validAfter","type":"uint48","internalType":"uint48"},{"name":"validUntil","type":"uint48","internalType":"uint48"},{"name":"signatures","type":"bytes","internalType":"bytes"}],"stateMutability":"view"},{"type":"function","name":"hash","inputs":[{"name":"data","type":"tuple","internalType":"struct Safe7579Launchpad.InitData","components":[{"name":"singleton","type":"address","internalType":"address"},{"name":"owners","type":"address[]","internalType":"address[]"},{"name":"threshold","type":"uint256","internalType":"uint256"},{"name":"setupTo","type":"address","internalType":"address"},{"name":"setupData","type":"bytes","internalType":"bytes"},{"name":"safe7579","type":"address","internalType":"contract ISafe7579"},{"name":"validators","type":"tuple[]","internalType":"struct ModuleInit[]","components":[{"name":"module","type":"address","internalType":"address"},{"name":"initData","type":"bytes","internalType":"bytes"},{"name":"moduleType","type":"uint256","internalType":"uint256"}]},{"name":"callData","type":"bytes","internalType":"bytes"}]}],"outputs":[{"name":"","type":"bytes32","internalType":"bytes32"}],"stateMutability":"pure"},{"type":"function","name":"initSafe7579","inputs":[{"name":"safe7579","type":"address","internalType":"address"},{"name":"modules","type":"tuple[]","internalType":"struct ModuleInit[]","components":[{"name":"module","type":"address","internalType":"address"},{"name":"initData","type":"bytes","internalType":"bytes"},{"name":"moduleType","type":"uint256","internalType":"uint256"}]},{"name":"attesters","type":"address[]","internalType":"address[]"},{"name":"threshold","type":"uint8","internalType":"uint8"}],"outputs":[],"stateMutability":"nonpayable"},{"type":"function","name":"preValidationSetup","inputs":[{"name":"initHash","type":"bytes32","internalType":"bytes32"},{"name":"to","type":"address","internalType":"address"},{"name":"preInit","type":"bytes","internalType":"bytes"}],"outputs":[],"stateMutability":"nonpayable"},{"type":"function","name":"predictSafeAddress","inputs":[{"name":"singleton","type":"address","internalType":"address"},{"name":"safeProxyFactory","type":"address","internalType":"address"},{"name":"creationCode","type":"bytes","internalType":"bytes"},{"name":"salt","type":"bytes32","internalType":"bytes32"},{"name":"factoryInitializer","type":"bytes","internalType":"bytes"}],"outputs":[{"name":"safeProxy","type":"address","internalType":"address"}],"stateMutability":"pure"},{"type":"function","name":"setupSafe","inputs":[{"name":"initData","type":"tuple","internalType":"struct Safe7579Launchpad.InitData","components":[{"name":"singleton","type":"address","internalType":"address"},{"name":"owners","type":"address[]","internalType":"address[]"},{"name":"threshold","type":"uint256","internalType":"uint256"},{"name":"setupTo","type":"address","internalType":"address"},{"name":"setupData","type":"bytes","internalType":"bytes"},{"name":"safe7579","type":"address","internalType":"contract ISafe7579"},{"name":"validators","type":"tuple[]","internalType":"struct ModuleInit[]","components":[{"name":"module","type":"address","internalType":"address"},{"name":"initData","type":"bytes","internalType":"bytes"},{"name":"moduleType","type":"uint256","internalType":"uint256"}]},{"name":"callData","type":"bytes","internalType":"bytes"}]}],"outputs":[],"stateMutability":"nonpayable"},{"type":"function","name":"supportsExecutionMode","inputs":[{"name":"encodedMode","type":"bytes32","internalType":"ModeCode"}],"outputs":[{"name":"supported","type":"bool","internalType":"bool"}],"stateMutability":"pure"},{"type":"function","name":"supportsModule","inputs":[{"name":"moduleTypeId","type":"uint256","internalType":"uint256"}],"outputs":[{"name":"","type":"bool","internalType":"bool"}],"stateMutability":"pure"},{"type":"function","name":"validateUserOp","inputs":[{"name":"userOp","type":"tuple","internalType":"struct PackedUserOperation","components":[{"name":"sender","type":"address","internalType":"address"},{"name":"nonce","type":"uint256","internalType":"uint256"},{"name":"initCode","type":"bytes","internalType":"bytes"},{"name":"callData","type":"bytes","internalType":"bytes"},{"name":"accountGasLimits","type":"bytes32","internalType":"bytes32"},{"name":"preVerificationGas","type":"uint256","internalType":"uint256"},{"name":"gasFees","type":"bytes32","internalType":"bytes32"},{"name":"paymasterAndData","type":"bytes","internalType":"bytes"},{"name":"signature","type":"bytes","internalType":"bytes"}]},{"name":"userOpHash","type":"bytes32","internalType":"bytes32"},{"name":"missingAccountFunds","type":"uint256","internalType":"uint256"}],"outputs":[{"name":"validationData","type":"uint256","internalType":"uint256"}],"stateMutability":"nonpayable"},{"type":"event","name":"ModuleInstalled","inputs":[{"name":"moduleTypeId","type":"uint256","indexed":false,"internalType":"uint256"},{"name":"module","type":"address","indexed":false,"internalType":"address"}],"anonymous":false},{"type":"event","name":"ModuleUninstalled","inputs":[{"name":"moduleTypeId","type":"uint256","indexed":false,"internalType":"uint256"},{"name":"module","type":"address","indexed":false,"internalType":"address"}],"anonymous":false},{"type":"error","name":"InvalidEntryPoint","inputs":[]},{"type":"error","name":"InvalidInitHash","inputs":[]},{"type":"error","name":"InvalidSetup","inputs":[]},{"type":"error","name":"InvalidSignature","inputs":[]},{"type":"error","name":"InvalidUserOperationData","inputs":[]},{"type":"error","name":"OnlyDelegatecall","inputs":[]},{"type":"error","name":"OnlyProxy","inputs":[]},{"type":"error","name":"PreValidationSetupFailed","inputs":[]},{"type":"error","name":"Safe7579LaunchpadAlreadyInitialized","inputs":[]}],"bytecode":{"object":"0x60e060405234801561000f575f5ffd5b50604051612ee7380380612ee783398101604081905261002e91610087565b6001600160a01b03821661005557604051632039d3c960e01b815260040160405180910390fd5b306080526001600160a01b0391821660a0521660c0526100bf565b6001600160a01b0381168114610084575f5ffd5b50565b5f5f60408385031215610098575f5ffd5b82516100a381610070565b60208401519092506100b481610070565b809150509250929050565b60805160a05160c051612dce6101195f395f818161016a0152610a3801525f81816101ba01528181610498015281816110b401526115e001525f818160f00152818161042a01528181610b18015261114d0152612dce5ff3fe6080604052600436106100e7575f3560e01c8063663c87d811610087578063d03c791411610057578063d03c791414610351578063f1dabbe014610380578063f2dc691d1461039f578063f698da25146103be575f5ffd5b8063663c87d8146102a95780639cfd7cff146102c85780639e5b1c2a14610313578063a3aa6b3214610332575f5ffd5b80633c9de1b8116100c25780633c9de1b81461020957806347cbbdca1461023c5780634fff40e11461025b57806355d559f41461027a575f5ffd5b806306433b1b14610159578063137e051e146101a957806319822f7c146101dc575f5ffd5b36610155575f547f00000000000000000000000000000000000000000000000000000000000000006001600160a01b03908116911614610153576040517f8e3edd1000000000000000000000000000000000000000000000000000000000815260040160405180910390fd5b005b5f5ffd5b348015610164575f5ffd5b5061018c7f000000000000000000000000000000000000000000000000000000000000000081565b6040516001600160a01b0390911681526020015b60405180910390f35b3480156101b4575f5ffd5b5061018c7f000000000000000000000000000000000000000000000000000000000000000081565b3480156101e7575f5ffd5b506101fb6101f6366004611c84565b610425565b6040519081526020016101a0565b348015610214575f5ffd5b507f982e06ee6a56dfc0f1ac189a5d23506361ca0a3ce45a9c7b8d33d65d43746a24546101fb565b348015610247575f5ffd5b50610153610256366004611d3a565b61093f565b348015610266575f5ffd5b50610153610275366004611dd3565b610b14565b348015610285575f5ffd5b50610299610294366004611f87565b610cad565b6040516101a094939291906120f0565b3480156102b4575f5ffd5b5061018c6102c336600461213b565b610f35565b3480156102d3575f5ffd5b50604080518082018252601a81527f7268696e6573746f6e652e73616665373537392e76312e302e30000000000000602082015290516101a091906121cd565b34801561031e575f5ffd5b5061015361032d366004611d3a565b61102b565b34801561033d575f5ffd5b5061015361034c3660046121df565b6110a9565b34801561035c575f5ffd5b5061037061036b366004612217565b6113c8565b60405190151581526020016101a0565b34801561038b575f5ffd5b506101fb61039a366004612397565b611526565b3480156103aa575f5ffd5b506103706103b9366004612217565b611577565b3480156103c9575f5ffd5b506101fb604080517f47e79534a245952e8b16893a336b85a3d9ea9fa8c573f3d803afb92a79469218602082015246918101919091523060608201525f9060800160405160208183030381529060405280519060200120905090565b5f80547f00000000000000000000000000000000000000000000000000000000000000006001600160a01b0390811691161461048d576040517f8e3edd1000000000000000000000000000000000000000000000000000000000815260040160405180910390fd5b336001600160a01b037f000000000000000000000000000000000000000000000000000000000000000016146104ef576040517f2039d3c900000000000000000000000000000000000000000000000000000000815260040160405180910390fd5b6104fc60608501856124c2565b61050a916004915f91612505565b6105139161252c565b7fffffffff00000000000000000000000000000000000000000000000000000000167fa3aa6b32000000000000000000000000000000000000000000000000000000001461058d576040517fc3d40f7700000000000000000000000000000000000000000000000000000000815260040160405180910390fd5b5f61059b60608601866124c2565b6105a9916004908290612505565b8101906105b69190612397565b90506105e07f982e06ee6a56dfc0f1ac189a5d23506361ca0a3ce45a9c7b8d33d65d43746a245490565b6105e982611526565b14610620576040517f9e0ca2c400000000000000000000000000000000000000000000000000000000815260040160405180910390fd5b5f5f866020013590508060601c91505f8360a001516001600160a01b03168460c001516040516024016106539190612617565b60408051601f19818403018152918152602080830180517bffffffffffffffffffffffffffffffffffffffffffffffffffffffff167f3c4ddc9d0000000000000000000000000000000000000000000000000000000017905290516106bb9291339101612640565b60408051601f19818403018152908290526106d59161266c565b5f604051808303815f865af19150503d805f811461070e576040519150601f19603f3d011682016040523d82523d5f602084013e610713565b606091505b505090508061074e576040517fc3d40f7700000000000000000000000000000000000000000000000000000000815260040160405180910390fd5b60c0840151515f90815b81811015610868575f8760c00151828151811061077757610777612677565b60200260200101515f01519050806001600160a01b0316636d61fe708960c0015184815181106107a9576107a9612677565b6020026020010151602001516040518263ffffffff1660e01b81526004016107d191906121cd565b5f604051808303815f87803b1580156107e8575f5ffd5b505af11580156107fa573d5f5f3e3d5ffd5b505060408051600181526001600160a01b03851660208201527fd21d0b289f126c4b473ea641963e766833c2f13866e4ff480abd787c100ef123935001905060405180910390a1866001600160a01b0316816001600160a01b03160361085f57600193505b50600101610758565b5081156108fd576040517f970032030000000000000000000000000000000000000000000000000000000081526001600160a01b038616906397003203906108b6908d908d906004016127d5565b6020604051808303815f875af11580156108d2573d5f5f3e3d5ffd5b505050506040513d601f19601f820116820180604052508101906108f691906127f6565b9650610922565b5f5f5f61090a898e6115c4565b92509250925061091c83158383611730565b99505050505b8715610932575f5f5f5f8b335af1505b5050505050509392505050565b6040517f610b59250000000000000000000000000000000000000000000000000000000081526001600160a01b0387166004820152309063610b5925906024015f604051808303815f87803b158015610996575f5ffd5b505af11580156109a8573d5f5f3e3d5ffd5b50506040517ff08a03230000000000000000000000000000000000000000000000000000000081526001600160a01b038916600482015230925063f08a032391506024015b5f604051808303815f87803b158015610a04575f5ffd5b505af1158015610a16573d5f5f3e3d5ffd5b50505050306001600160a01b0316633065ca43868660405180606001604052807f00000000000000000000000000000000000000000000000000000000000000006001600160a01b031681526020018888808060200260200160405190810160405280939291908181526020018383602002808284375f9201919091525050509082525060ff87166020909101526040517fffffffff0000000000000000000000000000000000000000000000000000000060e086901b168152610adf9392919060040161288e565b5f604051808303815f87803b158015610af6575f5ffd5b505af1158015610b08573d5f5f3e3d5ffd5b50505050505050505050565b5f547f00000000000000000000000000000000000000000000000000000000000000006001600160a01b03908116911614610b7b576040517f8e3edd1000000000000000000000000000000000000000000000000000000000815260040160405180910390fd5b5f610ba47f982e06ee6a56dfc0f1ac189a5d23506361ca0a3ce45a9c7b8d33d65d43746a245490565b14610bdb576040517fd4d496e500000000000000000000000000000000000000000000000000000000815260040160405180910390fd5b610c03847f982e06ee6a56dfc0f1ac189a5d23506361ca0a3ce45a9c7b8d33d65d43746a2455565b6001600160a01b03831615610ca7575f836001600160a01b03168383604051610c2d929190612984565b5f60405180830381855af49150503d805f8114610c65576040519150601f19603f3d011682016040523d82523d5f602084013e610c6a565b606091505b5050905080610ca5576040517ffabff6a800000000000000000000000000000000000000000000000000000000815260040160405180910390fd5b505b50505050565b6101008201516060905f9081908390610cc881846006611768565b610cd190612993565b60d01c9350610ce3816006600c611768565b610cec90612993565b60d01c9250610cfc81600c6117cd565b9150505f604051806101c001604052807fc03dfc11d8b10bf9cf703d558958c8c42777f785d998c62060d85a4f0ef6ea7f5f1b8152602001885f01516001600160a01b031681526020018860200151815260200188604001518051906020012081526020018860600151805190602001208152602001610d7b896117db565b6fffffffffffffffffffffffffffffffff168152602001610d9b896117f0565b6fffffffffffffffffffffffffffffffff1681526020018860a001518152602001610dc58961180e565b6fffffffffffffffffffffffffffffffff168152602001610de58961181d565b6fffffffffffffffffffffffffffffffff16815260e089015180516020918201209082015265ffffffffffff8087166040830152851660608201526001600160a01b0388166080909101526101c081209091507f19000000000000000000000000000000000000000000000000000000000000007f0100000000000000000000000000000000000000000000000000000000000000610ed5604080517f47e79534a245952e8b16893a336b85a3d9ea9fa8c573f3d803afb92a79469218602082015246918101919091523060608201525f9060800160405160208183030381529060405280519060200120905090565b6040517fff0000000000000000000000000000000000000000000000000000000000000093841660208201529290911660218301526022820152604281018290526062016040516020818303038152906040529550505092959194509250565b5f818051906020012083604051602001610f59929190918252602082015260400190565b60405160208183030381529060405280519060200120925060ff60f81b858486896001600160a01b0316604051602001610f949291906129fd565b6040516020818303038152906040528051906020012060405160200161100994939291907fff0000000000000000000000000000000000000000000000000000000000000094909416845260609290921b6bffffffffffffffffffffffff191660018401526015830152603582015260550190565b60408051601f1981840301815291905280516020909101209695505050505050565b333014611064576040517f0a57d61d00000000000000000000000000000000000000000000000000000000815260040160405180910390fd5b6040517f610b59250000000000000000000000000000000000000000000000000000000081526001600160a01b0387166004820152309063610b5925906024016109ed565b336001600160a01b037f0000000000000000000000000000000000000000000000000000000000000000161461110b576040517f2039d3c900000000000000000000000000000000000000000000000000000000815260040160405180910390fd5b6111186020820182612a15565b5f80547fffffffffffffffffffffffff0000000000000000000000000000000000000000166001600160a01b039283161790557f00000000000000000000000000000000000000000000000000000000000000001661117d6080830160608401612a15565b6001600160a01b0316146111bd576040517f3007073700000000000000000000000000000000000000000000000000000000815260040160405180910390fd5b7f9e5b1c2a000000000000000000000000000000000000000000000000000000006111eb60808301836124c2565b6111f9916004915f91612505565b6112029161252c565b7fffffffff00000000000000000000000000000000000000000000000000000000161461125b576040517f3007073700000000000000000000000000000000000000000000000000000000815260040160405180910390fd5b3063b63e800d61126e6020840184612a30565b60408501356112836080870160608801612a15565b61129060808801886124c2565b6112a060c08a0160a08b01612a15565b5f5f5f6040518b63ffffffff1660e01b81526004016112c89a99989796959493929190612a76565b5f604051808303815f87803b1580156112df575f5ffd5b505af11580156112f1573d5f5f3e3d5ffd5b50505f7f982e06ee6a56dfc0f1ac189a5d23506361ca0a3ce45a9c7b8d33d65d43746a24555061131e9050565b5f8061133060c0840160a08501612a15565b6001600160a01b031661134660e08501856124c2565b3060405160200161135993929190612b3b565b60408051601f19818403018152908290526113739161266c565b5f604051808303815f865af19150503d805f81146113ac576040519150601f19603f3d011682016040523d82523d5f602084013e6113b1565b606091505b5091509150816113c357805160208201fd5b505050565b5f81600881901b7fff0000000000000000000000000000000000000000000000000000000000000082167f010000000000000000000000000000000000000000000000000000000000000003611421576001925061148c565b7fff000000000000000000000000000000000000000000000000000000000000008216611451576001925061148c565b7fff0000000000000000000000000000000000000000000000000000000000000080831603611483576001925061148c565b505f9392505050565b8280156114b957507fff000000000000000000000000000000000000000000000000000000000000008116155b156114c5575050919050565b82801561151357507fff0000000000000000000000000000000000000000000000000000000000000081167f0100000000000000000000000000000000000000000000000000000000000000145b15611483575050919050565b5050919050565b80516020808301516040808501516060860151608087015160a088015160c089015194515f9861155a989097969101612b61565b604051602081830303815290604052805190602001209050919050565b5f6001820361158857506001919050565b6002820361159857506001919050565b600382036115a857506001919050565b600482036115b857506001919050565b505f919050565b919050565b5f5f5f6060808660a001516001600160a01b03166355d559f4877f00000000000000000000000000000000000000000000000000000000000000006040518363ffffffff1660e01b815260040161161c929190612bda565b5f60405180830381865afa158015611636573d5f5f3e3d5ffd5b505050506040513d5f823e601f3d908101601f1916820160405261165d9190810190612c66565b8351602085012060408c0151929850929650929450919250905f90611685908390859061183b565b905061169081611a1c565b602089015161169e81611a1c565b6116a781611a28565b80515f805b8281101561171d575f6116e18583815181106116ca576116ca612677565b602002602001015187611a3190919063ffffffff16565b509050801561171457826116f481612cff565b9350508d6040015183106117145760019b50505050505050505050611729565b506001016116ac565b505f9950505050505050505b9250925092565b5f60d08265ffffffffffff16901b60a08465ffffffffffff16901b85611756575f611759565b60015b60ff16171790505b9392505050565b60608351828111611777578092505b838111611782578093505b50818310156117615750604051828203848401601f19601f830181165b828101518582015281018061179f575050508060208301015f81526020810160405250808252509392505050565b606061176183835f19611768565b5f6117ea826080015160801c90565b92915050565b5f6117ea82608001516fffffffffffffffffffffffffffffffff1690565b5f6117ea8260c0015160801c90565b5f6117ea8260c001516fffffffffffffffffffffffffffffffff1690565b81516060905f61184c604183612d17565b90508067ffffffffffffffff81111561186757611867611e58565b604051908082528060200260200182016040528015611890578160200160208202803683370190505b509250838110156118cd576040517f8baa579f00000000000000000000000000000000000000000000000000000000815260040160405180910390fd5b5f5f5b828110156119d7575f5f5f5f6118fd8b8660410201602081015160408201516060909201515f1a92909190565b9250925092508260ff165f036119215761191a8c8c84848c611a52565b935061197f565b601e8360ff1611156119705761191a61195e8d6020527b19457468657265756d205369676e6564204d6573736167653a0a33325f52603c60042090565b611969600486612d36565b8484611b4b565b61197c8c848484611b4b565b93505b6001600160a01b0384161561199c578561199881612cff565b9650505b838986815181106119af576119af612677565b6001600160a01b03909216602092830291909101909101525050600190920191506118d09050565b5084811015611a12576040517f8baa579f00000000000000000000000000000000000000000000000000000000815260040160405180910390fd5b5050509392505050565b611a2581611b85565b50565b611a2581611bda565b5f80611a4784846001600160a01b03165f611c23565b909590945092505050565b83820160200151839082611a668583612d4f565b611a71906020612d4f565b1115611a80575f915050611b42565b6040517f1626ba7e00000000000000000000000000000000000000000000000000000000808252878601602001916001600160a01b03851690631626ba7e90611acf908c908690600401612d62565b602060405180830381865afa158015611aea573d5f5f3e3d5ffd5b505050506040513d601f19601f82011682018060405250810190611b0e9190612d82565b7fffffffff000000000000000000000000000000000000000000000000000000001614611b3f575f92505050611b42565b50505b95945050505050565b5f604051855f5260ff851660205283604052826060526020604060805f60015afa505f6060523d6060185191508060405250949350505050565b80515f82528060051b8201601f19602084015b602001828111611bd35780518282018051828111611bb857505050611b98565b5b602082015283018051828111611bb9575060200152611b98565b5050509052565b6002815110611a25576020810160408201600183510160051b83015b8151835114611c0a57602083019250815183525b602082019150808203611bf657505081900360051c9052565b5f5f5f19600186515f87870197505b81830160011c94508460051b8901518701905087811482841117611c6c57808811611c61578385019150611c32565b600185019250611c32565b84151597148716989290930190950295509350505050565b5f5f5f60608486031215611c96575f5ffd5b833567ffffffffffffffff811115611cac575f5ffd5b84016101208187031215611cbe575f5ffd5b95602085013595506040909401359392505050565b6001600160a01b0381168114611a25575f5ffd5b80356115bf81611cd3565b5f5f83601f840112611d02575f5ffd5b50813567ffffffffffffffff811115611d19575f5ffd5b6020830191508360208260051b8501011115611d33575f5ffd5b9250929050565b5f5f5f5f5f5f60808789031215611d4f575f5ffd5b8635611d5a81611cd3565b9550602087013567ffffffffffffffff811115611d75575f5ffd5b611d8189828a01611cf2565b909650945050604087013567ffffffffffffffff811115611da0575f5ffd5b611dac89828a01611cf2565b909450925050606087013560ff81168114611dc5575f5ffd5b809150509295509295509295565b5f5f5f5f60608587031215611de6575f5ffd5b843593506020850135611df881611cd3565b9250604085013567ffffffffffffffff811115611e13575f5ffd5b8501601f81018713611e23575f5ffd5b803567ffffffffffffffff811115611e39575f5ffd5b876020828401011115611e4a575f5ffd5b949793965060200194505050565b634e487b7160e01b5f52604160045260245ffd5b604051610120810167ffffffffffffffff81118282101715611e9057611e90611e58565b60405290565b6040516060810167ffffffffffffffff81118282101715611e9057611e90611e58565b604051610100810167ffffffffffffffff81118282101715611e9057611e90611e58565b604051601f8201601f1916810167ffffffffffffffff81118282101715611f0657611f06611e58565b604052919050565b5f67ffffffffffffffff821115611f2757611f27611e58565b50601f01601f191660200190565b5f82601f830112611f44575f5ffd5b8135611f57611f5282611f0e565b611edd565b818152846020838601011115611f6b575f5ffd5b816020850160208301375f918101602001919091529392505050565b5f5f60408385031215611f98575f5ffd5b823567ffffffffffffffff811115611fae575f5ffd5b83016101208186031215611fc0575f5ffd5b611fc8611e6c565b611fd182611ce7565b815260208281013590820152604082013567ffffffffffffffff811115611ff6575f5ffd5b61200287828501611f35565b604083015250606082013567ffffffffffffffff811115612021575f5ffd5b61202d87828501611f35565b6060830152506080828101359082015260a0808301359082015260c0808301359082015260e082013567ffffffffffffffff81111561206a575f5ffd5b61207687828501611f35565b60e08301525061010082013567ffffffffffffffff811115612096575f5ffd5b6120a287828501611f35565b6101008301525092506120b9905060208401611ce7565b90509250929050565b5f81518084528060208401602086015e5f602082860101526020601f19601f83011685010191505092915050565b608081525f61210260808301876120c2565b65ffffffffffff8616602084015265ffffffffffff85166040840152828103606084015261213081856120c2565b979650505050505050565b5f5f5f5f5f60a0868803121561214f575f5ffd5b853561215a81611cd3565b9450602086013561216a81611cd3565b9350604086013567ffffffffffffffff811115612185575f5ffd5b61219188828901611f35565b93505060608601359150608086013567ffffffffffffffff8111156121b4575f5ffd5b6121c088828901611f35565b9150509295509295909350565b602081525f61176160208301846120c2565b5f602082840312156121ef575f5ffd5b813567ffffffffffffffff811115612205575f5ffd5b82016101008185031215611761575f5ffd5b5f60208284031215612227575f5ffd5b5035919050565b5f67ffffffffffffffff82111561224757612247611e58565b5060051b60200190565b5f82601f830112612260575f5ffd5b813561226e611f528261222e565b8082825260208201915060208360051b86010192508583111561228f575f5ffd5b602085015b838110156122b55780356122a781611cd3565b835260209283019201612294565b5095945050505050565b5f82601f8301126122ce575f5ffd5b81356122dc611f528261222e565b8082825260208201915060208360051b8601019250858311156122fd575f5ffd5b602085015b838110156122b557803567ffffffffffffffff811115612320575f5ffd5b86016060818903601f19011215612335575f5ffd5b61233d611e96565b602082013561234b81611cd3565b8152604082013567ffffffffffffffff811115612366575f5ffd5b6123758a602083860101611f35565b6020838101919091526060939093013560408301525084529283019201612302565b5f602082840312156123a7575f5ffd5b813567ffffffffffffffff8111156123bd575f5ffd5b820161010081850312156123cf575f5ffd5b6123d7611eb9565b6123e082611ce7565b8152602082013567ffffffffffffffff8111156123fb575f5ffd5b61240786828501612251565b6020830152506040828101359082015261242360608301611ce7565b6060820152608082013567ffffffffffffffff811115612441575f5ffd5b61244d86828501611f35565b60808301525061245f60a08301611ce7565b60a082015260c082013567ffffffffffffffff81111561247d575f5ffd5b612489868285016122bf565b60c08301525060e082013567ffffffffffffffff8111156124a8575f5ffd5b6124b486828501611f35565b60e083015250949350505050565b5f5f8335601e198436030181126124d7575f5ffd5b83018035915067ffffffffffffffff8211156124f1575f5ffd5b602001915036819003821315611d33575f5ffd5b5f5f85851115612513575f5ffd5b8386111561251f575f5ffd5b5050820193919092039150565b80357fffffffff00000000000000000000000000000000000000000000000000000000811690600484101561258b577fffffffff00000000000000000000000000000000000000000000000000000000808560040360031b1b82161691505b5092915050565b5f82825180855260208501945060208160051b830101602085015f5b8381101561260b57601f1985840301885281516001600160a01b0381511684526020810151606060208601526125e760608601826120c2565b604092830151959092019490945260209889019890935091909101906001016125ae565b50909695505050505050565b602081525f6117616020830184612592565b5f81518060208401855e5f93019283525090919050565b5f61264b8285612629565b60609390931b6bffffffffffffffffffffffff191683525050601401919050565b5f6117618284612629565b634e487b7160e01b5f52603260045260245ffd5b5f5f8335601e198436030181126126a0575f5ffd5b830160208101925035905067ffffffffffffffff8111156126bf575f5ffd5b803603821315611d33575f5ffd5b81835281816020850137505f602082840101525f6020601f19601f840116840101905092915050565b6127108261270383611ce7565b6001600160a01b03169052565b602081810135908301525f612728604083018361268b565b610120604086015261273f610120860182846126cd565b91505061274f606084018461268b565b85830360608701526127628382846126cd565b6080868101359088015260a0808701359088015260c08087013590880152925061279291505060e084018461268b565b85830360e08701526127a58382846126cd565b925050506127b761010084018461268b565b8583036101008701526127cb8382846126cd565b9695505050505050565b604081525f6127e760408301856126f6565b90508260208301529392505050565b5f60208284031215612806575f5ffd5b5051919050565b5f8151808452602084019350602083015f5b828110156128465781516001600160a01b031686526020958601959091019060010161281f565b5093949350505050565b6001600160a01b0381511682525f602082015160606020850152612877606085018261280d565b60409384015160ff16949093019390935250919050565b604080825281018390525f6060600585901b8301810190830186837fffffffffffffffffffffffffffffffffffffffffffffffffffffffffffffffa136839003015b8882101561296e577fffffffffffffffffffffffffffffffffffffffffffffffffffffffffffffffa0878603018452823581811261290c575f5ffd5b8a01803561291981611cd3565b6001600160a01b03168652612931602082018261268b565b606060208901526129466060890182846126cd565b60409384013598909301979097525094506020938401939290920191600191909101906128d0565b5050505082810360208401526127cb8185612850565b818382375f9101908152919050565b805160208201517fffffffffffff000000000000000000000000000000000000000000000000000081169190600682101561151f577fffffffffffff000000000000000000000000000000000000000000000000000060069290920360031b82901b161692915050565b5f612a088285612629565b9283525050602001919050565b5f60208284031215612a25575f5ffd5b813561176181611cd3565b5f5f8335601e19843603018112612a45575f5ffd5b83018035915067ffffffffffffffff821115612a5f575f5ffd5b6020019150600581901b3603821315611d33575f5ffd5b61010080825281018a90525f8b6101208301825b8d811015612aba578235612a9d81611cd3565b6001600160a01b0316825260209283019290910190600101612a8a565b508b6020850152612ad6604085018c6001600160a01b03169052565b8381036060850152612ae9818a8c6126cd565b92505050612b0260808301876001600160a01b03169052565b6001600160a01b03851660a08301528360c0830152612b2c60e08301846001600160a01b03169052565b9b9a5050505050505050505050565b8284823760609190911b6bffffffffffffffffffffffff19169101908152601401919050565b6001600160a01b038816815260e060208201525f612b8260e083018961280d565b8760408401526001600160a01b03871660608401528281036080840152612ba981876120c2565b90506001600160a01b03851660a084015282810360c0840152612bcc8185612592565b9a9950505050505050505050565b604081525f612bec60408301856126f6565b90506001600160a01b03831660208301529392505050565b5f82601f830112612c13575f5ffd5b8151612c21611f5282611f0e565b818152846020838601011115612c35575f5ffd5b8160208501602083015e5f918101602001919091529392505050565b805165ffffffffffff811681146115bf575f5ffd5b5f5f5f5f60808587031215612c79575f5ffd5b845167ffffffffffffffff811115612c8f575f5ffd5b612c9b87828801612c04565b945050612caa60208601612c51565b9250612cb860408601612c51565b9150606085015167ffffffffffffffff811115612cd3575f5ffd5b612cdf87828801612c04565b91505092959194509250565b634e487b7160e01b5f52601160045260245ffd5b5f60018201612d1057612d10612ceb565b5060010190565b5f82612d3157634e487b7160e01b5f52601260045260245ffd5b500490565b60ff82811682821603908111156117ea576117ea612ceb565b808201808211156117ea576117ea612ceb565b828152604060208201525f612d7a60408301846120c2565b949350505050565b5f60208284031215612d92575f5ffd5b81517fffffffff0000000000000000000000000000000000000000000000000000000081168114611761575f5ffdfea164736f6c634300081e000a","linkReferences":{}},"methodIdentifiers":{"REGISTRY()":"06433b1b","SUPPORTED_ENTRYPOINT()":"137e051e","accountId()":"9cfd7cff","addSafe7579(address,(address,bytes,uint256)[],address[],uint8)":"47cbbdca","domainSeparator()":"f698da25","getInitHash()":"3c9de1b8","getSafeOp((address,uint256,bytes,bytes,bytes32,uint256,bytes32,bytes,bytes),address)":"55d559f4","hash((address,address[],uint256,address,bytes,address,(address,bytes,uint256)[],bytes))":"f1dabbe0","initSafe7579(address,(address,bytes,uint256)[],address[],uint8)":"9e5b1c2a","preValidationSetup(bytes32,address,bytes)":"4fff40e1","predictSafeAddress(address,address,bytes,bytes32,bytes)":"663c87d8","setupSafe((address,address[],uint256,address,bytes,address,(address,bytes,uint256)[],bytes))":"a3aa6b32","supportsExecutionMode(bytes32)":"d03c7914","supportsModule(uint256)":"f2dc691d","validateUserOp((address,uint256,bytes,bytes,bytes32,uint256,bytes32,bytes,bytes),bytes32,uint256)":"19822f7c"},"id":12}