{
  "abi": [
    {
      "type": "function",
      "name": "execute",
      "inputs": [
        {
          "name": "executions",
          "type": "tuple[]",
          "internalType": "struct Execution[]",
          "components": [
            {
              "name": "target",
              "type": "address",
              "internalType": "address"
            },
            {
              "name": "value",
              "type": "uint256",
              "internalType": "uint256"
            },
            {
              "name": "callData",
              "type": "bytes",
              "internalType": "bytes"
            }
          ]
        }
      ],
      "outputs": [],
      "stateMutability": "nonpayable"
    },
    {
      "type": "function",
      "name": "executeReturn",
      "inputs": [
        {
          "name": "executions",
          "type": "tuple[]",
          "internalType": "struct Execution[]",
          "components": [
            {
              "name": "target",
              "type": "address",
              "internalType": "address"
            },
            {
              "name": "value",
              "type": "uint256",
              "internalType": "uint256"
            },
            {
              "name": "callData",
              "type": "bytes",
              "internalType": "bytes"
            }
          ]
        }
      ],
      "outputs": [
        {
          "name": "result",
          "type": "bytes[]",
          "internalType": "bytes[]"
        }
      ],
      "stateMutability": "nonpayable"
    },
    {
      "type": "function",
      "name": "tryExecute",
      "inputs": [
        {
          "name": "executions",
          "type": "tuple[]",
          "internalType": "struct Execution[]",
          "components": [
            {
              "name": "target",
              "type": "address",
              "internalType": "address"
            },
            {
              "name": "value",
              "type": "uint256",
              "internalType": "uint256"
            },
            {
              "name": "callData",
              "type": "bytes",
              "internalType": "bytes"
            }
          ]
        }
      ],
      "outputs": [],
      "stateMutability": "nonpayable"
    },
    {
      "type": "function",
      "name": "tryExecuteReturn",
      "inputs": [
        {
          "name": "executions",
          "type": "tuple[]",
          "internalType": "struct Execution[]",
          "components": [
            {
              "name": "target",
              "type": "address",
              "internalType": "address"
            },
            {
              "name": "value",
              "type": "uint256",
              "internalType": "uint256"
            },
            {
              "name": "callData",
              "type": "bytes",
              "internalType": "bytes"
            }
          ]
        }
      ],
      "outputs": [
        {
          "name": "success",
          "type": "bool[]",
          "internalType": "bool[]"
        },
        {
          "name": "result",
          "type": "bytes[]",
          "internalType": "bytes[]"
        }
      ],
      "stateMutability": "nonpayable"
    }
  ],
  "bytecode": {
    "object": "0x6080604052348015600f57600080fd5b5061064f8061001f6000396000f3fe608060405234801561001057600080fd5b506004361061004c5760003560e01c80633f707e6b1461005157806350c890221461006657806361085573146100795780639abb6e17146100a2575b600080fd5b61006461005f3660046103e5565b6100c3565b005b6100646100743660046103e5565b61012d565b61008c6100873660046103e5565b610192565b60405161009991906104e2565b60405180910390f35b6100b56100b03660046103e5565b610254565b6040516100999291906104fc565b8060005b8181101561012757368484838181106100e2576100e2610556565b90506020028101906100f4919061056c565b905061011d610106602083018361058c565b602083013561011860408501856105b5565b61037e565b50506001016100c7565b50505050565b8060005b81811015610127573684848381811061014c5761014c610556565b905060200281019061015e919061056c565b9050610187610170602083018361058c565b602083013561018260408501856105b5565b6103b4565b505050600101610131565b6060818067ffffffffffffffff8111156101ae576101ae610603565b6040519080825280602002602001820160405280156101e157816020015b60608152602001906001900390816101cc5790505b50915060005b8181101561024c573685858381811061020257610202610556565b9050602002810190610214919061056c565b9050610226610106602083018361058c565b84838151811061023857610238610556565b6020908102919091010152506001016101e7565b505092915050565b606080828067ffffffffffffffff81111561027157610271610603565b6040519080825280602002602001820160405280156102a457816020015b606081526020019060019003908161028f5790505b5091508067ffffffffffffffff8111156102c0576102c0610603565b6040519080825280602002602001820160405280156102e9578160200160208202803683370190505b50925060005b81811015610375573686868381811061030a5761030a610556565b905060200281019061031c919061056c565b905061032e610170602083018361058c565b86848151811061034057610340610556565b6020026020010186858151811061035957610359610556565b60209081029190910101919091529015159052506001016102ef565b50509250929050565b60405181838237600038838387895af161039b573d6000823e3d81fd5b3d8152602081013d6000823e3d01604052949350505050565b604051600090828482376000388483888a5af191503d8152602081013d6000823e3d81016040525094509492505050565b600080602083850312156103f857600080fd5b823567ffffffffffffffff8082111561041057600080fd5b818501915085601f83011261042457600080fd5b81358181111561043357600080fd5b8660208260051b850101111561044857600080fd5b60209290920196919550909350505050565b600082825180855260208086019550808260051b8401018186016000805b858110156104d457601f1980888603018b5283518051808752845b818110156104ae578281018901518882018a01528801610493565b5086810188018590529b87019b601f019091169094018501935091840191600101610478565b509198975050505050505050565b6020815260006104f5602083018461045a565b9392505050565b604080825283519082018190526000906020906060840190828701845b82811015610537578151151584529284019290840190600101610519565b505050838103602085015261054c818661045a565b9695505050505050565b634e487b7160e01b600052603260045260246000fd5b60008235605e1983360301811261058257600080fd5b9190910192915050565b60006020828403121561059e57600080fd5b81356001600160a01b03811681146104f557600080fd5b6000808335601e198436030181126105cc57600080fd5b83018035915067ffffffffffffffff8211156105e757600080fd5b6020019150368190038213156105fc57600080fd5b9250929050565b634e487b7160e01b600052604160045260246000fdfea2646970667358221220b41f02b5c64099cac9271c0318399295d93fb1d6d44c66f4d3b3c66c0e9cdf9064736f6c63430008190033",
    "linkReferences": {}
  },
  "methodIdentifiers": {
    "execute((address,uint256,bytes)[])": "3f707e6b",
    "executeReturn((address,uint256,bytes)[])": "61085573",
    "tryExecute((address,uint256,bytes)[])": "50c89022",
    "tryExecuteReturn((address,uint256,bytes)[])": "9abb6e17"
  },
  "id": 127
}