{
  "abi": [
    {
      "type": "function",
      "name": "execute",
      "inputs": [
        {
          "name": "executions",
          "type": "tuple[]",
          "internalType": "struct Execution[]",
          "components": [
            {
              "name": "target",
              "type": "address",
              "internalType": "address"
            },
            {
              "name": "value",
              "type": "uint256",
              "internalType": "uint256"
            },
            {
              "name": "callData",
              "type": "bytes",
              "internalType": "bytes"
            }
          ]
        }
      ],
      "outputs": [],
      "stateMutability": "nonpayable"
    },
    {
      "type": "function",
      "name": "executeReturn",
      "inputs": [
        {
          "name": "executions",
          "type": "tuple[]",
          "internalType": "struct Execution[]",
          "components": [
            {
              "name": "target",
              "type": "address",
              "internalType": "address"
            },
            {
              "name": "value",
              "type": "uint256",
              "internalType": "uint256"
            },
            {
              "name": "callData",
              "type": "bytes",
              "internalType": "bytes"
            }
          ]
        }
      ],
      "outputs": [
        {
          "name": "result",
          "type": "bytes[]",
          "internalType": "bytes[]"
        }
      ],
      "stateMutability": "nonpayable"
    },
    {
      "type": "function",
      "name": "tryExecute",
      "inputs": [
        {
          "name": "executions",
          "type": "tuple[]",
          "internalType": "struct Execution[]",
          "components": [
            {
              "name": "target",
              "type": "address",
              "internalType": "address"
            },
            {
              "name": "value",
              "type": "uint256",
              "internalType": "uint256"
            },
            {
              "name": "callData",
              "type": "bytes",
              "internalType": "bytes"
            }
          ]
        }
      ],
      "outputs": [],
      "stateMutability": "nonpayable"
    },
    {
      "type": "function",
      "name": "tryExecuteReturn",
      "inputs": [
        {
          "name": "executions",
          "type": "tuple[]",
          "internalType": "struct Execution[]",
          "components": [
            {
              "name": "target",
              "type": "address",
              "internalType": "address"
            },
            {
              "name": "value",
              "type": "uint256",
              "internalType": "uint256"
            },
            {
              "name": "callData",
              "type": "bytes",
              "internalType": "bytes"
            }
          ]
        }
      ],
      "outputs": [
        {
          "name": "success",
          "type": "bool[]",
          "internalType": "bool[]"
        },
        {
          "name": "result",
          "type": "bytes[]",
          "internalType": "bytes[]"
        }
      ],
      "stateMutability": "nonpayable"
    }
  ],
  "bytecode": {
    "object": "0x6080604052348015600f57600080fd5b5061065c8061001f6000396000f3fe608060405234801561001057600080fd5b506004361061004c5760003560e01c80633f707e6b1461005157806350c890221461006657806361085573146100795780639abb6e17146100a2575b600080fd5b61006461005f3660046103e5565b6100c3565b005b6100646100743660046103e5565b61012d565b61008c6100873660046103e5565b610192565b60405161009991906104ef565b60405180910390f35b6100b56100b03660046103e5565b610254565b604051610099929190610509565b8060005b8181101561012757368484838181106100e2576100e2610563565b90506020028101906100f49190610579565b905061011d6101066020830183610599565b602083013561011860408501856105c2565b61037e565b50506001016100c7565b50505050565b8060005b81811015610127573684848381811061014c5761014c610563565b905060200281019061015e9190610579565b90506101876101706020830183610599565b602083013561018260408501856105c2565b6103b4565b505050600101610131565b6060818067ffffffffffffffff8111156101ae576101ae610610565b6040519080825280602002602001820160405280156101e157816020015b60608152602001906001900390816101cc5790505b50915060005b8181101561024c573685858381811061020257610202610563565b90506020028101906102149190610579565b90506102266101066020830183610599565b84838151811061023857610238610563565b6020908102919091010152506001016101e7565b505092915050565b606080828067ffffffffffffffff81111561027157610271610610565b6040519080825280602002602001820160405280156102a457816020015b606081526020019060019003908161028f5790505b5091508067ffffffffffffffff8111156102c0576102c0610610565b6040519080825280602002602001820160405280156102e9578160200160208202803683370190505b50925060005b81811015610375573686868381811061030a5761030a610563565b905060200281019061031c9190610579565b905061032e6101706020830183610599565b86848151811061034057610340610563565b6020026020010186858151811061035957610359610563565b60209081029190910101919091529015159052506001016102ef565b50509250929050565b60405181838237600038838387895af161039b573d6000823e3d81fd5b3d8152602081013d6000823e3d01604052949350505050565b604051600090828482376000388483888a5af191503d8152602081013d6000823e3d81016040525094509492505050565b600080602083850312156103f857600080fd5b823567ffffffffffffffff81111561040f57600080fd5b8301601f8101851361042057600080fd5b803567ffffffffffffffff81111561043757600080fd5b8560208260051b840101111561044c57600080fd5b6020919091019590945092505050565b600082825180855260208501945060208160051b8301016020850160005b838110156104e357848303601f190188528151805180855260005b818110156104b157602081840181015187830182015201610495565b506000602082870101526020601f19601f8301168601019450505060208201915060208801975060018101905061047a565b50909695505050505050565b602081526000610502602083018461045c565b9392505050565b6040808252835190820181905260009060208501906060840190835b818110156105455783511515835260209384019390920191600101610525565b50508381036020850152610559818661045c565b9695505050505050565b634e487b7160e01b600052603260045260246000fd5b60008235605e1983360301811261058f57600080fd5b9190910192915050565b6000602082840312156105ab57600080fd5b81356001600160a01b038116811461050257600080fd5b6000808335601e198436030181126105d957600080fd5b83018035915067ffffffffffffffff8211156105f457600080fd5b60200191503681900382131561060957600080fd5b9250929050565b634e487b7160e01b600052604160045260246000fdfea26469706673582212208f0372ef78adc893daf8a86e7b521b3e1a883b75dc6574ec169092079a52aed664736f6c634300081a0033",
    "linkReferences": {}
  },
  "methodIdentifiers": {
    "execute((address,uint256,bytes)[])": "3f707e6b",
    "executeReturn((address,uint256,bytes)[])": "61085573",
    "tryExecute((address,uint256,bytes)[])": "50c89022",
    "tryExecuteReturn((address,uint256,bytes)[])": "9abb6e17"
  },
  "id": 133
}