{
  "abi": [
    {
      "type": "function",
      "name": "installModule",
      "inputs": [
        {
          "name": "moduleTypeId",
          "type": "uint256",
          "internalType": "uint256"
        },
        {
          "name": "module",
          "type": "address",
          "internalType": "address"
        },
        {
          "name": "initData",
          "type": "bytes",
          "internalType": "bytes"
        }
      ],
      "outputs": [],
      "stateMutability": "nonpayable"
    },
    {
      "type": "function",
      "name": "unInstallModule",
      "inputs": [
        {
          "name": "moduleTypeId",
          "type": "uint256",
          "internalType": "uint256"
        },
        {
          "name": "module",
          "type": "address",
          "internalType": "address"
        },
        {
          "name": "initData",
          "type": "bytes",
          "internalType": "bytes"
        }
      ],
      "outputs": [],
      "stateMutability": "nonpayable"
    },
    {
      "type": "event",
      "name": "ModuleInstalled",
      "inputs": [
        {
          "name": "moduleTypeId",
          "type": "uint256",
          "indexed": false,
          "internalType": "uint256"
        },
        {
          "name": "module",
          "type": "address",
          "indexed": false,
          "internalType": "address"
        }
      ],
      "anonymous": false
    },
    {
      "type": "event",
      "name": "ModuleUninstalled",
      "inputs": [
        {
          "name": "moduleTypeId",
          "type": "uint256",
          "indexed": false,
          "internalType": "uint256"
        },
        {
          "name": "module",
          "type": "address",
          "indexed": false,
          "internalType": "address"
        }
      ],
      "anonymous": false
    }
  ],
  "bytecode": {
    "object": "0x6080604052348015600f57600080fd5b506102a88061001f6000396000f3fe608060405234801561001057600080fd5b50600436106100365760003560e01c8063782725251461003b5780639517e29f14610050575b600080fd5b61004e6100493660046101ab565b610063565b005b61004e61005e3660046101ab565b61010c565b604051638a91b0e360e01b81526001600160a01b03841690638a91b0e3906100919085908590600401610243565b600060405180830381600087803b1580156100ab57600080fd5b505af11580156100bf573d6000803e3d6000fd5b5050604080518781526001600160a01b03871660208201527f341347516a9de374859dfda710fa4828b2d48cb57d4fbe4c1149612b8e02276e93500190505b60405180910390a150505050565b6040516306d61fe760e41b81526001600160a01b03841690636d61fe709061013a9085908590600401610243565b600060405180830381600087803b15801561015457600080fd5b505af1158015610168573d6000803e3d6000fd5b5050604080518781526001600160a01b03871660208201527fd21d0b289f126c4b473ea641963e766833c2f13866e4ff480abd787c100ef12393500190506100fe565b600080600080606085870312156101c157600080fd5b8435935060208501356001600160a01b03811681146101df57600080fd5b9250604085013567ffffffffffffffff8111156101fb57600080fd5b8501601f8101871361020c57600080fd5b803567ffffffffffffffff81111561022357600080fd5b87602082840101111561023557600080fd5b949793965060200194505050565b60208152816020820152818360408301376000818301604090810191909152601f909201601f1916010191905056fea264697066735822122072b28265091e5c9e174375104ba21d188073e5871eac41392a625877f9042d0f64736f6c634300081a0033",
    "linkReferences": {}
  },
  "methodIdentifiers": {
    "installModule(uint256,address,bytes)": "9517e29f",
    "unInstallModule(uint256,address,bytes)": "78272525"
  },
  "id": 133
}