{
  "abi": [
    {
      "type": "fallback",
      "stateMutability": "payable"
    },
    {
      "type": "receive",
      "stateMutability": "payable"
    },
    {
      "type": "function",
      "name": "accountId",
      "inputs": [],
      "outputs": [
        {
          "name": "accountImplementationId",
          "type": "string",
          "internalType": "string"
        }
      ],
      "stateMutability": "pure"
    },
    {
      "type": "function",
      "name": "domainSeparator",
      "inputs": [],
      "outputs": [
        {
          "name": "",
          "type": "bytes32",
          "internalType": "bytes32"
        }
      ],
      "stateMutability": "view"
    },
    {
      "type": "function",
      "name": "entryPoint",
      "inputs": [],
      "outputs": [
        {
          "name": "",
          "type": "address",
          "internalType": "address"
        }
      ],
      "stateMutability": "view"
    },
    {
      "type": "function",
      "name": "execute",
      "inputs": [
        {
          "name": "mode",
          "type": "bytes32",
          "internalType": "ModeCode"
        },
        {
          "name": "executionCalldata",
          "type": "bytes",
          "internalType": "bytes"
        }
      ],
      "outputs": [],
      "stateMutability": "nonpayable"
    },
    {
      "type": "function",
      "name": "executeFromExecutor",
      "inputs": [
        {
          "name": "mode",
          "type": "bytes32",
          "internalType": "ModeCode"
        },
        {
          "name": "executionCalldata",
          "type": "bytes",
          "internalType": "bytes"
        }
      ],
      "outputs": [
        {
          "name": "returnDatas",
          "type": "bytes[]",
          "internalType": "bytes[]"
        }
      ],
      "stateMutability": "nonpayable"
    },
    {
      "type": "function",
      "name": "getActiveHook",
      "inputs": [],
      "outputs": [
        {
          "name": "hook",
          "type": "address",
          "internalType": "address"
        }
      ],
      "stateMutability": "view"
    },
    {
      "type": "function",
      "name": "getActiveHook",
      "inputs": [
        {
          "name": "selector",
          "type": "bytes4",
          "internalType": "bytes4"
        }
      ],
      "outputs": [
        {
          "name": "hook",
          "type": "address",
          "internalType": "address"
        }
      ],
      "stateMutability": "view"
    },
    {
      "type": "function",
      "name": "getExecutorsPaginated",
      "inputs": [
        {
          "name": "cursor",
          "type": "address",
          "internalType": "address"
        },
        {
          "name": "pageSize",
          "type": "uint256",
          "internalType": "uint256"
        }
      ],
      "outputs": [
        {
          "name": "array",
          "type": "address[]",
          "internalType": "address[]"
        },
        {
          "name": "next",
          "type": "address",
          "internalType": "address"
        }
      ],
      "stateMutability": "view"
    },
    {
      "type": "function",
      "name": "getNonce",
      "inputs": [
        {
          "name": "safe",
          "type": "address",
          "internalType": "address"
        },
        {
          "name": "validator",
          "type": "address",
          "internalType": "address"
        }
      ],
      "outputs": [
        {
          "name": "nonce",
          "type": "uint256",
          "internalType": "uint256"
        }
      ],
      "stateMutability": "view"
    },
    {
      "type": "function",
      "name": "getSafeOp",
      "inputs": [
        {
          "name": "userOp",
          "type": "tuple",
          "internalType": "struct PackedUserOperation",
          "components": [
            {
              "name": "sender",
              "type": "address",
              "internalType": "address"
            },
            {
              "name": "nonce",
              "type": "uint256",
              "internalType": "uint256"
            },
            {
              "name": "initCode",
              "type": "bytes",
              "internalType": "bytes"
            },
            {
              "name": "callData",
              "type": "bytes",
              "internalType": "bytes"
            },
            {
              "name": "accountGasLimits",
              "type": "bytes32",
              "internalType": "bytes32"
            },
            {
              "name": "preVerificationGas",
              "type": "uint256",
              "internalType": "uint256"
            },
            {
              "name": "gasFees",
              "type": "bytes32",
              "internalType": "bytes32"
            },
            {
              "name": "paymasterAndData",
              "type": "bytes",
              "internalType": "bytes"
            },
            {
              "name": "signature",
              "type": "bytes",
              "internalType": "bytes"
            }
          ]
        },
        {
          "name": "entryPoint",
          "type": "address",
          "internalType": "address"
        }
      ],
      "outputs": [
        {
          "name": "operationData",
          "type": "bytes",
          "internalType": "bytes"
        },
        {
          "name": "validAfter",
          "type": "uint48",
          "internalType": "uint48"
        },
        {
          "name": "validUntil",
          "type": "uint48",
          "internalType": "uint48"
        },
        {
          "name": "signatures",
          "type": "bytes",
          "internalType": "bytes"
        }
      ],
      "stateMutability": "view"
    },
    {
      "type": "function",
      "name": "getValidatorsPaginated",
      "inputs": [
        {
          "name": "cursor",
          "type": "address",
          "internalType": "address"
        },
        {
          "name": "pageSize",
          "type": "uint256",
          "internalType": "uint256"
        }
      ],
      "outputs": [
        {
          "name": "array",
          "type": "address[]",
          "internalType": "address[]"
        },
        {
          "name": "next",
          "type": "address",
          "internalType": "address"
        }
      ],
      "stateMutability": "view"
    },
    {
      "type": "function",
      "name": "initializeAccount",
      "inputs": [
        {
          "name": "validators",
          "type": "tuple[]",
          "internalType": "struct ModuleInit[]",
          "components": [
            {
              "name": "module",
              "type": "address",
              "internalType": "address"
            },
            {
              "name": "initData",
              "type": "bytes",
              "internalType": "bytes"
            }
          ]
        },
        {
          "name": "executors",
          "type": "tuple[]",
          "internalType": "struct ModuleInit[]",
          "components": [
            {
              "name": "module",
              "type": "address",
              "internalType": "address"
            },
            {
              "name": "initData",
              "type": "bytes",
              "internalType": "bytes"
            }
          ]
        },
        {
          "name": "fallbacks",
          "type": "tuple[]",
          "internalType": "struct ModuleInit[]",
          "components": [
            {
              "name": "module",
              "type": "address",
              "internalType": "address"
            },
            {
              "name": "initData",
              "type": "bytes",
              "internalType": "bytes"
            }
          ]
        },
        {
          "name": "hooks",
          "type": "tuple[]",
          "internalType": "struct ModuleInit[]",
          "components": [
            {
              "name": "module",
              "type": "address",
              "internalType": "address"
            },
            {
              "name": "initData",
              "type": "bytes",
              "internalType": "bytes"
            }
          ]
        },
        {
          "name": "registryInit",
          "type": "tuple",
          "internalType": "struct RegistryInit",
          "components": [
            {
              "name": "registry",
              "type": "address",
              "internalType": "contract IERC7484"
            },
            {
              "name": "attesters",
              "type": "address[]",
              "internalType": "address[]"
            },
            {
              "name": "threshold",
              "type": "uint8",
              "internalType": "uint8"
            }
          ]
        }
      ],
      "outputs": [],
      "stateMutability": "nonpayable"
    },
    {
      "type": "function",
      "name": "initializeAccountWithValidators",
      "inputs": [
        {
          "name": "validators",
          "type": "tuple[]",
          "internalType": "struct ModuleInit[]",
          "components": [
            {
              "name": "module",
              "type": "address",
              "internalType": "address"
            },
            {
              "name": "initData",
              "type": "bytes",
              "internalType": "bytes"
            }
          ]
        }
      ],
      "outputs": [],
      "stateMutability": "nonpayable"
    },
    {
      "type": "function",
      "name": "installModule",
      "inputs": [
        {
          "name": "moduleType",
          "type": "uint256",
          "internalType": "uint256"
        },
        {
          "name": "module",
          "type": "address",
          "internalType": "address"
        },
        {
          "name": "initData",
          "type": "bytes",
          "internalType": "bytes"
        }
      ],
      "outputs": [],
      "stateMutability": "nonpayable"
    },
    {
      "type": "function",
      "name": "isModuleInstalled",
      "inputs": [
        {
          "name": "moduleType",
          "type": "uint256",
          "internalType": "uint256"
        },
        {
          "name": "module",
          "type": "address",
          "internalType": "address"
        },
        {
          "name": "additionalContext",
          "type": "bytes",
          "internalType": "bytes"
        }
      ],
      "outputs": [
        {
          "name": "",
          "type": "bool",
          "internalType": "bool"
        }
      ],
      "stateMutability": "view"
    },
    {
      "type": "function",
      "name": "isValidSignature",
      "inputs": [
        {
          "name": "hash",
          "type": "bytes32",
          "internalType": "bytes32"
        },
        {
          "name": "data",
          "type": "bytes",
          "internalType": "bytes"
        }
      ],
      "outputs": [
        {
          "name": "magicValue",
          "type": "bytes4",
          "internalType": "bytes4"
        }
      ],
      "stateMutability": "view"
    },
    {
      "type": "function",
      "name": "setRegistry",
      "inputs": [
        {
          "name": "registry",
          "type": "address",
          "internalType": "contract IERC7484"
        },
        {
          "name": "attesters",
          "type": "address[]",
          "internalType": "address[]"
        },
        {
          "name": "threshold",
          "type": "uint8",
          "internalType": "uint8"
        }
      ],
      "outputs": [],
      "stateMutability": "nonpayable"
    },
    {
      "type": "function",
      "name": "supportsExecutionMode",
      "inputs": [
        {
          "name": "encodedMode",
          "type": "bytes32",
          "internalType": "ModeCode"
        }
      ],
      "outputs": [
        {
          "name": "supported",
          "type": "bool",
          "internalType": "bool"
        }
      ],
      "stateMutability": "pure"
    },
    {
      "type": "function",
      "name": "supportsModule",
      "inputs": [
        {
          "name": "moduleTypeId",
          "type": "uint256",
          "internalType": "uint256"
        }
      ],
      "outputs": [
        {
          "name": "",
          "type": "bool",
          "internalType": "bool"
        }
      ],
      "stateMutability": "pure"
    },
    {
      "type": "function",
      "name": "uninstallModule",
      "inputs": [
        {
          "name": "moduleType",
          "type": "uint256",
          "internalType": "uint256"
        },
        {
          "name": "module",
          "type": "address",
          "internalType": "address"
        },
        {
          "name": "deInitData",
          "type": "bytes",
          "internalType": "bytes"
        }
      ],
      "outputs": [],
      "stateMutability": "nonpayable"
    },
    {
      "type": "function",
      "name": "validateUserOp",
      "inputs": [
        {
          "name": "userOp",
          "type": "tuple",
          "internalType": "struct PackedUserOperation",
          "components": [
            {
              "name": "sender",
              "type": "address",
              "internalType": "address"
            },
            {
              "name": "nonce",
              "type": "uint256",
              "internalType": "uint256"
            },
            {
              "name": "initCode",
              "type": "bytes",
              "internalType": "bytes"
            },
            {
              "name": "callData",
              "type": "bytes",
              "internalType": "bytes"
            },
            {
              "name": "accountGasLimits",
              "type": "bytes32",
              "internalType": "bytes32"
            },
            {
              "name": "preVerificationGas",
              "type": "uint256",
              "internalType": "uint256"
            },
            {
              "name": "gasFees",
              "type": "bytes32",
              "internalType": "bytes32"
            },
            {
              "name": "paymasterAndData",
              "type": "bytes",
              "internalType": "bytes"
            },
            {
              "name": "signature",
              "type": "bytes",
              "internalType": "bytes"
            }
          ]
        },
        {
          "name": "userOpHash",
          "type": "bytes32",
          "internalType": "bytes32"
        },
        {
          "name": "missingAccountFunds",
          "type": "uint256",
          "internalType": "uint256"
        }
      ],
      "outputs": [
        {
          "name": "validSignature",
          "type": "uint256",
          "internalType": "uint256"
        }
      ],
      "stateMutability": "nonpayable"
    },
    {
      "type": "event",
      "name": "ERC7484RegistryConfigured",
      "inputs": [
        {
          "name": "smartAccount",
          "type": "address",
          "indexed": true,
          "internalType": "address"
        },
        {
          "name": "registry",
          "type": "address",
          "indexed": true,
          "internalType": "contract IERC7484"
        }
      ],
      "anonymous": false
    },
    {
      "type": "event",
      "name": "ModuleInstalled",
      "inputs": [
        {
          "name": "moduleTypeId",
          "type": "uint256",
          "indexed": false,
          "internalType": "uint256"
        },
        {
          "name": "module",
          "type": "address",
          "indexed": false,
          "internalType": "address"
        }
      ],
      "anonymous": false
    },
    {
      "type": "event",
      "name": "ModuleUninstalled",
      "inputs": [
        {
          "name": "moduleTypeId",
          "type": "uint256",
          "indexed": false,
          "internalType": "uint256"
        },
        {
          "name": "module",
          "type": "address",
          "indexed": false,
          "internalType": "address"
        }
      ],
      "anonymous": false
    },
    {
      "type": "event",
      "name": "Safe7579Initialized",
      "inputs": [
        {
          "name": "safe",
          "type": "address",
          "indexed": true,
          "internalType": "address"
        }
      ],
      "anonymous": false
    },
    {
      "type": "event",
      "name": "TryExecutionFailed",
      "inputs": [
        {
          "name": "safe",
          "type": "address",
          "indexed": false,
          "internalType": "contract ISafe"
        },
        {
          "name": "numberInBatch",
          "type": "uint256",
          "indexed": false,
          "internalType": "uint256"
        }
      ],
      "anonymous": false
    },
    {
      "type": "event",
      "name": "TryExecutionsFailed",
      "inputs": [
        {
          "name": "safe",
          "type": "address",
          "indexed": false,
          "internalType": "contract ISafe"
        },
        {
          "name": "success",
          "type": "bool[]",
          "indexed": false,
          "internalType": "bool[]"
        }
      ],
      "anonymous": false
    },
    {
      "type": "error",
      "name": "AccountAccessUnauthorized",
      "inputs": []
    },
    {
      "type": "error",
      "name": "ExecutionFailed",
      "inputs": []
    },
    {
      "type": "error",
      "name": "FallbackInstalled",
      "inputs": [
        {
          "name": "msgSig",
          "type": "bytes4",
          "internalType": "bytes4"
        }
      ]
    },
    {
      "type": "error",
      "name": "HookAlreadyInstalled",
      "inputs": [
        {
          "name": "currentHook",
          "type": "address",
          "internalType": "address"
        }
      ]
    },
    {
      "type": "error",
      "name": "InvalidCallType",
      "inputs": [
        {
          "name": "callType",
          "type": "bytes1",
          "internalType": "CallType"
        }
      ]
    },
    {
      "type": "error",
      "name": "InvalidFallbackHandler",
      "inputs": [
        {
          "name": "msgSig",
          "type": "bytes4",
          "internalType": "bytes4"
        }
      ]
    },
    {
      "type": "error",
      "name": "InvalidHookType",
      "inputs": []
    },
    {
      "type": "error",
      "name": "InvalidInitData",
      "inputs": [
        {
          "name": "safe",
          "type": "address",
          "internalType": "address"
        }
      ]
    },
    {
      "type": "error",
      "name": "InvalidInput",
      "inputs": []
    },
    {
      "type": "error",
      "name": "InvalidModule",
      "inputs": [
        {
          "name": "module",
          "type": "address",
          "internalType": "address"
        }
      ]
    },
    {
      "type": "error",
      "name": "InvalidModuleType",
      "inputs": [
        {
          "name": "module",
          "type": "address",
          "internalType": "address"
        },
        {
          "name": "moduleType",
          "type": "uint256",
          "internalType": "uint256"
        }
      ]
    },
    {
      "type": "error",
      "name": "LinkedList_AlreadyInitialized",
      "inputs": []
    },
    {
      "type": "error",
      "name": "LinkedList_EntryAlreadyInList",
      "inputs": [
        {
          "name": "entry",
          "type": "address",
          "internalType": "address"
        }
      ]
    },
    {
      "type": "error",
      "name": "LinkedList_InvalidEntry",
      "inputs": [
        {
          "name": "entry",
          "type": "address",
          "internalType": "address"
        }
      ]
    },
    {
      "type": "error",
      "name": "LinkedList_InvalidPage",
      "inputs": []
    },
    {
      "type": "error",
      "name": "NoFallbackHandler",
      "inputs": [
        {
          "name": "msgSig",
          "type": "bytes4",
          "internalType": "bytes4"
        }
      ]
    },
    {
      "type": "error",
      "name": "UnsupportedCallType",
      "inputs": [
        {
          "name": "callType",
          "type": "bytes1",
          "internalType": "CallType"
        }
      ]
    },
    {
      "type": "error",
      "name": "UnsupportedExecType",
      "inputs": [
        {
          "name": "execType",
          "type": "bytes1",
          "internalType": "ExecType"
        }
      ]
    },
    {
      "type": "error",
      "name": "UnsupportedModuleType",
      "inputs": [
        {
          "name": "moduleTypeId",
          "type": "uint256",
          "internalType": "uint256"
        }
      ]
    }
  ],
  "bytecode": {
    "object": "0x60a0604052348015600f57600080fd5b50604051601a906046565b604051809103906000f0801580156035573d6000803e3d6000fd5b506001600160a01b03166080526053565b6109e180614ee983390190565b608051614e2e6100bb600039600081816112230152818161141b0152818161157c01528181611dc501528181612216015281816122f0015281816123870152818161241e0152818161357a015281816136320152818161395a0152613a7a0152614e2e6000f3fe60806040526004361061012e5760003560e01c8063a71763a8116100ab578063d828435d1161006f578063d828435d146104a2578063e9ae5c53146104c2578063ea5f61d0146104e2578063eab77e1714610502578063f2dc691d14610522578063f698da251461054257610135565b8063a71763a8146103c7578063b0d691fe146103e7578063b875d5d81461040a578063d03c791414610455578063d691c9641461047557610135565b806355d559f4116100f257806355d559f4146102dd5780635faac46b1461030d57806379aad60e1461033b5780639517e29f1461035b5780639cfd7cff1461037b57610135565b80630a664dba146101e0578063112d3a7d146102245780631626ba7e1461025457806319822f7c1461028d578063540fb4f9146102bb57610135565b3661013557005b600036606060003560e01c63bc197c81811463f23a6e6182141763150b7a028214171561016657806020526020603cf35b50336000818152600460209081526040808320546001600160e01b031984351680855260058452828520958552949092528220546001600160a01b0391821692911690806101b48484610557565b915091506101c28888610615565b95506101d084848484610728565b5050505050915050805190602001f35b3480156101ec57600080fd5b50336000908152600460205260409020546001600160a01b03165b6040516001600160a01b0390911681526020015b60405180910390f35b34801561023057600080fd5b5061024461023f366004613d49565b6107ab565b604051901515815260200161021b565b34801561026057600080fd5b5061027461026f366004613da4565b610820565b6040516001600160e01b0319909116815260200161021b565b34801561029957600080fd5b506102ad6102a8366004613e08565b610b96565b60405190815260200161021b565b3480156102c757600080fd5b506102db6102d6366004613eab565b610caa565b005b3480156102e957600080fd5b506102fd6102f8366004613fa7565b610d5a565b60405161021b9493929190614048565b34801561031957600080fd5b5061032d610328366004614094565b610fb7565b60405161021b9291906140c0565b34801561034757600080fd5b506102db610356366004614123565b610fd3565b34801561036757600080fd5b506102db610376366004613d49565b6110c8565b34801561038757600080fd5b50604080518082018252601a81527f7268696e6573746f6e652e73616665373537392e76312e302e300000000000006020820152905161021b9190614164565b3480156103d357600080fd5b506102db6103e2366004613d49565b611293565b3480156103f357600080fd5b506f71727de22e5e9d8baf0edac6f37da032610207565b34801561041657600080fd5b5061020761042536600461418d565b6001600160e01b03191660009081526005602090815260408083203384529091529020546001600160a01b031690565b34801561046157600080fd5b506102446104703660046141aa565b6115ba565b34801561048157600080fd5b50610495610490366004613da4565b611662565b60405161021b91906141c3565b3480156104ae57600080fd5b506102ad6104bd366004614228565b61174b565b3480156104ce57600080fd5b506102db6104dd366004613da4565b6117eb565b3480156104ee57600080fd5b5061032d6104fd366004614094565b611b88565b34801561050e57600080fd5b506102db61051d366004614267565b611b99565b34801561052e57600080fd5b5061024461053d3660046141aa565b611c08565b34801561054e57600080fd5b506102ad611c57565b6060806001600160a01b038416156105d7576105be33856000610578611cb0565b3460003660405160240161058f94939291906142f6565b60408051601f198184030181529190526020810180516001600160e01b031663d68f602560e01b179052611cbc565b9150818060200190518101906105d491906143df565b91505b6001600160a01b0383161561060e576105f533846000610578611cb0565b90508080602001905181019061060b91906143df565b90505b9250929050565b600080356001600160e01b031916815260036020908152604080832033845290915290208054606091906001600160a01b03811690600160a01b900460f81b8161068557604051632464e76d60e11b81526001600160e01b03196000351660048201526024015b60405180910390fd5b61069381607f60f91b611d65565b156106d7576106cd338388886106a7611cb0565b6040516020016106b993929190614413565b604051602081830303815290604052611d77565b9350505050610722565b6106e2816000611d65565b1561071e576106cd3383600089896106f8611cb0565b60405160200161070a93929190614413565b604051602081830303815290604052611cbc565b5050505b92915050565b6001600160a01b0384161561077e5761077e338560008560405160240161074f9190614164565b60408051601f198184030181529190526020810180516001600160e01b0316630b9dfbed60e11b179052611e4c565b6001600160a01b038316156107a5576107a5338460008460405160240161074f9190614164565b50505050565b6000600185036107dd57336001600160a01b038516036107cd57506001610818565b6107d684611eeb565b9050610818565b600285036107ee576107d684611ef9565b60038503610801576107d6848484611f07565b60048503610814576107d6848484611f53565b5060005b949350505050565b6000338282036109ba5760006108f1826001600160a01b031663f698da256040518163ffffffff1660e01b8152600401602060405180830381865afa15801561086d573d6000803e3d6000fd5b505050506040513d601f19601f820116820180604052508101906108919190614439565b60408051602081018a90527f60b3cbf8b4a223d68d641b3b6ddf9a298e7f33710cf3d3a9d1146b5a6150fbca91015b60408051601f1981840301815282825280516020918201209083015201604051602081830303815290604052611f8e565b8051602090910120604051635ae6bd3760e01b8152600481018290529091506001600160a01b03831690635ae6bd3790602401602060405180830381865afa158015610941573d6000803e3d6000fd5b505050506040513d601f19601f820116820180604052508101906109659190614439565b6000036109a85760405162461bcd60e51b815260206004820152601160248201527012185cda081b9bdd08185c1c1c9bdd9959607a1b604482015260640161067c565b50630b135d3f60e11b9150610b8f9050565b60006109c96014828688614452565b6109d29161447c565b60601c90508015806109ea57506109e881611eeb565b155b15610b14576000610a89836001600160a01b031663f698da256040518163ffffffff1660e01b8152600401602060405180830381865afa158015610a32573d6000803e3d6000fd5b505050506040513d601f19601f82011682018060405250810190610a569190614439565b60408051602081018b90527f60b3cbf8b4a223d68d641b3b6ddf9a298e7f33710cf3d3a9d1146b5a6150fbca91016108c0565b805160208201209091506001600160a01b03841663934f3a118284610ab18a6014818e614452565b6040518563ffffffff1660e01b8152600401610ad094939291906144c9565b60006040518083038186803b158015610ae857600080fd5b505afa158015610afc573d6000803e3d6000fd5b50630b135d3f60e11b9750610b8f9650505050505050565b6000610b733383610b23611cb0565b8a610b318a6014818e614452565b604051602401610b4494939291906142f6565b60408051601f198184030181529190526020810180516001600160e01b0316637aa8f17760e11b179052611d77565b905080806020019051810190610b8991906144f5565b93505050505b9392505050565b60006f71727de22e5e9d8baf0edac6f37da032610bb1611cb0565b6001600160a01b031614610bd857604051635629665f60e11b815260040160405180910390fd5b6020840135606081901c90811580610bf65750610bf482611eeb565b155b15610c0b57610c0486612008565b9250610c70565b6000610c56338460008a8a604051602401610c27929190614557565b60408051601f198184030181529190526020810180516001600160e01b0316639700320360e01b179052611cbc565b905080806020019051810190610c6c9190614439565b9350505b8315610ca157610ca1336f71727de22e5e9d8baf0edac6f37da0328660405180602001604052806000815250611e4c565b50509392505050565b6f71727de22e5e9d8baf0edac6f37da032610cc3611cb0565b6001600160a01b03161480610cf05750610cdb611cb0565b6001600160a01b0316336001600160a01b0316145b610d0d57604051635629665f60e11b815260040160405180910390fd5b610d3f610d1d602083018361465b565b610d2a6020840184614678565b610d3a60608601604087016146c1565b6120b7565b610d4f898989898989898961216e565b505050505050505050565b6060600080823682610d706101008901896146dc565b9092509050610d83600660008385614452565b610d8c91614722565b60d01c9450610d9f600c60068385614452565b610da891614722565b60d01c9350610dba81600c8185614452565b8080601f0160208091040260200160405190810160405280939291908181526020018383808284376000920182905250604080516101c081019091527fc03dfc11d8b10bf9cf703d558958c8c42777f785d998c62060d85a4f0ef6ea7f815294975095509293505060208084019250610e3691508a018a61465b565b6001600160a01b0316815260200188602001358152602001888060400190610e5e91906146dc565b604051610e6c929190614758565b6040519081900390208152602001610e8760608a018a6146dc565b604051610e95929190614758565b60405180910390208152602001610eab8961248d565b6001600160801b03168152602001610ec28961249d565b6001600160801b031681526020018860a001358152602001610ee3896124b2565b6001600160801b03168152602001610efa896124c1565b6001600160801b03168152602001610f1560e08a018a6146dc565b604051610f23929190614758565b6040805191829003909120825265ffffffffffff80881660208401528616908201526001600160a01b0388166060909101526101c08120909150601960f81b600160f81b610f6f611c57565b6040516001600160f81b031993841660208201529290911660218301526022820152604281018290526062016040516020818303038152906040529550505092959194509250565b60606000610fc860013386866124d6565b915091509250929050565b6f71727de22e5e9d8baf0edac6f37da032610fec611cb0565b6001600160a01b031614806110195750611004611cb0565b6001600160a01b0316336001600160a01b0316145b61103657604051635629665f60e11b815260040160405180910390fd5b61104160013361269a565b8060005b81811015611097573684848381811061106057611060614768565b9050602002810190611072919061477e565b905061108e33611085602084018461465b565b60019190612715565b50600101611045565b5060405133907ff48581d8a62b775b74f2fb67f1d5806a9a356fbcc598040ab3071d3e37af40c290600090a2505050565b336000908152600460209081526040808320547fd00bcad91b775f25eb0aee15808d12dfdaa6dc5a7d6b754e26f9c205d2a3b8df909252822054639517e29f60e01b926001600160a01b039283169290911690806111268484610557565b915091506111416f71727de22e5e9d8baf0edac6f37da03290565b6001600160a01b0316611152611cb0565b6001600160a01b0316148061117f575061116a611cb0565b6001600160a01b0316336001600160a01b0316145b61119c57604051635629665f60e11b815260040160405180910390fd5b606060018a036111b8576111b189898961280a565b905061121d565b60028a036111cb576111b1898989612866565b60038a036111de576111b1898989612881565b60048a036111f1576111b1898989612a00565b89611201576111b1898989612ba0565b60405163041c38b360e41b8152600481018b905260240161067c565b611286337f00000000000000000000000000000000000000000000000000000000000000008c8c856040516024016112579392919061479e565b60408051601f198184030181529190526020810180516001600160e01b0316639517e29f60e01b179052612d51565b50610d4f84848484610728565b336000908152600460209081526040808320547fc45a7acaba78a7b4c4432b604d301355b314c0a7811768a1ee2563c9d34ca4e09092529091205484916314e2ec7560e31b916001600160a01b0391821691908116908416821480159061130c5750806001600160a01b0316846001600160a01b031614155b156114925760008061131e8484610557565b915091506113396f71727de22e5e9d8baf0edac6f37da03290565b6001600160a01b031661134a611cb0565b6001600160a01b031614806113775750611362611cb0565b6001600160a01b0316336001600160a01b0316145b61139457604051635629665f60e11b815260040160405180910390fd5b606060018b036113b0576113a98a8a8a612dea565b9050611415565b60028b036113c3576113a98a8a8a612e13565b60038b036113d6576113a98a8a8a612e34565b60048b036113e9576113a98a8a8a612e80565b8a6113f9576113a98a8a8a612f38565b60405163041c38b360e41b8152600481018c905260240161067c565b61147e337f00000000000000000000000000000000000000000000000000000000000000008d8d8560405160240161144f9392919061479e565b60408051601f198184030181529190526020810180516001600160e01b0316637827252560e01b17905261308b565b5061148b84848484610728565b50506115b0565b6f71727de22e5e9d8baf0edac6f37da0326114ab611cb0565b6001600160a01b031614806114d857506114c3611cb0565b6001600160a01b0316336001600160a01b0316145b6114f557604051635629665f60e11b815260040160405180910390fd5b6060600189036115115761150a888888612dea565b9050611576565b600289036115245761150a888888612e13565b600389036115375761150a888888612e34565b6004890361154a5761150a888888612e80565b8861155a5761150a888888612f38565b60405163041c38b360e41b8152600481018a905260240161067c565b610d4f337f00000000000000000000000000000000000000000000000000000000000000008b8b8560405160240161144f9392919061479e565b5050505050505050565b600081600881901b6115d082600160f81b611d65565b156115de5760019250611621565b6115e9826000611d65565b156115f75760019250611621565b611609826001600160f81b0319611d65565b156116175760019250611621565b5060009392505050565b8280156116345750611634816000611d65565b15611640575050919050565b828015611656575061165681600160f81b611d65565b15611617575050919050565b606061167461166f611cb0565b611ef9565b6116a557611680611cb0565b604051635c93ff2f60e11b81526001600160a01b03909116600482015260240161067c565b336000908152600460209081526040808320547f4162c930ade27880570b0eb31efbc8a626b97e81a40ced27163509dfe16398829092528220546335a4725960e21b926001600160a01b039283169290911690806117038484610557565b9150915061170f611cb0565b600261171b8282613141565b8a600881901b61172d81838e8e6131cc565b99505050505061173f84848484610728565b50505050509392505050565b6000602082901b640100000000600160c01b03166f71727de22e5e9d8baf0edac6f37da032604051631aab3f0d60e11b81526001600160a01b0386811660048301526001600160c01b038416602483015291909116906335567e1a90604401602060405180830381865afa1580156117c7573d6000803e3d6000fd5b505050506040513d601f19601f820116820180604052508101906108189190614439565b336000908152600460209081526040808320547fccfe1b2bef70acd8e661aeb5430e147f4c75cb320972acba718a28da428e1a3090925282205463e9ae5c5360e01b926001600160a01b039283169290911690806118498484610557565b915091506118646f71727de22e5e9d8baf0edac6f37da03290565b6001600160a01b0316611875611cb0565b6001600160a01b031614806118a2575061188d611cb0565b6001600160a01b0316336001600160a01b0316145b6118bf57604051635629665f60e11b815260040160405180910390fd5b87600881901b336118d1826000611d65565b15611a2a576118e483600160f81b611d65565b156119055789358a016020810190356118fe838383613574565b5050611b79565b611910836000611d65565b15611978576000803660006119258e8e6135db565b935093509350935061196f85858585858080601f016020809104026020016040519081016040528093929190818152602001838380828437600092019190915250611e4c92505050565b50505050611b79565b61198a836001600160f81b0319611d65565b15611a0f57600061199e6014828c8e614452565b6119a79161447c565b60601c90503660008c8c60149080926119c293929190614452565b91509150611a07848484848080601f016020809104026020016040519081016040528093929190818152602001838380828437600092019190915250612d5192505050565b505050611b79565b82604051632e5bf3f960e21b815260040161067c91906147d1565b611a3882600160f81b611d65565b15611b5e57611a4b83600160f81b611d65565b15611a655789358a016020810190356118fe83838361362c565b611a70836000611d65565b15611acf57600080366000611a858e8e6135db565b935093509350935061196f85858585858080601f01602080910402602001604051908101604052809392919081815260200183838082843760009201919091525061369392505050565b611ae1836001600160f81b0319611d65565b15611a0f576000611af56014828c8e614452565b611afe9161447c565b60601c90503660008c8c6014908092611b1993929190614452565b91509150611a07848484848080601f01602080910402602001604051908101604052809392919081815260200183838082843760009201919091525061308b92505050565b816040516308c3ee0360e11b815260040161067c91906147d1565b5050506115b084848484610728565b60606000610fc860023386866124d6565b6f71727de22e5e9d8baf0edac6f37da032611bb2611cb0565b6001600160a01b03161480611bdf5750611bca611cb0565b6001600160a01b0316336001600160a01b0316145b611bfc57604051635629665f60e11b815260040160405180910390fd5b6107a5848484846120b7565b600060018203611c1a57506001919050565b60028203611c2a57506001919050565b60038203611c3a57506001919050565b60048203611c4a57506001919050565b506000919050565b919050565b604080517f47e79534a245952e8b16893a336b85a3d9ea9fa8c573f3d803afb92a794692186020820152469181019190915230606082015260009060800160405160208183030381529060405280519060200120905090565b60131936013560601c90565b60606000856001600160a01b0316635229073f86868660006040518563ffffffff1660e01b8152600401611cf3949392919061481e565b6000604051808303816000875af1158015611d12573d6000803e3d6000fd5b505050506040513d6000823e601f3d908101601f19168201604052611d3a9190810190614864565b9250905080611d5c57604051632b3f6d1160e21b815260040160405180910390fd5b50949350505050565b6001600160f81b031990811691161490565b606060008383604051602401611d8e9291906148b1565b60408051601f198184030181529181526020820180516001600160e01b0316636a22165760e01b17905251909150600090611def907f00000000000000000000000000000000000000000000000000000000000000009084906024016148b1565b60408051601f19818403018152919052602080820180516001600160e01b031663b4faba0960e01b17815282519293509091600091895afa5060203d036040519350808401604052806020853e50600051610ca157825160208401fd5b60405163468721a760e01b81526000906001600160a01b0386169063468721a790611e8190879087908790879060040161481e565b6020604051808303816000875af1158015611ea0573d6000803e3d6000fd5b505050506040513d601f19601f82011682018060405250810190611ec491906148d5565b905080611ee457604051632b3f6d1160e21b815260040160405180910390fd5b5050505050565b600061072260013384613749565b600061072260023384613749565b600080611f168385018561418d565b6001600160e01b03191660009081526003602090815260408083203384529091529020546001600160a01b03908116908616149150509392505050565b60008080611f63848601866148ff565b915091506000611f73838361378d565b6001600160a01b039081169088161493505050509392505050565b6060601960f81b600160f81b858585604051602001611fae92919061492b565b60408051808303601f190181529082905280516020918201206001600160f81b0319958616918301919091529290931660218401526022830152604282015260620160405160208183030381529060405290509392505050565b600080808080612028866f71727de22e5e9d8baf0edac6f37da032610d5a565b8351602085012060405163934f3a1160e01b81529498509296509094509250339163934f3a119161205f9188908690600401614951565b60006040518083038186803b15801561207757600080fd5b505afa925050508015612088575060015b61209f5761209860018385613823565b94506120ae565b6120ab60008385613823565b94505b50505050919050565b33600090815260208190526040902080546001600160a01b0319166001600160a01b0386169081179091551561213257612132338560008487876040516024016121039392919061497c565b60408051601f198184030181529190526020810180516001600160e01b031663f05c04e160e01b179052611e4c565b6040516001600160a01b0385169033907f9452c8fb077c3ea8f28a77c87488af657b1e44d010ad9a5992d73870da040e9490600090a350505050565b3360009081527fcc69885fda6bcc1a4ace058b4a62bf5e179ea78fd58a1ccd71c22cc9b688792f602052604090205460609088906001600160a01b0316612266576121ba60013361269a565b60005b8181101561226057368b8b838181106121d8576121d8614768565b90506020028101906121ea919061477e565b905061220e6121fc602083018361465b565b61220960208401846146dc565b61280a565b9350612257337f00000000000000000000000000000000000000000000000000000000000000006001612244602086018661465b565b886040516024016112579392919061479e565b506001016121bd565b50612287565b80156122875760405163d8e3ed1b60e01b815233600482015260240161067c565b61229260023361269a565b508560005b8181101561232757368989838181106122b2576122b2614768565b90506020028101906122c4919061477e565b90506122e86122d6602083018361465b565b6122e360208401846146dc565b612866565b935061231e337f00000000000000000000000000000000000000000000000000000000000000006002612244602086018661465b565b50600101612297565b5084905060005b818110156123be573687878381811061234957612349614768565b905060200281019061235b919061477e565b905061237f61236d602083018361465b565b61237a60208401846146dc565b612881565b93506123b5337f00000000000000000000000000000000000000000000000000000000000000006003612244602086018661465b565b5060010161232e565b5082905060005b8181101561245557368585838181106123e0576123e0614768565b90506020028101906123f2919061477e565b9050612416612404602083018361465b565b61241160208401846146dc565b612a00565b935061244c337f00000000000000000000000000000000000000000000000000000000000000006004612244602086018661465b565b506001016123c5565b5060405133907ff48581d8a62b775b74f2fb67f1d5806a9a356fbcc598040ab3071d3e37af40c290600090a250505050505050505050565b6000610722826080013560801c90565b60006001600160801b03608083013516610722565b600060c082013560801c610722565b60006001600160801b0360c083013516610722565b606060006001600160a01b0384166001148015906124fc57506124fa868686613749565b155b1561252557604051637c84ecfb60e01b81526001600160a01b038516600482015260240161067c565b826000036125465760405163f725081760e01b815260040160405180910390fd5b826001600160401b0381111561255e5761255e614328565b604051908082528060200260200182016040528015612587578160200160208202803683370190505b506001600160a01b038086166000908152602089815260408083208a85168452909152812054929450911691505b6001600160a01b038216158015906125d757506001600160a01b038216600114155b80156125e257508381105b1561264757818382815181106125fa576125fa614768565b6001600160a01b039283166020918202929092018101919091529281166000908152888452604080822089841683529094529290922054909116908061263f816149ea565b9150506125b5565b6001600160a01b0382166001148015906126615750600081115b1561268d5782612672600183614a03565b8151811061268257612682614768565b602002602001015191505b8083525094509492505050565b60016000908152602083815260408083206001600160a01b03808616855292529091205416156126dd576040516329e42f3360e11b815260040160405180910390fd5b60016000818152602093845260408082206001600160a01b0394909416825292909352912080546001600160a01b0319169091179055565b6001600160a01b038116158061273457506001600160a01b0381166001145b1561275d57604051637c84ecfb60e01b81526001600160a01b038216600482015260240161067c565b6001600160a01b03818116600090815260208581526040808320868516845290915290205416156127ac57604051631034f46960e21b81526001600160a01b038216600482015260240161067c565b60016000908152602084815260408083206001600160a01b039586168085528184528285208054968816808752988552838620918652908452919093208054949095166001600160a01b031994851617909455528154169091179055565b60608360016128198282613141565b61282560013388612715565b84848080601f016020809104026020016040519081016040528093929190818152602001838380828437600092019190915250929998505050505050505050565b60608360026128758282613141565b61282560023388612715565b60608360036128908282613141565b600080806128a087890189614a67565b919450925090506001600160e01b031983166306d61fe760e41b14806128d657506001600160e01b03198316638a91b0e360e01b145b15612900576040516379bd117b60e01b81526001600160e01b03198416600482015260240161067c565b61290b826000611d65565b8015612920575061292082607f60f91b611d65565b1561294057816040516376087dc160e01b815260040161067c91906147d1565b6001600160e01b0319831660009081526003602090815260408083203384529091529020546001600160a01b031615612998576040516374420d1560e01b81526001600160e01b03198416600482015260240161067c565b6001600160e01b03199092166000908152600360209081526040808320338452909152902080546001600160a01b038a166001600160a01b031960f89490941c600160a01b02939093166001600160a81b031990911617919091179055925050509392505050565b6060836004612a0f8282613141565b60008080612a1f87890189614ad5565b91945092509050600080846001811115612a3b57612a3b6147e6565b148015612a5057506001600160e01b03198316155b15612ac65750336000908152600460205260409020546001600160a01b03168015612a995760405163741cbe0360e01b81526001600160a01b038216600482015260240161067c565b33600090815260046020526040902080546001600160a01b0319166001600160a01b038c16179055612b93565b6001846001811115612ada57612ada6147e6565b03612b7a57506001600160e01b0319821660009081526005602090815260408083203384529091529020546001600160a01b03168015612b385760405163741cbe0360e01b81526001600160a01b038216600482015260240161067c565b6001600160e01b031983166000908152600560209081526040808320338452909152902080546001600160a01b0319166001600160a01b038c16179055612b93565b604051635691922f60e01b815260040160405180910390fd5b5098975050505050505050565b60608235830160208181019135908581013586018082019190359060408801358801908101903584838114612be85760405163b4fa3fb360e01b815260040160405180910390fd5b60005b81811015612d0a576000888883818110612c0757612c07614768565b90506020020135905060018103612c4657612c408d888885818110612c2e57612c2e614768565b905060200281019061220991906146dc565b50612d01565b60028103612c7657612c408d888885818110612c6457612c64614768565b90506020028101906122e391906146dc565b60038103612ca657612c408d888885818110612c9457612c94614768565b905060200281019061237a91906146dc565b60048103612cd657612c408d888885818110612cc457612cc4614768565b905060200281019061241191906146dc565b60405163484d218160e01b81526001600160a01b038e1660048201526024810182905260440161067c565b50600101612beb565b5082828080601f016020809104026020016040519081016040528093929190818152602001838380828437600092019190915250929e9d5050505050505050505050505050565b60405163468721a760e01b81526000906001600160a01b0385169063468721a790612d879086908590879060019060040161481e565b6020604051808303816000875af1158015612da6573d6000803e3d6000fd5b505050506040513d601f19601f82011682018060405250810190612dca91906148d5565b9050806107a557604051632b3f6d1160e21b815260040160405180910390fd5b60606000612dfa83850185614b03565b92509050612e0b600133838861385b565b509392505050565b60606000612e2383850185614b03565b92509050612e0b600233838861385b565b60606000612e4483850185614b48565b6001600160e01b03199091166000908152600360209081526040808320338452909152902080546001600160a01b031916905595945050505050565b6060600080612e9184860186614ad5565b945090925090506000826001811115612eac57612eac6147e6565b148015612ec157506001600160e01b03198116155b15612ee85733600090815260046020526040902080546001600160a01b0319169055610ca1565b6001826001811115612efc57612efc6147e6565b03612b7a576001600160e01b031981166000908152600560209081526040808320338452909152902080546001600160a01b0319169055610ca1565b60608235830160208181019135908581013586018082019190359060408801358801908101903584838114612f805760405163b4fa3fb360e01b815260040160405180910390fd5b60005b81811015612d0a576000888883818110612f9f57612f9f614768565b90506020020135905060018103612fe357612fdd8d888885818110612fc657612fc6614768565b9050602002810190612fd891906146dc565b612dea565b50613082565b6002810361301857612fdd8d88888581811061300157613001614768565b905060200281019061301391906146dc565b612e13565b6003810361304d57612fdd8d88888581811061303657613036614768565b905060200281019061304891906146dc565b612e34565b60048103612cd657612fdd8d88888581811061306b5761306b614768565b905060200281019061307d91906146dc565b612e80565b50600101612f83565b60405163468721a760e01b81526000906001600160a01b0385169063468721a7906130c19086908590879060019060040161481e565b6020604051808303816000875af11580156130e0573d6000803e3d6000fd5b505050506040513d601f19601f8201168201806040525081019061310491906148d5565b9050806107a557604080516001600160a01b038616815260006020820152600080516020614dd9833981519152910160405180910390a150505050565b336000908152602081905260409020546001600160a01b031680156131c75760405163529562a160e01b81523360048201526001600160a01b0384811660248301526044820184905282169063529562a19060640160006040518083038186803b1580156131ae57600080fd5b505afa1580156131c2573d6000803e3d6000fd5b505050505b505050565b60606131d9856000611d65565b156133c5576131ec84600160f81b611d65565b1561320f5782358301602081019035613206338383613952565b92505050610818565b61321a846000611d65565b156132ce5760008036600061322f87876135db565b6040805160018082528183019092529498509296509094509250816020015b606081526020019060019003908161324e5790505094506132a733858585858080601f016020809104026020016040519081016040528093929190818152602001838380828437600092019190915250611cbc92505050565b856000815181106132ba576132ba614768565b602002602001018190525050505050610818565b6132e0846001600160f81b0319611d65565b156133aa5760006132f46014828587614452565b6132fd9161447c565b60601c90503660006133128560148189614452565b604080516001808252818301909252929450909250816020015b606081526020019060019003908161332c579050509350613384338484848080601f0160208091040260200160405190810160405280939291908181526020018383808284376000920191909152506139ce92505050565b8460008151811061339757613397614768565b6020026020010181905250505050610818565b83604051632e5bf3f960e21b815260040161067c91906147d1565b6133d385600160f81b611d65565b15613559576133e684600160f81b611d65565b1561340b5782358301602081019035613400338383613a6f565b935061081892505050565b613416846000611d65565b156134a35760008036600061342b87876135db565b6040805160018082528183019092529498509296509094509250816020015b606081526020019060019003908161344a5790505094506132a733858585858080601f016020809104026020016040519081016040528093929190818152602001838380828437600092019190915250613b6592505050565b6134b5846001600160f81b0319611d65565b156133aa5760006134c96014828587614452565b6134d29161447c565b60601c90503660006134e78560148189614452565b604080516001808252818301909252929450909250816020015b6060815260200190600190039081613501579050509350613384338484848080601f016020809104026020016040519081016040528093929190818152602001838380828437600092019190915250613c2592505050565b846040516308c3ee0360e11b815260040161067c91906147d1565b6131c7837f000000000000000000000000000000000000000000000000000000000000000084846040516024016135ac929190614b66565b60408051601f198184030181529190526020810180516001600160e01b0316633f707e6b60e01b179052612d51565b60008036816135ed6014828789614452565b6135f69161447c565b60601c9350613609603460148789614452565b61361291614c18565b92506136218560348189614452565b949793965094505050565b6131c7837f00000000000000000000000000000000000000000000000000000000000000008484604051602401613664929190614b66565b60408051601f198184030181529190526020810180516001600160e01b0316632864481160e11b17905261308b565b60405163468721a760e01b81526000906001600160a01b0386169063468721a7906136c890879087908790879060040161481e565b6020604051808303816000875af11580156136e7573d6000803e3d6000fd5b505050506040513d601f19601f8201168201806040525081019061370b91906148d5565b905080611ee457604080516001600160a01b038716815260006020820152600080516020614dd9833981519152910160405180910390a15050505050565b600060016001600160a01b038316148015906108185750506001600160a01b0390811660009081526020938452604080822093831682529290935291205416151590565b6000808360018111156137a2576137a26147e6565b1480156137b757506001600160e01b03198216155b156137d75750336000908152600460205260409020546001600160a01b03165b60018360018111156137eb576137eb6147e6565b0361072257506001600160e01b03191660009081526005602090815260408083203384529091529020546001600160a01b0316919050565b600060d08265ffffffffffff16901b60a08465ffffffffffff16901b8561384b57600061384e565b60015b60ff161717949350505050565b6001600160a01b038116158061387a57506001600160a01b0381166001145b156138a357604051637c84ecfb60e01b81526001600160a01b038316600482015260240161067c565b6001600160a01b0382811660009081526020868152604080832087851684529091529020548116908216146138f657604051637c84ecfb60e01b81526001600160a01b038216600482015260240161067c565b6001600160a01b039081166000908152602085815260408083209584168084528683528184208054968616855297835281842090845282529091208054939092166001600160a01b031993841617909155919091528154169055565b60606139bb847f0000000000000000000000000000000000000000000000000000000000000000858560405160240161398c929190614b66565b60408051601f198184030181529190526020810180516001600160e01b0316636108557360e01b1790526139ce565b8060200190518101906108189190614ce5565b60606000846001600160a01b0316635229073f8560008660016040518563ffffffff1660e01b8152600401613a06949392919061481e565b6000604051808303816000875af1158015613a25573d6000803e3d6000fd5b505050506040513d6000823e601f3d908101601f19168201604052613a4d9190810190614864565b9250905080612e0b57604051632b3f6d1160e21b815260040160405180910390fd5b6060806000613adb867f00000000000000000000000000000000000000000000000000000000000000008787604051602401613aac929190614b66565b60408051601f198184030181529190526020810180516001600160e01b0316639abb6e1760e01b179052613c25565b905080806020019051810190613af19190614d19565b8151919450925060005b81811015613b5a57848181518110613b1557613b15614768565b6020026020010151613b5257604080516001600160a01b038a16815260208101839052600080516020614dd9833981519152910160405180910390a15b600101613afb565b505050935093915050565b60606000856001600160a01b0316635229073f86868660006040518563ffffffff1660e01b8152600401613b9c949392919061481e565b6000604051808303816000875af1158015613bbb573d6000803e3d6000fd5b505050506040513d6000823e601f3d908101601f19168201604052613be39190810190614864565b9250905080611d5c57604080516001600160a01b038816815260006020820152600080516020614dd9833981519152910160405180910390a150949350505050565b60606000846001600160a01b0316635229073f8560008660016040518563ffffffff1660e01b8152600401613c5d949392919061481e565b6000604051808303816000875af1158015613c7c573d6000803e3d6000fd5b505050506040513d6000823e601f3d908101601f19168201604052613ca49190810190614864565b9250905080612e0b57604080516001600160a01b038716815260006020820152600080516020614dd9833981519152910160405180910390a1509392505050565b6001600160a01b0381168114613cfa57600080fd5b50565b8035611c5281613ce5565b60008083601f840112613d1a57600080fd5b5081356001600160401b03811115613d3157600080fd5b60208301915083602082850101111561060e57600080fd5b60008060008060608587031215613d5f57600080fd5b843593506020850135613d7181613ce5565b925060408501356001600160401b03811115613d8c57600080fd5b613d9887828801613d08565b95989497509550505050565b600080600060408486031215613db957600080fd5b8335925060208401356001600160401b03811115613dd657600080fd5b613de286828701613d08565b9497909650939450505050565b60006101208284031215613e0257600080fd5b50919050565b600080600060608486031215613e1d57600080fd5b83356001600160401b03811115613e3357600080fd5b613e3f86828701613def565b9660208601359650604090950135949350505050565b60008083601f840112613e6757600080fd5b5081356001600160401b03811115613e7e57600080fd5b6020830191508360208260051b850101111561060e57600080fd5b600060608284031215613e0257600080fd5b600080600080600080600080600060a08a8c031215613ec957600080fd5b89356001600160401b03811115613edf57600080fd5b613eeb8c828d01613e55565b909a5098505060208a01356001600160401b03811115613f0a57600080fd5b613f168c828d01613e55565b90985096505060408a01356001600160401b03811115613f3557600080fd5b613f418c828d01613e55565b90965094505060608a01356001600160401b03811115613f6057600080fd5b613f6c8c828d01613e55565b90945092505060808a01356001600160401b03811115613f8b57600080fd5b613f978c828d01613e99565b9150509295985092959850929598565b60008060408385031215613fba57600080fd5b82356001600160401b03811115613fd057600080fd5b613fdc85828601613def565b9250506020830135613fed81613ce5565b809150509250929050565b60005b83811015614013578181015183820152602001613ffb565b50506000910152565b60008151808452614034816020860160208601613ff8565b601f01601f19169290920160200192915050565b60808152600061405b608083018761401c565b65ffffffffffff8616602084015265ffffffffffff851660408401528281036060840152614089818561401c565b979650505050505050565b600080604083850312156140a757600080fd5b82356140b281613ce5565b946020939093013593505050565b6040808252835190820181905260009060208501906060840190835b818110156141035783516001600160a01b03168352602093840193909201916001016140dc565b50506001600160a01b039490941660209390930192909252509092915050565b6000806020838503121561413657600080fd5b82356001600160401b0381111561414c57600080fd5b61415885828601613e55565b90969095509350505050565b602081526000610b8f602083018461401c565b6001600160e01b031981168114613cfa57600080fd5b60006020828403121561419f57600080fd5b8135610b8f81614177565b6000602082840312156141bc57600080fd5b5035919050565b6000602082016020835280845180835260408501915060408160051b86010192506020860160005b8281101561421c57603f1987860301845261420785835161401c565b945060209384019391909101906001016141eb565b50929695505050505050565b6000806040838503121561423b57600080fd5b823561424681613ce5565b91506020830135613fed81613ce5565b803560ff81168114611c5257600080fd5b6000806000806060858703121561427d57600080fd5b843561428881613ce5565b935060208501356001600160401b038111156142a357600080fd5b6142af87828801613e55565b90945092506142c2905060408601614256565b905092959194509250565b81835281816020850137506000828201602090810191909152601f909101601f19169091010190565b60018060a01b038516815283602082015260606040820152600061431e6060830184866142cd565b9695505050505050565b634e487b7160e01b600052604160045260246000fd5b604051601f8201601f191681016001600160401b038111828210171561436657614366614328565b604052919050565b60006001600160401b0382111561438757614387614328565b50601f01601f191660200190565b600082601f8301126143a657600080fd5b81516143b96143b48261436e565b61433e565b8181528460208386010111156143ce57600080fd5b610818826020830160208701613ff8565b6000602082840312156143f157600080fd5b81516001600160401b0381111561440757600080fd5b61081884828501614395565b8284823760609190911b6bffffffffffffffffffffffff19169101908152601401919050565b60006020828403121561444b57600080fd5b5051919050565b6000808585111561446257600080fd5b8386111561446f57600080fd5b5050820193919092039150565b80356bffffffffffffffffffffffff1981169060148410156144c2576bffffffffffffffffffffffff196bffffffffffffffffffffffff198560140360031b1b82161691505b5092915050565b8481526060602082015260006144e2606083018661401c565b82810360408401526140898185876142cd565b60006020828403121561450757600080fd5b8151610b8f81614177565b6000808335601e1984360301811261452957600080fd5b83016020810192503590506001600160401b0381111561454857600080fd5b80360382131561060e57600080fd5b604081526145786040820161456b85613cfd565b6001600160a01b03169052565b6020830135606082015260006145916040850185614512565b61012060808501526145a8610160850182846142cd565b9150506145b86060860186614512565b848303603f190160a08601526145cf8382846142cd565b608088013560c08781019190915260a089013560e0808901919091529089013561010088015290935061460792508701905086614512565b848303603f190161012086015261461f8382846142cd565b92505050614631610100860186614512565b848303603f19016101408601526146498382846142cd565b93505050508260208301529392505050565b60006020828403121561466d57600080fd5b8135610b8f81613ce5565b6000808335601e1984360301811261468f57600080fd5b8301803591506001600160401b038211156146a957600080fd5b6020019150600581901b360382131561060e57600080fd5b6000602082840312156146d357600080fd5b610b8f82614256565b6000808335601e198436030181126146f357600080fd5b8301803591506001600160401b0382111561470d57600080fd5b60200191503681900382131561060e57600080fd5b80356001600160d01b031981169060068410156144c2576001600160d01b031960069490940360031b84901b1690921692915050565b8183823760009101908152919050565b634e487b7160e01b600052603260045260246000fd5b60008235603e1983360301811261479457600080fd5b9190910192915050565b8381526001600160a01b03831660208201526060604082018190526000906147c89083018461401c565b95945050505050565b6001600160f81b031991909116815260200190565b634e487b7160e01b600052602160045260246000fd5b6002811061481a57634e487b7160e01b600052602160045260246000fd5b9052565b60018060a01b0385168152836020820152608060408201526000614845608083018561401c565b90506147c860608301846147fc565b80518015158114611c5257600080fd5b6000806040838503121561487757600080fd5b61488083614854565b915060208301516001600160401b0381111561489b57600080fd5b6148a785828601614395565b9150509250929050565b6001600160a01b03831681526040602082018190526000906108189083018461401c565b6000602082840312156148e757600080fd5b610b8f82614854565b803560028110611c5257600080fd5b6000806040838503121561491257600080fd5b61491b836148f0565b91506020830135613fed81614177565b82815260008251614943816020850160208701613ff8565b919091016020019392505050565b83815260606020820152600061496a606083018561401c565b828103604084015261431e818561401c565b60ff84168152604060208201819052810182905260008360608301825b858110156149c95782356149ac81613ce5565b6001600160a01b0316825260209283019290910190600101614999565b509695505050505050565b634e487b7160e01b600052601160045260246000fd5b6000600182016149fc576149fc6149d4565b5060010190565b81810381811115610722576107226149d4565b600082601f830112614a2757600080fd5b8135614a356143b48261436e565b818152846020838601011115614a4a57600080fd5b816020850160208301376000918101602001919091529392505050565b600080600060608486031215614a7c57600080fd5b8335614a8781614177565b925060208401356001600160f81b031981168114614aa457600080fd5b915060408401356001600160401b03811115614abf57600080fd5b614acb86828701614a16565b9150509250925092565b600080600060608486031215614aea57600080fd5b614af3846148f0565b92506020840135614aa481614177565b60008060408385031215614b1657600080fd5b8235614b2181613ce5565b915060208301356001600160401b03811115614b3c57600080fd5b6148a785828601614a16565b60008060408385031215614b5b57600080fd5b8235614b2181614177565b6020808252810182905260006040600584901b830181019083018583605e1936839003015b87821015614c0b57868503603f190184528235818112614baa57600080fd5b89018035614bb781613ce5565b6001600160a01b0316865260208181013590870152614bd96040820182614512565b915060606040880152614bf06060880183836142cd565b96505050602083019250602084019350600182019150614b8b565b5092979650505050505050565b8035602083101561072257600019602084900360031b1b1692915050565b60006001600160401b03821115614c4f57614c4f614328565b5060051b60200190565b600082601f830112614c6a57600080fd5b8151614c786143b482614c36565b8082825260208201915060208360051b860101925085831115614c9a57600080fd5b602085015b83811015614cdb5780516001600160401b03811115614cbd57600080fd5b614ccc886020838a0101614395565b84525060209283019201614c9f565b5095945050505050565b600060208284031215614cf757600080fd5b81516001600160401b03811115614d0d57600080fd5b61081884828501614c59565b60008060408385031215614d2c57600080fd5b82516001600160401b03811115614d4257600080fd5b8301601f81018513614d5357600080fd5b8051614d616143b482614c36565b8082825260208201915060208360051b850101925087831115614d8357600080fd5b6020840193505b82841015614dac57614d9b84614854565b825260209384019390910190614d8a565b8095505050505060208301516001600160401b03811115614dcc57600080fd5b6148a785828601614c5956feb8bc84bd77f5eb08210b8eb20fd63b3ec6a7992d277ab94663bae0e066f792aca2646970667358221220ea7603497be0a0e1ddc106666c75af038c8db18b0f9143f6418b0e8b232c109164736f6c634300081a00336080604052348015600f57600080fd5b506109c28061001f6000396000f3fe608060405234801561001057600080fd5b506004361061007d5760003560e01c80636a2216571161005b5780636a221657146100d357806378272525146100e65780639517e29f146100f95780639abb6e171461010c57600080fd5b80633f707e6b1461008257806350c890221461009757806361085573146100aa575b600080fd5b6100956100903660046105ba565b61012d565b005b6100956100a53660046105ba565b610197565b6100bd6100b83660046105ba565b6101fc565b6040516100ca91906106c4565b60405180910390f35b6100956100e1366004610710565b6102be565b6100956100f43660046107da565b6102e1565b6100956101073660046107da565b61038a565b61011f61011a3660046105ba565b610429565b6040516100ca929190610864565b8060005b81811015610191573684848381811061014c5761014c6108be565b905060200281019061015e91906108d4565b905061018761017060208301836108f4565b6020830135610182604085018561090f565b610553565b5050600101610131565b50505050565b8060005b8181101561019157368484838181106101b6576101b66108be565b90506020028101906101c891906108d4565b90506101f16101da60208301836108f4565b60208301356101ec604085018561090f565b610589565b50505060010161019b565b6060818067ffffffffffffffff811115610218576102186106fa565b60405190808252806020026020018201604052801561024b57816020015b60608152602001906001900390816102365790505b50915060005b818110156102b6573685858381811061026c5761026c6108be565b905060200281019061027e91906108d4565b905061029061017060208301836108f4565b8483815181106102a2576102a26108be565b602090810291909101015250600101610251565b505092915050565b604051600080835160208501865afa3d6000833e80156102dc573d82f35b503d81fd5b604051638a91b0e360e01b81526001600160a01b03841690638a91b0e39061030f908590859060040161095d565b600060405180830381600087803b15801561032957600080fd5b505af115801561033d573d6000803e3d6000fd5b5050604080518781526001600160a01b03871660208201527f341347516a9de374859dfda710fa4828b2d48cb57d4fbe4c1149612b8e02276e93500190505b60405180910390a150505050565b6040516306d61fe760e41b81526001600160a01b03841690636d61fe70906103b8908590859060040161095d565b600060405180830381600087803b1580156103d257600080fd5b505af11580156103e6573d6000803e3d6000fd5b5050604080518781526001600160a01b03871660208201527fd21d0b289f126c4b473ea641963e766833c2f13866e4ff480abd787c100ef123935001905061037c565b606080828067ffffffffffffffff811115610446576104466106fa565b60405190808252806020026020018201604052801561047957816020015b60608152602001906001900390816104645790505b5091508067ffffffffffffffff811115610495576104956106fa565b6040519080825280602002602001820160405280156104be578160200160208202803683370190505b50925060005b8181101561054a57368686838181106104df576104df6108be565b90506020028101906104f191906108d4565b90506105036101da60208301836108f4565b868481518110610515576105156108be565b6020026020010186858151811061052e5761052e6108be565b60209081029190910101919091529015159052506001016104c4565b50509250929050565b60405181838237600038838387895af1610570573d6000823e3d81fd5b3d8152602081013d6000823e3d01604052949350505050565b604051600090828482376000388483888a5af191503d8152602081013d6000823e3d81016040525094509492505050565b600080602083850312156105cd57600080fd5b823567ffffffffffffffff8111156105e457600080fd5b8301601f810185136105f557600080fd5b803567ffffffffffffffff81111561060c57600080fd5b8560208260051b840101111561062157600080fd5b6020919091019590945092505050565b600082825180855260208501945060208160051b8301016020850160005b838110156106b857848303601f190188528151805180855260005b818110156106865760208184018101518783018201520161066a565b506000602082870101526020601f19601f8301168601019450505060208201915060208801975060018101905061064f565b50909695505050505050565b6020815260006106d76020830184610631565b9392505050565b80356001600160a01b03811681146106f557600080fd5b919050565b634e487b7160e01b600052604160045260246000fd5b6000806040838503121561072357600080fd5b61072c836106de565b9150602083013567ffffffffffffffff81111561074857600080fd5b8301601f8101851361075957600080fd5b803567ffffffffffffffff811115610773576107736106fa565b604051601f8201601f19908116603f0116810167ffffffffffffffff811182821017156107a2576107a26106fa565b6040528181528282016020018710156107ba57600080fd5b816020840160208301376000602083830101528093505050509250929050565b600080600080606085870312156107f057600080fd5b84359350610800602086016106de565b9250604085013567ffffffffffffffff81111561081c57600080fd5b8501601f8101871361082d57600080fd5b803567ffffffffffffffff81111561084457600080fd5b87602082840101111561085657600080fd5b949793965060200194505050565b6040808252835190820181905260009060208501906060840190835b818110156108a05783511515835260209384019390920191600101610880565b505083810360208501526108b48186610631565b9695505050505050565b634e487b7160e01b600052603260045260246000fd5b60008235605e198336030181126108ea57600080fd5b9190910192915050565b60006020828403121561090657600080fd5b6106d7826106de565b6000808335601e1984360301811261092657600080fd5b83018035915067ffffffffffffffff82111561094157600080fd5b60200191503681900382131561095657600080fd5b9250929050565b60208152816020820152818360408301376000818301604090810191909152601f909201601f1916010191905056fea26469706673582212205c0679bac7989901111b6824de732603e322da5b9b75ee077344853294d8b7b664736f6c634300081a0033",
    "linkReferences": {}
  },
  "methodIdentifiers": {
    "accountId()": "9cfd7cff",
    "domainSeparator()": "f698da25",
    "entryPoint()": "b0d691fe",
    "execute(bytes32,bytes)": "e9ae5c53",
    "executeFromExecutor(bytes32,bytes)": "d691c964",
    "getActiveHook()": "0a664dba",
    "getActiveHook(bytes4)": "b875d5d8",
    "getExecutorsPaginated(address,uint256)": "ea5f61d0",
    "getNonce(address,address)": "d828435d",
    "getSafeOp((address,uint256,bytes,bytes,bytes32,uint256,bytes32,bytes,bytes),address)": "55d559f4",
    "getValidatorsPaginated(address,uint256)": "5faac46b",
    "initializeAccount((address,bytes)[],(address,bytes)[],(address,bytes)[],(address,bytes)[],(address,address[],uint8))": "540fb4f9",
    "initializeAccountWithValidators((address,bytes)[])": "79aad60e",
    "installModule(uint256,address,bytes)": "9517e29f",
    "isModuleInstalled(uint256,address,bytes)": "112d3a7d",
    "isValidSignature(bytes32,bytes)": "1626ba7e",
    "setRegistry(address,address[],uint8)": "eab77e17",
    "supportsExecutionMode(bytes32)": "d03c7914",
    "supportsModule(uint256)": "f2dc691d",
    "uninstallModule(uint256,address,bytes)": "a71763a8",
    "validateUserOp((address,uint256,bytes,bytes,bytes32,uint256,bytes32,bytes,bytes),bytes32,uint256)": "19822f7c"
  },
  "id": 113
}