{
  "abi": [
    {
      "type": "function",
      "name": "execute",
      "inputs": [
        {
          "name": "executions",
          "type": "tuple[]",
          "internalType": "struct Execution[]",
          "components": [
            {
              "name": "target",
              "type": "address",
              "internalType": "address"
            },
            {
              "name": "value",
              "type": "uint256",
              "internalType": "uint256"
            },
            {
              "name": "callData",
              "type": "bytes",
              "internalType": "bytes"
            }
          ]
        }
      ],
      "outputs": [],
      "stateMutability": "nonpayable"
    },
    {
      "type": "function",
      "name": "executeReturn",
      "inputs": [
        {
          "name": "executions",
          "type": "tuple[]",
          "internalType": "struct Execution[]",
          "components": [
            {
              "name": "target",
              "type": "address",
              "internalType": "address"
            },
            {
              "name": "value",
              "type": "uint256",
              "internalType": "uint256"
            },
            {
              "name": "callData",
              "type": "bytes",
              "internalType": "bytes"
            }
          ]
        }
      ],
      "outputs": [
        {
          "name": "result",
          "type": "bytes[]",
          "internalType": "bytes[]"
        }
      ],
      "stateMutability": "nonpayable"
    },
    {
      "type": "function",
      "name": "installModule",
      "inputs": [
        {
          "name": "moduleTypeId",
          "type": "uint256",
          "internalType": "uint256"
        },
        {
          "name": "module",
          "type": "address",
          "internalType": "address"
        },
        {
          "name": "initData",
          "type": "bytes",
          "internalType": "bytes"
        }
      ],
      "outputs": [],
      "stateMutability": "nonpayable"
    },
    {
      "type": "function",
      "name": "staticCall",
      "inputs": [
        {
          "name": "target",
          "type": "address",
          "internalType": "address"
        },
        {
          "name": "data",
          "type": "bytes",
          "internalType": "bytes"
        }
      ],
      "outputs": [],
      "stateMutability": "view"
    },
    {
      "type": "function",
      "name": "tryExecute",
      "inputs": [
        {
          "name": "executions",
          "type": "tuple[]",
          "internalType": "struct Execution[]",
          "components": [
            {
              "name": "target",
              "type": "address",
              "internalType": "address"
            },
            {
              "name": "value",
              "type": "uint256",
              "internalType": "uint256"
            },
            {
              "name": "callData",
              "type": "bytes",
              "internalType": "bytes"
            }
          ]
        }
      ],
      "outputs": [],
      "stateMutability": "nonpayable"
    },
    {
      "type": "function",
      "name": "tryExecuteReturn",
      "inputs": [
        {
          "name": "executions",
          "type": "tuple[]",
          "internalType": "struct Execution[]",
          "components": [
            {
              "name": "target",
              "type": "address",
              "internalType": "address"
            },
            {
              "name": "value",
              "type": "uint256",
              "internalType": "uint256"
            },
            {
              "name": "callData",
              "type": "bytes",
              "internalType": "bytes"
            }
          ]
        }
      ],
      "outputs": [
        {
          "name": "success",
          "type": "bool[]",
          "internalType": "bool[]"
        },
        {
          "name": "result",
          "type": "bytes[]",
          "internalType": "bytes[]"
        }
      ],
      "stateMutability": "nonpayable"
    },
    {
      "type": "function",
      "name": "unInstallModule",
      "inputs": [
        {
          "name": "moduleTypeId",
          "type": "uint256",
          "internalType": "uint256"
        },
        {
          "name": "module",
          "type": "address",
          "internalType": "address"
        },
        {
          "name": "initData",
          "type": "bytes",
          "internalType": "bytes"
        }
      ],
      "outputs": [],
      "stateMutability": "nonpayable"
    },
    {
      "type": "event",
      "name": "ModuleInstalled",
      "inputs": [
        {
          "name": "moduleTypeId",
          "type": "uint256",
          "indexed": false,
          "internalType": "uint256"
        },
        {
          "name": "module",
          "type": "address",
          "indexed": false,
          "internalType": "address"
        }
      ],
      "anonymous": false
    },
    {
      "type": "event",
      "name": "ModuleUninstalled",
      "inputs": [
        {
          "name": "moduleTypeId",
          "type": "uint256",
          "indexed": false,
          "internalType": "uint256"
        },
        {
          "name": "module",
          "type": "address",
          "indexed": false,
          "internalType": "address"
        }
      ],
      "anonymous": false
    }
  ],
  "bytecode": {
    "object": "0x6080604052348015600f57600080fd5b506109c28061001f6000396000f3fe608060405234801561001057600080fd5b506004361061007d5760003560e01c80636a2216571161005b5780636a221657146100d357806378272525146100e65780639517e29f146100f95780639abb6e171461010c57600080fd5b80633f707e6b1461008257806350c890221461009757806361085573146100aa575b600080fd5b6100956100903660046105ba565b61012d565b005b6100956100a53660046105ba565b610197565b6100bd6100b83660046105ba565b6101fc565b6040516100ca91906106c4565b60405180910390f35b6100956100e1366004610710565b6102be565b6100956100f43660046107da565b6102e1565b6100956101073660046107da565b61038a565b61011f61011a3660046105ba565b610429565b6040516100ca929190610864565b8060005b81811015610191573684848381811061014c5761014c6108be565b905060200281019061015e91906108d4565b905061018761017060208301836108f4565b6020830135610182604085018561090f565b610553565b5050600101610131565b50505050565b8060005b8181101561019157368484838181106101b6576101b66108be565b90506020028101906101c891906108d4565b90506101f16101da60208301836108f4565b60208301356101ec604085018561090f565b610589565b50505060010161019b565b6060818067ffffffffffffffff811115610218576102186106fa565b60405190808252806020026020018201604052801561024b57816020015b60608152602001906001900390816102365790505b50915060005b818110156102b6573685858381811061026c5761026c6108be565b905060200281019061027e91906108d4565b905061029061017060208301836108f4565b8483815181106102a2576102a26108be565b602090810291909101015250600101610251565b505092915050565b604051600080835160208501865afa3d6000833e80156102dc573d82f35b503d81fd5b604051638a91b0e360e01b81526001600160a01b03841690638a91b0e39061030f908590859060040161095d565b600060405180830381600087803b15801561032957600080fd5b505af115801561033d573d6000803e3d6000fd5b5050604080518781526001600160a01b03871660208201527f341347516a9de374859dfda710fa4828b2d48cb57d4fbe4c1149612b8e02276e93500190505b60405180910390a150505050565b6040516306d61fe760e41b81526001600160a01b03841690636d61fe70906103b8908590859060040161095d565b600060405180830381600087803b1580156103d257600080fd5b505af11580156103e6573d6000803e3d6000fd5b5050604080518781526001600160a01b03871660208201527fd21d0b289f126c4b473ea641963e766833c2f13866e4ff480abd787c100ef123935001905061037c565b606080828067ffffffffffffffff811115610446576104466106fa565b60405190808252806020026020018201604052801561047957816020015b60608152602001906001900390816104645790505b5091508067ffffffffffffffff811115610495576104956106fa565b6040519080825280602002602001820160405280156104be578160200160208202803683370190505b50925060005b8181101561054a57368686838181106104df576104df6108be565b90506020028101906104f191906108d4565b90506105036101da60208301836108f4565b868481518110610515576105156108be565b6020026020010186858151811061052e5761052e6108be565b60209081029190910101919091529015159052506001016104c4565b50509250929050565b60405181838237600038838387895af1610570573d6000823e3d81fd5b3d8152602081013d6000823e3d01604052949350505050565b604051600090828482376000388483888a5af191503d8152602081013d6000823e3d81016040525094509492505050565b600080602083850312156105cd57600080fd5b823567ffffffffffffffff8111156105e457600080fd5b8301601f810185136105f557600080fd5b803567ffffffffffffffff81111561060c57600080fd5b8560208260051b840101111561062157600080fd5b6020919091019590945092505050565b600082825180855260208501945060208160051b8301016020850160005b838110156106b857848303601f190188528151805180855260005b818110156106865760208184018101518783018201520161066a565b506000602082870101526020601f19601f8301168601019450505060208201915060208801975060018101905061064f565b50909695505050505050565b6020815260006106d76020830184610631565b9392505050565b80356001600160a01b03811681146106f557600080fd5b919050565b634e487b7160e01b600052604160045260246000fd5b6000806040838503121561072357600080fd5b61072c836106de565b9150602083013567ffffffffffffffff81111561074857600080fd5b8301601f8101851361075957600080fd5b803567ffffffffffffffff811115610773576107736106fa565b604051601f8201601f19908116603f0116810167ffffffffffffffff811182821017156107a2576107a26106fa565b6040528181528282016020018710156107ba57600080fd5b816020840160208301376000602083830101528093505050509250929050565b600080600080606085870312156107f057600080fd5b84359350610800602086016106de565b9250604085013567ffffffffffffffff81111561081c57600080fd5b8501601f8101871361082d57600080fd5b803567ffffffffffffffff81111561084457600080fd5b87602082840101111561085657600080fd5b949793965060200194505050565b6040808252835190820181905260009060208501906060840190835b818110156108a05783511515835260209384019390920191600101610880565b505083810360208501526108b48186610631565b9695505050505050565b634e487b7160e01b600052603260045260246000fd5b60008235605e198336030181126108ea57600080fd5b9190910192915050565b60006020828403121561090657600080fd5b6106d7826106de565b6000808335601e1984360301811261092657600080fd5b83018035915067ffffffffffffffff82111561094157600080fd5b60200191503681900382131561095657600080fd5b9250929050565b60208152816020820152818360408301376000818301604090810191909152601f909201601f1916010191905056fea26469706673582212205c0679bac7989901111b6824de732603e322da5b9b75ee077344853294d8b7b664736f6c634300081a0033",
    "linkReferences": {}
  },
  "methodIdentifiers": {
    "execute((address,uint256,bytes)[])": "3f707e6b",
    "executeReturn((address,uint256,bytes)[])": "61085573",
    "installModule(uint256,address,bytes)": "9517e29f",
    "staticCall(address,bytes)": "6a221657",
    "tryExecute((address,uint256,bytes)[])": "50c89022",
    "tryExecuteReturn((address,uint256,bytes)[])": "9abb6e17",
    "unInstallModule(uint256,address,bytes)": "78272525"
  },
  "id": 133
}