{
  "abi": [
    {
      "type": "fallback",
      "stateMutability": "payable"
    },
    {
      "type": "receive",
      "stateMutability": "payable"
    },
    {
      "type": "function",
      "name": "accountId",
      "inputs": [],
      "outputs": [
        {
          "name": "accountImplementationId",
          "type": "string",
          "internalType": "string"
        }
      ],
      "stateMutability": "view"
    },
    {
      "type": "function",
      "name": "domainSeparator",
      "inputs": [],
      "outputs": [
        {
          "name": "",
          "type": "bytes32",
          "internalType": "bytes32"
        }
      ],
      "stateMutability": "view"
    },
    {
      "type": "function",
      "name": "entryPoint",
      "inputs": [],
      "outputs": [
        {
          "name": "",
          "type": "address",
          "internalType": "address"
        }
      ],
      "stateMutability": "view"
    },
    {
      "type": "function",
      "name": "execute",
      "inputs": [
        {
          "name": "mode",
          "type": "bytes32",
          "internalType": "ModeCode"
        },
        {
          "name": "executionCalldata",
          "type": "bytes",
          "internalType": "bytes"
        }
      ],
      "outputs": [],
      "stateMutability": "payable"
    },
    {
      "type": "function",
      "name": "executeFromExecutor",
      "inputs": [
        {
          "name": "mode",
          "type": "bytes32",
          "internalType": "ModeCode"
        },
        {
          "name": "executionCalldata",
          "type": "bytes",
          "internalType": "bytes"
        }
      ],
      "outputs": [
        {
          "name": "returnDatas",
          "type": "bytes[]",
          "internalType": "bytes[]"
        }
      ],
      "stateMutability": "payable"
    },
    {
      "type": "function",
      "name": "getActiveHook",
      "inputs": [],
      "outputs": [
        {
          "name": "hook",
          "type": "address",
          "internalType": "address"
        }
      ],
      "stateMutability": "view"
    },
    {
      "type": "function",
      "name": "getActiveHook",
      "inputs": [
        {
          "name": "selector",
          "type": "bytes4",
          "internalType": "bytes4"
        }
      ],
      "outputs": [
        {
          "name": "hook",
          "type": "address",
          "internalType": "address"
        }
      ],
      "stateMutability": "view"
    },
    {
      "type": "function",
      "name": "getExecutorsPaginated",
      "inputs": [
        {
          "name": "cursor",
          "type": "address",
          "internalType": "address"
        },
        {
          "name": "size",
          "type": "uint256",
          "internalType": "uint256"
        }
      ],
      "outputs": [
        {
          "name": "array",
          "type": "address[]",
          "internalType": "address[]"
        },
        {
          "name": "next",
          "type": "address",
          "internalType": "address"
        }
      ],
      "stateMutability": "view"
    },
    {
      "type": "function",
      "name": "getNonce",
      "inputs": [
        {
          "name": "safe",
          "type": "address",
          "internalType": "address"
        },
        {
          "name": "validator",
          "type": "address",
          "internalType": "address"
        }
      ],
      "outputs": [
        {
          "name": "nonce",
          "type": "uint256",
          "internalType": "uint256"
        }
      ],
      "stateMutability": "view"
    },
    {
      "type": "function",
      "name": "getValidatorPaginated",
      "inputs": [
        {
          "name": "start",
          "type": "address",
          "internalType": "address"
        },
        {
          "name": "pageSize",
          "type": "uint256",
          "internalType": "uint256"
        }
      ],
      "outputs": [
        {
          "name": "array",
          "type": "address[]",
          "internalType": "address[]"
        },
        {
          "name": "next",
          "type": "address",
          "internalType": "address"
        }
      ],
      "stateMutability": "view"
    },
    {
      "type": "function",
      "name": "initializeAccount",
      "inputs": [
        {
          "name": "validators",
          "type": "tuple[]",
          "internalType": "struct ModuleInit[]",
          "components": [
            {
              "name": "module",
              "type": "address",
              "internalType": "address"
            },
            {
              "name": "initData",
              "type": "bytes",
              "internalType": "bytes"
            }
          ]
        },
        {
          "name": "executors",
          "type": "tuple[]",
          "internalType": "struct ModuleInit[]",
          "components": [
            {
              "name": "module",
              "type": "address",
              "internalType": "address"
            },
            {
              "name": "initData",
              "type": "bytes",
              "internalType": "bytes"
            }
          ]
        },
        {
          "name": "fallbacks",
          "type": "tuple[]",
          "internalType": "struct ModuleInit[]",
          "components": [
            {
              "name": "module",
              "type": "address",
              "internalType": "address"
            },
            {
              "name": "initData",
              "type": "bytes",
              "internalType": "bytes"
            }
          ]
        },
        {
          "name": "hooks",
          "type": "tuple[]",
          "internalType": "struct ModuleInit[]",
          "components": [
            {
              "name": "module",
              "type": "address",
              "internalType": "address"
            },
            {
              "name": "initData",
              "type": "bytes",
              "internalType": "bytes"
            }
          ]
        },
        {
          "name": "registryInit",
          "type": "tuple",
          "internalType": "struct RegistryInit",
          "components": [
            {
              "name": "registry",
              "type": "address",
              "internalType": "contract IERC7484"
            },
            {
              "name": "attesters",
              "type": "address[]",
              "internalType": "address[]"
            },
            {
              "name": "threshold",
              "type": "uint8",
              "internalType": "uint8"
            }
          ]
        }
      ],
      "outputs": [],
      "stateMutability": "payable"
    },
    {
      "type": "function",
      "name": "installModule",
      "inputs": [
        {
          "name": "moduleType",
          "type": "uint256",
          "internalType": "uint256"
        },
        {
          "name": "module",
          "type": "address",
          "internalType": "address"
        },
        {
          "name": "initData",
          "type": "bytes",
          "internalType": "bytes"
        }
      ],
      "outputs": [],
      "stateMutability": "payable"
    },
    {
      "type": "function",
      "name": "isModuleInstalled",
      "inputs": [
        {
          "name": "moduleType",
          "type": "uint256",
          "internalType": "uint256"
        },
        {
          "name": "module",
          "type": "address",
          "internalType": "address"
        },
        {
          "name": "additionalContext",
          "type": "bytes",
          "internalType": "bytes"
        }
      ],
      "outputs": [
        {
          "name": "",
          "type": "bool",
          "internalType": "bool"
        }
      ],
      "stateMutability": "view"
    },
    {
      "type": "function",
      "name": "isValidSignature",
      "inputs": [
        {
          "name": "hash",
          "type": "bytes32",
          "internalType": "bytes32"
        },
        {
          "name": "data",
          "type": "bytes",
          "internalType": "bytes"
        }
      ],
      "outputs": [
        {
          "name": "magicValue",
          "type": "bytes4",
          "internalType": "bytes4"
        }
      ],
      "stateMutability": "view"
    },
    {
      "type": "function",
      "name": "launchpadValidators",
      "inputs": [
        {
          "name": "validators",
          "type": "tuple[]",
          "internalType": "struct ModuleInit[]",
          "components": [
            {
              "name": "module",
              "type": "address",
              "internalType": "address"
            },
            {
              "name": "initData",
              "type": "bytes",
              "internalType": "bytes"
            }
          ]
        }
      ],
      "outputs": [],
      "stateMutability": "payable"
    },
    {
      "type": "function",
      "name": "setRegistry",
      "inputs": [
        {
          "name": "registry",
          "type": "address",
          "internalType": "contract IERC7484"
        },
        {
          "name": "attesters",
          "type": "address[]",
          "internalType": "address[]"
        },
        {
          "name": "threshold",
          "type": "uint8",
          "internalType": "uint8"
        }
      ],
      "outputs": [],
      "stateMutability": "nonpayable"
    },
    {
      "type": "function",
      "name": "supportsExecutionMode",
      "inputs": [
        {
          "name": "encodedMode",
          "type": "bytes32",
          "internalType": "ModeCode"
        }
      ],
      "outputs": [
        {
          "name": "supported",
          "type": "bool",
          "internalType": "bool"
        }
      ],
      "stateMutability": "pure"
    },
    {
      "type": "function",
      "name": "supportsModule",
      "inputs": [
        {
          "name": "moduleTypeId",
          "type": "uint256",
          "internalType": "uint256"
        }
      ],
      "outputs": [
        {
          "name": "",
          "type": "bool",
          "internalType": "bool"
        }
      ],
      "stateMutability": "pure"
    },
    {
      "type": "function",
      "name": "uninstallModule",
      "inputs": [
        {
          "name": "moduleType",
          "type": "uint256",
          "internalType": "uint256"
        },
        {
          "name": "module",
          "type": "address",
          "internalType": "address"
        },
        {
          "name": "deInitData",
          "type": "bytes",
          "internalType": "bytes"
        }
      ],
      "outputs": [],
      "stateMutability": "payable"
    },
    {
      "type": "function",
      "name": "validateUserOp",
      "inputs": [
        {
          "name": "userOp",
          "type": "tuple",
          "internalType": "struct PackedUserOperation",
          "components": [
            {
              "name": "sender",
              "type": "address",
              "internalType": "address"
            },
            {
              "name": "nonce",
              "type": "uint256",
              "internalType": "uint256"
            },
            {
              "name": "initCode",
              "type": "bytes",
              "internalType": "bytes"
            },
            {
              "name": "callData",
              "type": "bytes",
              "internalType": "bytes"
            },
            {
              "name": "accountGasLimits",
              "type": "bytes32",
              "internalType": "bytes32"
            },
            {
              "name": "preVerificationGas",
              "type": "uint256",
              "internalType": "uint256"
            },
            {
              "name": "gasFees",
              "type": "bytes32",
              "internalType": "bytes32"
            },
            {
              "name": "paymasterAndData",
              "type": "bytes",
              "internalType": "bytes"
            },
            {
              "name": "signature",
              "type": "bytes",
              "internalType": "bytes"
            }
          ]
        },
        {
          "name": "userOpHash",
          "type": "bytes32",
          "internalType": "bytes32"
        },
        {
          "name": "missingAccountFunds",
          "type": "uint256",
          "internalType": "uint256"
        }
      ],
      "outputs": [
        {
          "name": "validSignature",
          "type": "uint256",
          "internalType": "uint256"
        }
      ],
      "stateMutability": "payable"
    },
    {
      "type": "event",
      "name": "ERC7484RegistryConfigured",
      "inputs": [
        {
          "name": "smartAccount",
          "type": "address",
          "indexed": true,
          "internalType": "address"
        },
        {
          "name": "registry",
          "type": "address",
          "indexed": true,
          "internalType": "contract IERC7484"
        }
      ],
      "anonymous": false
    },
    {
      "type": "event",
      "name": "ModuleInstalled",
      "inputs": [
        {
          "name": "moduleTypeId",
          "type": "uint256",
          "indexed": false,
          "internalType": "uint256"
        },
        {
          "name": "module",
          "type": "address",
          "indexed": false,
          "internalType": "address"
        }
      ],
      "anonymous": false
    },
    {
      "type": "event",
      "name": "ModuleUninstalled",
      "inputs": [
        {
          "name": "moduleTypeId",
          "type": "uint256",
          "indexed": false,
          "internalType": "uint256"
        },
        {
          "name": "module",
          "type": "address",
          "indexed": false,
          "internalType": "address"
        }
      ],
      "anonymous": false
    },
    {
      "type": "event",
      "name": "Safe7579Initialized",
      "inputs": [
        {
          "name": "safe",
          "type": "address",
          "indexed": true,
          "internalType": "address"
        }
      ],
      "anonymous": false
    },
    {
      "type": "event",
      "name": "TryExecutionFailed",
      "inputs": [
        {
          "name": "safe",
          "type": "address",
          "indexed": false,
          "internalType": "contract ISafe"
        },
        {
          "name": "numberInBatch",
          "type": "uint256",
          "indexed": false,
          "internalType": "uint256"
        }
      ],
      "anonymous": false
    },
    {
      "type": "event",
      "name": "TryExecutionsFailed",
      "inputs": [
        {
          "name": "safe",
          "type": "address",
          "indexed": false,
          "internalType": "contract ISafe"
        },
        {
          "name": "success",
          "type": "bool[]",
          "indexed": false,
          "internalType": "bool[]"
        }
      ],
      "anonymous": false
    },
    {
      "type": "error",
      "name": "AccountAccessUnauthorized",
      "inputs": []
    },
    {
      "type": "error",
      "name": "AccountInitializationFailed",
      "inputs": []
    },
    {
      "type": "error",
      "name": "ExecutionFailed",
      "inputs": []
    },
    {
      "type": "error",
      "name": "FallbackInstalled",
      "inputs": [
        {
          "name": "msgSig",
          "type": "bytes4",
          "internalType": "bytes4"
        }
      ]
    },
    {
      "type": "error",
      "name": "HookAlreadyInstalled",
      "inputs": [
        {
          "name": "currentHook",
          "type": "address",
          "internalType": "address"
        }
      ]
    },
    {
      "type": "error",
      "name": "HookPostCheckFailed",
      "inputs": []
    },
    {
      "type": "error",
      "name": "InitializerError",
      "inputs": []
    },
    {
      "type": "error",
      "name": "InvalidFallbackHandler",
      "inputs": [
        {
          "name": "msgSig",
          "type": "bytes4",
          "internalType": "bytes4"
        }
      ]
    },
    {
      "type": "error",
      "name": "InvalidHookType",
      "inputs": []
    },
    {
      "type": "error",
      "name": "InvalidInitData",
      "inputs": [
        {
          "name": "safe",
          "type": "address",
          "internalType": "address"
        }
      ]
    },
    {
      "type": "error",
      "name": "InvalidInput",
      "inputs": []
    },
    {
      "type": "error",
      "name": "InvalidModule",
      "inputs": [
        {
          "name": "module",
          "type": "address",
          "internalType": "address"
        }
      ]
    },
    {
      "type": "error",
      "name": "LinkedListError",
      "inputs": []
    },
    {
      "type": "error",
      "name": "LinkedList_AlreadyInitialized",
      "inputs": []
    },
    {
      "type": "error",
      "name": "LinkedList_AlreadyInitialized",
      "inputs": []
    },
    {
      "type": "error",
      "name": "LinkedList_EntryAlreadyInList",
      "inputs": [
        {
          "name": "entry",
          "type": "address",
          "internalType": "address"
        }
      ]
    },
    {
      "type": "error",
      "name": "LinkedList_EntryAlreadyInList",
      "inputs": [
        {
          "name": "entry",
          "type": "address",
          "internalType": "address"
        }
      ]
    },
    {
      "type": "error",
      "name": "LinkedList_InvalidEntry",
      "inputs": [
        {
          "name": "entry",
          "type": "address",
          "internalType": "address"
        }
      ]
    },
    {
      "type": "error",
      "name": "LinkedList_InvalidEntry",
      "inputs": [
        {
          "name": "entry",
          "type": "address",
          "internalType": "address"
        }
      ]
    },
    {
      "type": "error",
      "name": "LinkedList_InvalidPage",
      "inputs": []
    },
    {
      "type": "error",
      "name": "LinkedList_InvalidPage",
      "inputs": []
    },
    {
      "type": "error",
      "name": "NoFallbackHandler",
      "inputs": [
        {
          "name": "msgSig",
          "type": "bytes4",
          "internalType": "bytes4"
        }
      ]
    },
    {
      "type": "error",
      "name": "UnsupportedCallType",
      "inputs": [
        {
          "name": "callType",
          "type": "bytes1",
          "internalType": "CallType"
        }
      ]
    },
    {
      "type": "error",
      "name": "UnsupportedExecType",
      "inputs": [
        {
          "name": "execType",
          "type": "bytes1",
          "internalType": "ExecType"
        }
      ]
    },
    {
      "type": "error",
      "name": "UnsupportedModuleType",
      "inputs": [
        {
          "name": "moduleTypeId",
          "type": "uint256",
          "internalType": "uint256"
        }
      ]
    },
    {
      "type": "error",
      "name": "ValidatorStorageHelperError",
      "inputs": []
    }
  ],
  "bytecode": {
    "object": "0x60a0604052348015600f57600080fd5b50604051601a906046565b604051809103906000f0801580156035573d6000803e3d6000fd5b506001600160a01b03166080526053565b6109d880614b4583390190565b608051614aad61009860003960008181610d0101528181610f1c0152818161178e01528181612cae01528181612d660152818161369501526137c10152614aad6000f3fe6080604052600436106101235760003560e01c8063b0d691fe116100a0578063e9ae5c5311610064578063e9ae5c531461040f578063ea5f61d014610422578063eab77e1714610442578063f2dc691d14610462578063f698da25146104825761012a565b8063b0d691fe14610340578063b875d5d814610363578063d03c7914146103af578063d691c964146103cf578063d828435d146103ef5761012a565b80636a5e1515116100e75780636a5e1515146102b757806385571368146102ca5780639517e29f146102f85780639cfd7cff1461030b578063a71763a81461032d5761012a565b80630a664dba146101d4578063112d3a7d146102185780631626ba7e1461024857806319822f7c14610281578063540fb4f9146102a25761012a565b3661012a57005b600036606060003560e01c63bc197c81811463f23a6e6182141763150b7a028214171561015b57806020526020603cf35b5033600090815260046020908152604080832054600583528184206001600160e01b031985351680865293529083205491926001600160a01b039182169290911690806101a88484610497565b915091506101b68888610555565b95506101c484848484610669565b5050505050915050805190602001f35b3480156101e057600080fd5b50336000908152600460205260409020546001600160a01b03165b6040516001600160a01b0390911681526020015b60405180910390f35b34801561022457600080fd5b50610238610233366004613a72565b6106ec565b604051901515815260200161020f565b34801561025457600080fd5b50610268610263366004613acd565b610749565b6040516001600160e01b0319909116815260200161020f565b61029461028f366004613b18565b6109de565b60405190815260200161020f565b6102b56102b0366004613bc7565b610af2565b005b6102b56102c5366004613cad565b610b3f565b3480156102d657600080fd5b506102ea6102e5366004613cee565b610ba0565b60405161020f929190613d1a565b6102b5610306366004613a72565b610bbc565b34801561031757600080fd5b50610320610d71565b60405161020f9190613dcd565b6102b561033b366004613a72565b610e03565b34801561034c57600080fd5b506f71727de22e5e9d8baf0edac6f37da0326101fb565b34801561036f57600080fd5b506101fb61037e366004613df6565b3360009081526005602090815260408083206001600160e01b0319909416835292905220546001600160a01b031690565b3480156103bb57600080fd5b506102386103ca366004613e13565b610f7f565b6103e26103dd366004613acd565b611027565b60405161020f9190613e2c565b3480156103fb57600080fd5b5061029461040a366004613e90565b6110f3565b6102b561041d366004613acd565b611193565b34801561042e57600080fd5b506102ea61043d366004613cee565b611538565b34801561044e57600080fd5b506102b561045d366004613eda565b611562565b34801561046e57600080fd5b5061023861047d366004613e13565b6115d1565b34801561048e57600080fd5b50610294611620565b6060806001600160a01b03841615610517576104fe338560006104b8611679565b346000366040516024016104cf9493929190613f69565b60408051601f198184030181529190526020810180516001600160e01b031663d68f602560e01b179052611685565b915081806020019051810190610514919061405d565b91505b6001600160a01b0383161561054e57610535338460006104b8611679565b90508080602001905181019061054b919061405d565b90505b9250929050565b3360009081526003602090815260408083206001600160e01b0319843516845290915290208054606091906001600160a01b03811690600160a01b900460f81b816105c657604051632464e76d60e11b81526001600160e01b03196000351660048201526024015b60405180910390fd5b6105d481607f60f91b61172e565b156106185761060e338388886105e8611679565b6040516020016105fa93929190614091565b604051602081830303815290604052611740565b9350505050610663565b61062381600061172e565b1561065f5761060e338360008989610639611679565b60405160200161064b93929190614091565b604051602081830303815290604052611685565b5050505b92915050565b6001600160a01b038416156106bf576106bf33856000856040516024016106909190613dcd565b60408051601f198184030181529190526020810180516001600160e01b0316630b9dfbed60e11b179052611815565b6001600160a01b038316156106e6576106e633846000846040516024016106909190613dcd565b50505050565b600060018503610706576106ff846118b4565b9050610741565b60028503610717576106ff846118c2565b6003850361072a576106ff8484846118db565b6004850361073d576106ff848484611928565b5060005b949350505050565b600033821580156107c15750604051635ae6bd3760e01b8152600481018690526001600160a01b03821690635ae6bd3790602401602060405180830381865afa15801561079a573d6000803e3d6000fd5b505050506040513d601f19601f820116820180604052508101906107be91906140b7565b15155b156107d65750630b135d3f60e11b90506109d7565b60006107e560148286886140d0565b6107ee916140fa565b60601c90508015806108065750610804816118b4565b155b1561095c5760006108d1836001600160a01b031663f698da256040518163ffffffff1660e01b8152600401602060405180830381865afa15801561084e573d6000803e3d6000fd5b505050506040513d601f19601f8201168201806040525081019061087291906140b7565b60408051602081018b90527f60b3cbf8b4a223d68d641b3b6ddf9a298e7f33710cf3d3a9d1146b5a6150fbca910160408051601f1981840301815282825280516020918201209083015201604051602081830303815290604052611963565b805160208201209091506001600160a01b03841663934f3a1182846108f98a6014818e6140d0565b6040518563ffffffff1660e01b8152600401610918949392919061412f565b60006040518083038186803b15801561093057600080fd5b505afa158015610944573d6000803e3d6000fd5b50630b135d3f60e11b97506109d79650505050505050565b60006109bb338361096b611679565b8a6109798a6014818e6140d0565b60405160240161098c9493929190613f69565b60408051601f198184030181529190526020810180516001600160e01b0316637aa8f17760e11b179052611740565b9050808060200190518101906109d19190614166565b93505050505b9392505050565b60006f71727de22e5e9d8baf0edac6f37da0326109f9611679565b6001600160a01b031614610a2057604051635629665f60e11b815260040160405180910390fd5b6020840135606081901c90811580610a3e5750610a3c826118b4565b155b15610a5357610a4c866119dd565b9250610ab8565b6000610a9e338460008a8a604051602401610a6f9291906141c8565b60408051601f198184030181529190526020810180516001600160e01b0316639700320360e01b179052611685565b905080806020019051810190610ab491906140b7565b9350505b8315610ae957610ae9336f71727de22e5e9d8baf0edac6f37da0328660405180602001604052806000815250611815565b50509392505050565b610b24610b0260208301836142c7565b610b0f60208401846142e4565b610b1f606086016040870161432d565b611a83565b610b348989898989898989611b31565b505050505050505050565b610b4a600133611d74565b8060005b818110156106e65736848483818110610b6957610b69614348565b9050602002810190610b7b919061435e565b9050610b9733610b8e60208401846142c7565b60019190611def565b50600101610b4e565b60606000610bb16001338686611ee4565b915091509250929050565b3360009081526004602090815260408083205460058352818420639517e29f60e01b80865293529083205491926001600160a01b03918216929091169080610c048484610497565b91509150610c1f6f71727de22e5e9d8baf0edac6f37da03290565b6001600160a01b0316610c30611679565b6001600160a01b03161480610c5d5750610c48611679565b6001600160a01b0316336001600160a01b0316145b610c7a57604051635629665f60e11b815260040160405180910390fd5b606060018a03610c9657610c8f8989896120a8565b9050610cfb565b60028a03610ca957610c8f898989612104565b60038a03610cbc57610c8f89898961216e565b60048a03610ccf57610c8f8989896122af565b89610cdf57610c8f89898961242e565b60405163041c38b360e41b8152600481018b90526024016105bd565b610d64337f00000000000000000000000000000000000000000000000000000000000000008c8c85604051602401610d359392919061437e565b60408051601f198184030181529190526020810180516001600160e01b0316639517e29f60e01b1790526125b6565b50610b3484848484610669565b60606000336001600160a01b031663ffa1ad746040518163ffffffff1660e01b8152600401600060405180830381865afa158015610db3573d6000803e3d6000fd5b505050506040513d6000823e601f3d908101601f19168201604052610ddb91908101906143a8565b905080604051602001610dee91906143f0565b60405160208183030381529060405291505090565b33600090815260046020908152604080832054600583528184206314e2ec7560e31b80865293529083205491926001600160a01b03918216929091169080610e4b8484610497565b91509150610e666f71727de22e5e9d8baf0edac6f37da03290565b6001600160a01b0316610e77611679565b6001600160a01b03161480610ea45750610e8f611679565b6001600160a01b0316336001600160a01b0316145b610ec157604051635629665f60e11b815260040160405180910390fd5b606060018a03610edd57610ed689898961264f565b9050610f16565b60028a03610ef057610ed6898989612678565b60038a03610f0357610ed68989896126a5565b60048a03610cdf57610ed68989896126f3565b610d64337f00000000000000000000000000000000000000000000000000000000000000008c8c85604051602401610f509392919061437e565b60408051601f198184030181529190526020810180516001600160e01b0316637827252560e01b1790526127ab565b600081600881901b610f9582600160f81b61172e565b15610fa35760019250610fe6565b610fae82600061172e565b15610fbc5760019250610fe6565b610fce826001600160f81b031961172e565b15610fdc5760019250610fe6565b5060009392505050565b828015610ff95750610ff981600061172e565b15611005575050919050565b82801561101b575061101b81600160f81b61172e565b15610fdc575050919050565b6060611039611034611679565b6118c2565b61106a57611045611679565b604051635c93ff2f60e11b81526001600160a01b0390911660048201526024016105bd565b33600090815260046020908152604080832054600583528184206335a4725960e21b80865293529083205491926001600160a01b039182169290911690806110b28484610497565b915091503360026110c38282612861565b8a600881901b6110d581838e8e6128ec565b9950505050506110e784848484610669565b50505050509392505050565b6000602082901b640100000000600160c01b03166f71727de22e5e9d8baf0edac6f37da032604051631aab3f0d60e11b81526001600160a01b0386811660048301526001600160c01b038416602483015291909116906335567e1a90604401602060405180830381865afa15801561116f573d6000803e3d6000fd5b505050506040513d601f19601f8201168201806040525081019061074191906140b7565b336000908152600460209081526040808320546005835281842063e9ae5c5360e01b80865293529083205491926001600160a01b039182169290911690806111db8484610497565b915091506111f66f71727de22e5e9d8baf0edac6f37da03290565b6001600160a01b0316611207611679565b6001600160a01b03161480611234575061121f611679565b6001600160a01b0316336001600160a01b0316145b61125157604051635629665f60e11b815260040160405180910390fd5b87600881901b3361126382600061172e565b156113c65761127683600160f81b61172e565b156112975789358a01602081019035611290838383612ca8565b505061151f565b6112a283600061172e565b1561130a576000803660006112b78e8e612d0f565b935093509350935061130185858585858080601f01602080910402602001604051908101604052809392919081815260200183838082843760009201919091525061181592505050565b5050505061151f565b61131c836001600160f81b031961172e565b156113a15760006113306014828c8e6140d0565b611339916140fa565b60601c90503660008c8c6014908092611354939291906140d0565b91509150611399848484848080601f0160208091040260200160405190810160405280939291908181526020018383808284376000920191909152506125b692505050565b50505061151f565b604051632e5bf3f960e21b81526001600160f81b0319841660048201526024016105bd565b6113d482600160f81b61172e565b156114fa576113e783600160f81b61172e565b156114015789358a01602081019035611290838383612d60565b61140c83600061172e565b1561146b576000803660006114218e8e612d0f565b935093509350935061130185858585858080601f016020809104026020016040519081016040528093929190818152602001838380828437600092019190915250612dc792505050565b61147d836001600160f81b031961172e565b156113a15760006114916014828c8e6140d0565b61149a916140fa565b60601c90503660008c8c60149080926114b5939291906140d0565b91509150611399848484848080601f0160208091040260200160405190810160405280939291908181526020018383808284376000920191909152506127ab92505050565b6040516308c3ee0360e11b81526001600160f81b0319831660048201526024016105bd565b50505061152e84848484610669565b5050505050505050565b33600090815260026020526040812060609190611556818686612e7d565b92509250509250929050565b6f71727de22e5e9d8baf0edac6f37da03261157b611679565b6001600160a01b031614806115a85750611593611679565b6001600160a01b0316336001600160a01b0316145b6115c557604051635629665f60e11b815260040160405180910390fd5b6106e684848484611a83565b6000600182036115e357506001919050565b600282036115f357506001919050565b6003820361160357506001919050565b6004820361161357506001919050565b506000919050565b919050565b604080517f47e79534a245952e8b16893a336b85a3d9ea9fa8c573f3d803afb92a794692186020820152469181019190915230606082015260009060800160405160208183030381529060405280519060200120905090565b60131936013560601c90565b60606000856001600160a01b0316635229073f86868660006040518563ffffffff1660e01b81526004016116bc9493929190614436565b6000604051808303816000875af11580156116db573d6000803e3d6000fd5b505050506040513d6000823e601f3d908101601f191682016040526117039190810190614481565b925090508061172557604051632b3f6d1160e21b815260040160405180910390fd5b50949350505050565b6001600160f81b031990811691161490565b6060600083836040516024016117579291906144ce565b60408051601f198184030181529181526020820180516001600160e01b0316636a22165760e01b179052519091506000906117b8907f00000000000000000000000000000000000000000000000000000000000000009084906024016144ce565b60408051601f19818403018152919052602080820180516001600160e01b031663b4faba0960e01b17815282519293509091600091895afa5060203d036040519350808401604052806020853e50600051610ae957825160208401fd5b60405163468721a760e01b81526000906001600160a01b0386169063468721a79061184a908790879087908790600401614436565b6020604051808303816000875af1158015611869573d6000803e3d6000fd5b505050506040513d601f19601f8201168201806040525081019061188d91906144f2565b9050806118ad57604051632b3f6d1160e21b815260040160405180910390fd5b5050505050565b600061066360013384613029565b3360009081526002602052604081206109d7818461306d565b6000806118ea83850185613df6565b3360009081526003602090815260408083206001600160e01b0319909416835292905220546001600160a01b03908116908616149150509392505050565b600080806119388486018661451c565b91509150600061194883836130a7565b6001600160a01b039081169088161493505050509392505050565b6060601960f81b600160f81b858585604051602001611983929190614548565b60408051808303601f190181529082905280516020918201206001600160f81b0319958616918301919091529290931660218401526022830152604282015260620160405160208183030381529060405290509392505050565b6000806000803660006119ef8761313f565b8451602086012060405163934f3a1160e01b8152959a5093985091965094509250339163934f3a1191611a2a9189908790879060040161412f565b60006040518083038186803b158015611a4257600080fd5b505afa925050508015611a53575060015b611a6a57611a6360018486613354565b9550611a79565b611a7660008486613354565b95505b5050505050919050565b3360008181526020819052604080822080546001600160a01b0319166001600160a01b03891617905551611af592918791611ac69086908990899060240161456e565b60408051601f198184030181529190526020810180516001600160e01b031663f05c04e160e01b179052611815565b6040516001600160a01b0385169033907f9452c8fb077c3ea8f28a77c87488af657b1e44d010ad9a5992d73870da040e9490600090a350505050565b3360009081527fcc69885fda6bcc1a4ace058b4a62bf5e179ea78fd58a1ccd71c22cc9b688792f602052604090205487906001600160a01b0316611bde57611b7a600133611d74565b60005b81811015611bd857368a8a83818110611b9857611b98614348565b9050602002810190611baa919061435e565b9050611bce611bbc60208301836142c7565b611bc960208401846145c9565b6120a8565b5050600101611b7d565b50611bff565b8015611bff5760405163d8e3ed1b60e01b81523360048201526024016105bd565b336000908152600260205260409020611c178161338c565b86915060005b82811015611c785736898983818110611c3857611c38614348565b9050602002810190611c4a919061435e565b9050611c6e611c5c60208301836142c7565b611c6960208401846145c9565b612104565b5050600101611c1d565b5084915060005b82811015611cda5736878783818110611c9a57611c9a614348565b9050602002810190611cac919061435e565b9050611cd0611cbe60208301836142c7565b611ccb60208401846145c9565b61216e565b5050600101611c7f565b5082915060005b82811015611d3c5736858583818110611cfc57611cfc614348565b9050602002810190611d0e919061435e565b9050611d32611d2060208301836142c7565b611d2d60208401846145c9565b6122af565b5050600101611ce1565b5060405133907ff48581d8a62b775b74f2fb67f1d5806a9a356fbcc598040ab3071d3e37af40c290600090a250505050505050505050565b60016000908152602083815260408083206001600160a01b0380861685529252909120541615611db7576040516329e42f3360e11b815260040160405180910390fd5b60016000818152602093845260408082206001600160a01b0394909416825292909352912080546001600160a01b0319169091179055565b6001600160a01b0381161580611e0e57506001600160a01b0381166001145b15611e3757604051637c84ecfb60e01b81526001600160a01b03821660048201526024016105bd565b6001600160a01b0381811660009081526020858152604080832086851684529091529020541615611e8657604051631034f46960e21b81526001600160a01b03821660048201526024016105bd565b60016000908152602084815260408083206001600160a01b039586168085528184528285208054968816808752988552838620918652908452919093208054949095166001600160a01b031994851617909455528154169091179055565b606060006001600160a01b038416600114801590611f0a5750611f08868686613029565b155b15611f3357604051637c84ecfb60e01b81526001600160a01b03851660048201526024016105bd565b82600003611f545760405163f725081760e01b815260040160405180910390fd5b826001600160401b03811115611f6c57611f6c613f9b565b604051908082528060200260200182016040528015611f95578160200160208202803683370190505b506001600160a01b038086166000908152602089815260408083208a85168452909152812054929450911691505b6001600160a01b03821615801590611fe557506001600160a01b038216600114155b8015611ff057508381105b15612055578183828151811061200857612008614348565b6001600160a01b039283166020918202929092018101919091529281166000908152888452604080822089841683529094529290922054909116908061204d81614625565b915050611fc3565b6001600160a01b03821660011480159061206f5750600081115b1561209b578261208060018361463e565b8151811061209057612090614348565b602002602001015191505b8083525094509492505050565b60608360016120b78282612861565b6120c360013388611def565b84848080601f016020809104026020016040519081016040528093929190818152602001838380828437600092019190915250929998505050505050505050565b60608360026121138282612861565b33600090815260026020526040902061212c81886133e9565b85858080601f016020809104026020016040519081016040528093929190818152602001838380828437600092019190915250929a9950505050505050505050565b606083600361217d8282612861565b6000808061218d878901896146a2565b919450925090506001600160e01b031983166306d61fe760e41b14806121c357506001600160e01b03198316638a91b0e360e01b145b156121ed576040516379bd117b60e01b81526001600160e01b0319841660048201526024016105bd565b3360009081526003602090815260408083206001600160e01b0319871684529091529020546001600160a01b031615612245576040516374420d1560e01b81526001600160e01b0319841660048201526024016105bd565b3360009081526003602090815260408083206001600160e01b031990961683529490529290922080546001600160a01b038a166001600160a01b031960f89490941c600160a01b02939093166001600160a81b031990911617919091179055925050509392505050565b60608360046122be8282612861565b600080806122ce87890189614710565b919450925090506000808460018111156122ea576122ea61473e565b1480156122ff57506001600160e01b03198316155b156123755750336000908152600460205260409020546001600160a01b031680156123485760405163741cbe0360e01b81526001600160a01b03821660048201526024016105bd565b33600090815260046020526040902080546001600160a01b0319166001600160a01b038c16179055612421565b60018460018111156123895761238961473e565b03612408576001600160a01b038116156123c15760405163741cbe0360e01b81526001600160a01b03821660048201526024016105bd565b503360009081526005602090815260408083206001600160e01b031986168452909152902080546001600160a01b038b81166001600160a01b031983161790925516612421565b604051635691922f60e01b815260040160405180910390fd5b5098975050505050505050565b606082358301602081810191359085810135860180820191903590604088013588019081019035848381146124765760405163b4fa3fb360e01b815260040160405180910390fd5b60005b8181101561256f57600088888381811061249557612495614348565b905060200201359050600181036124d4576124ce8d8888858181106124bc576124bc614348565b9050602002810190611bc991906145c9565b50612566565b60028103612504576124ce8d8888858181106124f2576124f2614348565b9050602002810190611c6991906145c9565b60038103612534576124ce8d88888581811061252257612522614348565b9050602002810190611ccb91906145c9565b60048103612566576125648d88888581811061255257612552614348565b9050602002810190611d2d91906145c9565b505b50600101612479565b5082828080601f016020809104026020016040519081016040528093929190818152602001838380828437600092019190915250929e9d5050505050505050505050505050565b60405163468721a760e01b81526000906001600160a01b0385169063468721a7906125ec90869085908790600190600401614436565b6020604051808303816000875af115801561260b573d6000803e3d6000fd5b505050506040513d601f19601f8201168201806040525081019061262f91906144f2565b9050806106e657604051632b3f6d1160e21b815260040160405180910390fd5b6060600061265f83850185614754565b9250905061267060013383886134bf565b509392505050565b33600090815260026020526040812060609161269684860186614754565b93509050610ae98282886135b6565b606060006126b583850185614799565b3360009081526003602090815260408083206001600160e01b031990951683529390529190912080546001600160a01b031916905595945050505050565b606060008061270484860186614710565b94509092509050600082600181111561271f5761271f61473e565b14801561273457506001600160e01b03198116155b1561275b5733600090815260046020526040902080546001600160a01b0319169055610ae9565b600182600181111561276f5761276f61473e565b03612408573360009081526005602090815260408083206001600160e01b031985168452909152902080546001600160a01b0319169055610ae9565b60405163468721a760e01b81526000906001600160a01b0385169063468721a7906127e190869085908790600190600401614436565b6020604051808303816000875af1158015612800573d6000803e3d6000fd5b505050506040513d601f19601f8201168201806040525081019061282491906144f2565b9050806106e657604080516001600160a01b038616815260006020820152600080516020614a58833981519152910160405180910390a150505050565b336000908152602081905260409020546001600160a01b031680156128e75760405163529562a160e01b81523360048201526001600160a01b0384811660248301526044820184905282169063529562a19060640160006040518083038186803b1580156128ce57600080fd5b505afa1580156128e2573d6000803e3d6000fd5b505050505b505050565b60606128f985600061172e565b15612aef5761290c84600160f81b61172e565b1561292f578235830160208101903561292633838361368b565b92505050610741565b61293a84600061172e565b156129ee5760008036600061294f8787612d0f565b6040805160018082528183019092529498509296509094509250816020015b606081526020019060019003908161296e5790505094506129c733858585858080601f01602080910402602001604051908101604052809392919081815260200183838082843760009201919091525061168592505050565b856000815181106129da576129da614348565b602002602001018190525050505050610741565b612a00846001600160f81b031961172e565b15612aca576000612a1460148285876140d0565b612a1d916140fa565b60601c9050366000612a3285601481896140d0565b604080516001808252818301909252929450909250816020015b6060815260200190600190039081612a4c579050509350612aa4338484848080601f01602080910402602001604051908101604052809392919081815260200183838082843760009201919091525061371592505050565b84600081518110612ab757612ab7614348565b6020026020010181905250505050610741565b604051632e5bf3f960e21b81526001600160f81b0319851660048201526024016105bd565b612afd85600160f81b61172e565b15612c8357612b1084600160f81b61172e565b15612b355782358301602081019035612b2a3383836137b6565b935061074192505050565b612b4084600061172e565b15612bcd57600080366000612b558787612d0f565b6040805160018082528183019092529498509296509094509250816020015b6060815260200190600190039081612b745790505094506129c733858585858080601f01602080910402602001604051908101604052809392919081815260200183838082843760009201919091525061384592505050565b612bdf846001600160f81b031961172e565b15612aca576000612bf360148285876140d0565b612bfc916140fa565b60601c9050366000612c1185601481896140d0565b604080516001808252818301909252929450909250816020015b6060815260200190600190039081612c2b579050509350612aa4338484848080601f01602080910402602001604051908101604052809392919081815260200183838082843760009201919091525061390592505050565b6040516308c3ee0360e11b81526001600160f81b0319861660048201526024016105bd565b6128e7837f00000000000000000000000000000000000000000000000000000000000000008484604051602401612ce09291906147b7565b60408051601f198184030181529190526020810180516001600160e01b0316633f707e6b60e01b1790526125b6565b6000803681612d2160148287896140d0565b612d2a916140fa565b60601c9350612d3d6034601487896140d0565b612d4691614862565b9250612d5585603481896140d0565b949793965094505050565b6128e7837f00000000000000000000000000000000000000000000000000000000000000008484604051602401612d989291906147b7565b60408051601f198184030181529190526020810180516001600160e01b0316632864481160e11b1790526127ab565b60405163468721a760e01b81526000906001600160a01b0386169063468721a790612dfc908790879087908790600401614436565b6020604051808303816000875af1158015612e1b573d6000803e3d6000fd5b505050506040513d601f19601f82011682018060405250810190612e3f91906144f2565b9050806118ad57604080516001600160a01b038716815260006020820152600080516020614a58833981519152910160405180910390a15050505050565b606060006001600160a01b038416600114801590612ea25750612ea0858561306d565b155b15612ecb57604051637c84ecfb60e01b81526001600160a01b03851660048201526024016105bd565b82600003612eec5760405163f725081760e01b815260040160405180910390fd5b826001600160401b03811115612f0457612f04613f9b565b604051908082528060200260200182016040528015612f2d578160200160208202803683370190505b506001600160a01b03808616600090815260208890526040812054929450911691505b6001600160a01b03821615801590612f7257506001600160a01b038216600114155b8015612f7d57508381105b15612fd75781838281518110612f9557612f95614348565b6001600160a01b039283166020918202929092018101919091529281166000908152928790526040909220549091169080612fcf81614625565b915050612f50565b6001600160a01b038216600114801590612ff15750600081115b1561301d578261300260018361463e565b8151811061301257613012614348565b602002602001015191505b80835250935093915050565b600060016001600160a01b038316148015906107415750506001600160a01b0390811660009081526020938452604080822093831682529290935291205416151590565b600060016001600160a01b038316148015906109d75750506001600160a01b03908116600090815260209290925260409091205416151590565b6000808360018111156130bc576130bc61473e565b1480156130d157506001600160e01b03198216155b156130f15750336000908152600460205260409020546001600160a01b03165b60018360018111156131055761310561473e565b0361066357503360009081526005602090815260408083206001600160e01b0319851684529091529020546001600160a01b031692915050565b6060600080368181816131566101008901896145c9565b90925090506131696006600083856140d0565b61317291614880565b60d01c9550613185600c600683856140d0565b61318e91614880565b60d01c94506131a081600c81856140d0565b9350935050506000604051806101c001604052807f84aa190356f56b8c87825f54884392a9907c23ee0f8e1ea86336b763faf021bd60001b8152602001336001600160a01b031681526020018860200135815260200188806040019061320691906145c9565b6040516132149291906148ae565b604051908190039020815260200161322f60608a018a6145c9565b60405161323d9291906148ae565b60405180910390208152602001613253896139c5565b8152602001613261896139da565b81526020018860a001358152602001613279896139ea565b8152602001613287896139ff565b815260200161329960e08a018a6145c9565b6040516132a79291906148ae565b604051809103902081526020018665ffffffffffff1681526020018565ffffffffffff1681526020016132e76f71727de22e5e9d8baf0edac6f37da03290565b6001600160a01b031690526101c08120909150601960f81b600160f81b61330c611620565b6040516001600160f81b031993841660208201529290911660218301526022820152604281018290526062016040516020818303038152906040529650505091939590929450565b600060d08265ffffffffffff16901b60a08465ffffffffffff16901b8561337c57600061337f565b60015b60ff161717949350505050565b60016000908152602082905260409020546001600160a01b0316156133c4576040516329e42f3360e11b815260040160405180910390fd5b60016000818152602092909252604090912080546001600160a01b0319169091179055565b6001600160a01b038116158061340857506001600160a01b0381166001145b1561343157604051637c84ecfb60e01b81526001600160a01b03821660048201526024016105bd565b6001600160a01b03818116600090815260208490526040902054161561347557604051631034f46960e21b81526001600160a01b03821660048201526024016105bd565b60016000818152602093909352604080842080546001600160a01b039485168087529286208054959091166001600160a01b03199586161790559190935280549091169091179055565b6001600160a01b03811615806134de57506001600160a01b0381166001145b1561350757604051637c84ecfb60e01b81526001600160a01b03831660048201526024016105bd565b6001600160a01b03828116600090815260208681526040808320878516845290915290205481169082161461355a57604051637c84ecfb60e01b81526001600160a01b03821660048201526024016105bd565b6001600160a01b039081166000908152602085815260408083209584168084528683528184208054968616855297835281842090845282529091208054939092166001600160a01b031993841617909155919091528154169055565b6001600160a01b03811615806135d557506001600160a01b0381166001145b156135fe57604051637c84ecfb60e01b81526001600160a01b03831660048201526024016105bd565b6001600160a01b0382811660009081526020859052604090205481169082161461364657604051637c84ecfb60e01b81526001600160a01b03821660048201526024016105bd565b6001600160a01b0390811660008181526020949094526040808520805494841686529085208054949093166001600160a01b0319948516179092559092528154169055565b606060006136f6857f000000000000000000000000000000000000000000000000000000000000000086866040516024016136c79291906147b7565b60408051601f198184030181529190526020810180516001600160e01b0316636108557360e01b179052613715565b90508080602001905181019061370c919061496b565b95945050505050565b60606000846001600160a01b0316635229073f8560008660016040518563ffffffff1660e01b815260040161374d9493929190614436565b6000604051808303816000875af115801561376c573d6000803e3d6000fd5b505050506040513d6000823e601f3d908101601f191682016040526137949190810190614481565b925090508061267057604051632b3f6d1160e21b815260040160405180910390fd5b6060806000613822867f000000000000000000000000000000000000000000000000000000000000000087876040516024016137f39291906147b7565b60408051601f198184030181529190526020810180516001600160e01b0316639abb6e1760e01b179052613905565b905080806020019051810190613838919061499f565b9097909650945050505050565b60606000856001600160a01b0316635229073f86868660006040518563ffffffff1660e01b815260040161387c9493929190614436565b6000604051808303816000875af115801561389b573d6000803e3d6000fd5b505050506040513d6000823e601f3d908101601f191682016040526138c39190810190614481565b925090508061172557604080516001600160a01b038816815260006020820152600080516020614a58833981519152910160405180910390a150949350505050565b60606000846001600160a01b0316635229073f8560008660016040518563ffffffff1660e01b815260040161393d9493929190614436565b6000604051808303816000875af115801561395c573d6000803e3d6000fd5b505050506040513d6000823e601f3d908101601f191682016040526139849190810190614481565b925090508061267057604080516001600160a01b038716815260006020820152600080516020614a58833981519152910160405180910390a1509392505050565b60006001600160801b03608083013516610663565b6000610663826080013560801c90565b60006001600160801b0360c083013516610663565b600060c082013560801c610663565b6001600160a01b0381168114613a2357600080fd5b50565b803561161b81613a0e565b60008083601f840112613a4357600080fd5b5081356001600160401b03811115613a5a57600080fd5b60208301915083602082850101111561054e57600080fd5b60008060008060608587031215613a8857600080fd5b843593506020850135613a9a81613a0e565b925060408501356001600160401b03811115613ab557600080fd5b613ac187828801613a31565b95989497509550505050565b600080600060408486031215613ae257600080fd5b8335925060208401356001600160401b03811115613aff57600080fd5b613b0b86828701613a31565b9497909650939450505050565b600080600060608486031215613b2d57600080fd5b83356001600160401b03811115613b4357600080fd5b84016101208187031215613b5657600080fd5b95602085013595506040909401359392505050565b60008083601f840112613b7d57600080fd5b5081356001600160401b03811115613b9457600080fd5b6020830191508360208260051b850101111561054e57600080fd5b600060608284031215613bc157600080fd5b50919050565b600080600080600080600080600060a08a8c031215613be557600080fd5b89356001600160401b0380821115613bfc57600080fd5b613c088d838e01613b6b565b909b50995060208c0135915080821115613c2157600080fd5b613c2d8d838e01613b6b565b909950975060408c0135915080821115613c4657600080fd5b613c528d838e01613b6b565b909750955060608c0135915080821115613c6b57600080fd5b613c778d838e01613b6b565b909550935060808c0135915080821115613c9057600080fd5b50613c9d8c828d01613baf565b9150509295985092959850929598565b60008060208385031215613cc057600080fd5b82356001600160401b03811115613cd657600080fd5b613ce285828601613b6b565b90969095509350505050565b60008060408385031215613d0157600080fd5b8235613d0c81613a0e565b946020939093013593505050565b604080825283519082018190526000906020906060840190828701845b82811015613d5c5781516001600160a01b031684529284019290840190600101613d37565b5050506001600160a01b039490941660209390930192909252509092915050565b60005b83811015613d98578181015183820152602001613d80565b50506000910152565b60008151808452613db9816020860160208601613d7d565b601f01601f19169290920160200192915050565b6020815260006109d76020830184613da1565b6001600160e01b031981168114613a2357600080fd5b600060208284031215613e0857600080fd5b81356109d781613de0565b600060208284031215613e2557600080fd5b5035919050565b600060208083016020845280855180835260408601915060408160051b87010192506020870160005b82811015613e8357603f19888603018452613e71858351613da1565b94509285019290850190600101613e55565b5092979650505050505050565b60008060408385031215613ea357600080fd5b8235613eae81613a0e565b91506020830135613ebe81613a0e565b809150509250929050565b803560ff8116811461161b57600080fd5b60008060008060608587031215613ef057600080fd5b8435613efb81613a0e565b935060208501356001600160401b03811115613f1657600080fd5b613f2287828801613b6b565b9094509250613f35905060408601613ec9565b905092959194509250565b81835281816020850137506000828201602090810191909152601f909101601f19169091010190565b60018060a01b0385168152836020820152606060408201526000613f91606083018486613f40565b9695505050505050565b634e487b7160e01b600052604160045260246000fd5b604051601f8201601f191681016001600160401b0381118282101715613fd957613fd9613f9b565b604052919050565b60006001600160401b03821115613ffa57613ffa613f9b565b50601f01601f191660200190565b600061401b61401684613fe1565b613fb1565b905082815283838301111561402f57600080fd5b6109d7836020830184613d7d565b600082601f83011261404e57600080fd5b6109d783835160208501614008565b60006020828403121561406f57600080fd5b81516001600160401b0381111561408557600080fd5b6107418482850161403d565b8284823760609190911b6bffffffffffffffffffffffff19169101908152601401919050565b6000602082840312156140c957600080fd5b5051919050565b600080858511156140e057600080fd5b838611156140ed57600080fd5b5050820193919092039150565b6bffffffffffffffffffffffff1981358181169160148510156141275780818660140360031b1b83161692505b505092915050565b8481526060602082015260006141486060830186613da1565b828103604084015261415b818587613f40565b979650505050505050565b60006020828403121561417857600080fd5b81516109d781613de0565b6000808335601e1984360301811261419a57600080fd5b83016020810192503590506001600160401b038111156141b957600080fd5b80360382131561054e57600080fd5b604081526141e9604082016141dc85613a26565b6001600160a01b03169052565b6020830135606082015260006142026040850185614183565b61012080608086015261421a61016086018385613f40565b92506142296060880188614183565b9250603f19808786030160a0880152614243858584613f40565b9450608089013560c088015260a089013560e0880152610100935060c08901358488015261427460e08a018a614183565b925081888703018489015261428a868483613f40565b955050614299848a018a614183565b94509250808786030161014088015250506142b5838383613f40565b93505050508260208301529392505050565b6000602082840312156142d957600080fd5b81356109d781613a0e565b6000808335601e198436030181126142fb57600080fd5b8301803591506001600160401b0382111561431557600080fd5b6020019150600581901b360382131561054e57600080fd5b60006020828403121561433f57600080fd5b6109d782613ec9565b634e487b7160e01b600052603260045260246000fd5b60008235603e1983360301811261437457600080fd5b9190910192915050565b8381526001600160a01b038316602082015260606040820181905260009061370c90830184613da1565b6000602082840312156143ba57600080fd5b81516001600160401b038111156143d057600080fd5b8201601f810184136143e157600080fd5b61074184825160208401614008565b64736166652d60d81b815260008251614410816005850160208701613d7d565b6e2e657263373537392e76302e302e3160881b6005939091019283015250601401919050565b60018060a01b038516815283602082015260806040820152600061445d6080830185613da1565b905060ff8316606083015295945050505050565b8051801515811461161b57600080fd5b6000806040838503121561449457600080fd5b61449d83614471565b915060208301516001600160401b038111156144b857600080fd5b6144c48582860161403d565b9150509250929050565b6001600160a01b038316815260406020820181905260009061074190830184613da1565b60006020828403121561450457600080fd5b6109d782614471565b80356002811061161b57600080fd5b6000806040838503121561452f57600080fd5b6145388361450d565b91506020830135613ebe81613de0565b82815260008251614560816020850160208701613d7d565b919091016020019392505050565b60ff8416815260406020808301829052908201839052600090849060608401835b868110156145bd5783356145a281613a0e565b6001600160a01b03168252928201929082019060010161458f565b50979650505050505050565b6000808335601e198436030181126145e057600080fd5b8301803591506001600160401b038211156145fa57600080fd5b60200191503681900382131561054e57600080fd5b634e487b7160e01b600052601160045260246000fd5b6000600182016146375761463761460f565b5060010190565b818103818111156106635761066361460f565b600082601f83011261466257600080fd5b813561467061401682613fe1565b81815284602083860101111561468557600080fd5b816020850160208301376000918101602001919091529392505050565b6000806000606084860312156146b757600080fd5b83356146c281613de0565b925060208401356001600160f81b0319811681146146df57600080fd5b915060408401356001600160401b038111156146fa57600080fd5b61470686828701614651565b9150509250925092565b60008060006060848603121561472557600080fd5b61472e8461450d565b925060208401356146df81613de0565b634e487b7160e01b600052602160045260246000fd5b6000806040838503121561476757600080fd5b823561477281613a0e565b915060208301356001600160401b0381111561478d57600080fd5b6144c485828601614651565b600080604083850312156147ac57600080fd5b823561477281613de0565b60208082528181018390526000906040808401600586901b850182018785805b8981101561485357888403603f190185528235368c9003605e190181126147fc578283fd5b8b016060813561480b81613a0e565b6001600160a01b03168652818901358987015261482a88830183614183565b9250818988015261483e8288018483613f40565b978a01979650505092870192506001016147d7565b50919998505050505050505050565b8035602083101561066357600019602084900360031b1b1692915050565b6001600160d01b031981358181169160068510156141275760069490940360031b84901b1690921692915050565b8183823760009101908152919050565b60006001600160401b038211156148d7576148d7613f9b565b5060051b60200190565b600082601f8301126148f257600080fd5b81516020614902614016836148be565b82815260059290921b8401810191818101908684111561492157600080fd5b8286015b848110156149605780516001600160401b038111156149445760008081fd5b6149528986838b010161403d565b845250918301918301614925565b509695505050505050565b60006020828403121561497d57600080fd5b81516001600160401b0381111561499357600080fd5b610741848285016148e1565b600080604083850312156149b257600080fd5b82516001600160401b03808211156149c957600080fd5b818501915085601f8301126149dd57600080fd5b815160206149ed614016836148be565b82815260059290921b84018101918181019089841115614a0c57600080fd5b948201945b83861015614a3157614a2286614471565b82529482019490820190614a11565b91880151919650909350505080821115614a4a57600080fd5b506144c4858286016148e156feb8bc84bd77f5eb08210b8eb20fd63b3ec6a7992d277ab94663bae0e066f792aca26469706673582212203d52d7f62861309acc400d376a1cfb2de830b4277cdee9d875b820319ee7cd3b64736f6c634300081900336080604052348015600f57600080fd5b506109b98061001f6000396000f3fe608060405234801561001057600080fd5b506004361061007d5760003560e01c80636a2216571161005b5780636a221657146100df57806378272525146100f25780639517e29f146101055780639abb6e171461011857600080fd5b80633f707e6b1461008257806350c890221461009757806361085573146100bf575b600080fd5b6100956100903660046105c9565b610139565b005b6100aa6100a53660046105c9565b6101a3565b60405190151581526020015b60405180910390f35b6100d26100cd3660046105c9565b610212565b6040516100b691906106c6565b6100956100ed366004610712565b6102cc565b6100956101003660046107d4565b6102ef565b6100956101133660046107d4565b610398565b61012b6101263660046105c9565b610437565b6040516100b692919061085b565b8060005b8181101561019d5736848483818110610158576101586108b5565b905060200281019061016a91906108cb565b905061019361017c60208301836108eb565b602083013561018e6040850185610906565b610561565b505060010161013d565b50505050565b600081815b8181101561020a57368585838181106101c3576101c36108b5565b90506020028101906101d591906108cb565b90506101fe6101e760208301836108eb565b60208301356101f96040850185610906565b610597565b509350506001016101a8565b505092915050565b6060818067ffffffffffffffff81111561022e5761022e6106fc565b60405190808252806020026020018201604052801561026157816020015b606081526020019060019003908161024c5790505b50915060005b8181101561020a5736858583818110610282576102826108b5565b905060200281019061029491906108cb565b90506102a661017c60208301836108eb565b8483815181106102b8576102b86108b5565b602090810291909101015250600101610267565b604051600080835160208501865afa3d6000833e80156102ea573d82f35b503d81fd5b604051638a91b0e360e01b81526001600160a01b03841690638a91b0e39061031d9085908590600401610954565b600060405180830381600087803b15801561033757600080fd5b505af115801561034b573d6000803e3d6000fd5b5050604080518781526001600160a01b03871660208201527f341347516a9de374859dfda710fa4828b2d48cb57d4fbe4c1149612b8e02276e93500190505b60405180910390a150505050565b6040516306d61fe760e41b81526001600160a01b03841690636d61fe70906103c69085908590600401610954565b600060405180830381600087803b1580156103e057600080fd5b505af11580156103f4573d6000803e3d6000fd5b5050604080518781526001600160a01b03871660208201527fd21d0b289f126c4b473ea641963e766833c2f13866e4ff480abd787c100ef123935001905061038a565b606080828067ffffffffffffffff811115610454576104546106fc565b60405190808252806020026020018201604052801561048757816020015b60608152602001906001900390816104725790505b5091508067ffffffffffffffff8111156104a3576104a36106fc565b6040519080825280602002602001820160405280156104cc578160200160208202803683370190505b50925060005b8181101561055857368686838181106104ed576104ed6108b5565b90506020028101906104ff91906108cb565b90506105116101e760208301836108eb565b868481518110610523576105236108b5565b6020026020010186858151811061053c5761053c6108b5565b60209081029190910101919091529015159052506001016104d2565b50509250929050565b60405181838237600038838387895af161057e573d6000823e3d81fd5b3d8152602081013d6000823e3d01604052949350505050565b604051600090828482376000388483888a5af11591503d8152602081013d6000823e3d81016040525094509492505050565b600080602083850312156105dc57600080fd5b823567ffffffffffffffff808211156105f457600080fd5b818501915085601f83011261060857600080fd5b81358181111561061757600080fd5b8660208260051b850101111561062c57600080fd5b60209290920196919550909350505050565b600082825180855260208086019550808260051b8401018186016000805b858110156106b857601f1980888603018b5283518051808752845b81811015610692578281018901518882018a01528801610677565b5086810188018590529b87019b601f01909116909401850193509184019160010161065c565b509198975050505050505050565b6020815260006106d9602083018461063e565b9392505050565b80356001600160a01b03811681146106f757600080fd5b919050565b634e487b7160e01b600052604160045260246000fd5b6000806040838503121561072557600080fd5b61072e836106e0565b9150602083013567ffffffffffffffff8082111561074b57600080fd5b818501915085601f83011261075f57600080fd5b813581811115610771576107716106fc565b604051601f8201601f19908116603f01168101908382118183101715610799576107996106fc565b816040528281528860208487010111156107b257600080fd5b8260208601602083013760006020848301015280955050505050509250929050565b600080600080606085870312156107ea57600080fd5b843593506107fa602086016106e0565b9250604085013567ffffffffffffffff8082111561081757600080fd5b818701915087601f83011261082b57600080fd5b81358181111561083a57600080fd5b88602082850101111561084c57600080fd5b95989497505060200194505050565b604080825283519082018190526000906020906060840190828701845b82811015610896578151151584529284019290840190600101610878565b50505083810360208501526108ab818661063e565b9695505050505050565b634e487b7160e01b600052603260045260246000fd5b60008235605e198336030181126108e157600080fd5b9190910192915050565b6000602082840312156108fd57600080fd5b6106d9826106e0565b6000808335601e1984360301811261091d57600080fd5b83018035915067ffffffffffffffff82111561093857600080fd5b60200191503681900382131561094d57600080fd5b9250929050565b60208152816020820152818360408301376000818301604090810191909152601f909201601f1916010191905056fea26469706673582212207d2978bdb7955af46c5c825e970f48aee484e6e937032ee1d9af3166b1692bf964736f6c63430008190033",
    "linkReferences": {}
  },
  "methodIdentifiers": {
    "accountId()": "9cfd7cff",
    "domainSeparator()": "f698da25",
    "entryPoint()": "b0d691fe",
    "execute(bytes32,bytes)": "e9ae5c53",
    "executeFromExecutor(bytes32,bytes)": "d691c964",
    "getActiveHook()": "0a664dba",
    "getActiveHook(bytes4)": "b875d5d8",
    "getExecutorsPaginated(address,uint256)": "ea5f61d0",
    "getNonce(address,address)": "d828435d",
    "getValidatorPaginated(address,uint256)": "85571368",
    "initializeAccount((address,bytes)[],(address,bytes)[],(address,bytes)[],(address,bytes)[],(address,address[],uint8))": "540fb4f9",
    "installModule(uint256,address,bytes)": "9517e29f",
    "isModuleInstalled(uint256,address,bytes)": "112d3a7d",
    "isValidSignature(bytes32,bytes)": "1626ba7e",
    "launchpadValidators((address,bytes)[])": "6a5e1515",
    "setRegistry(address,address[],uint8)": "eab77e17",
    "supportsExecutionMode(bytes32)": "d03c7914",
    "supportsModule(uint256)": "f2dc691d",
    "uninstallModule(uint256,address,bytes)": "a71763a8",
    "validateUserOp((address,uint256,bytes,bytes,bytes32,uint256,bytes32,bytes,bytes),bytes32,uint256)": "19822f7c"
  },
  "id": 96
}