{
  "abi": [
    {
      "type": "constructor",
      "inputs": [
        {
          "name": "entryPoint",
          "type": "address",
          "internalType": "address"
        },
        {
          "name": "registry",
          "type": "address",
          "internalType": "contract IERC7484"
        }
      ],
      "stateMutability": "nonpayable"
    },
    {
      "type": "receive",
      "stateMutability": "payable"
    },
    {
      "type": "function",
      "name": "REGISTRY",
      "inputs": [],
      "outputs": [
        {
          "name": "",
          "type": "address",
          "internalType": "contract IERC7484"
        }
      ],
      "stateMutability": "view"
    },
    {
      "type": "function",
      "name": "SUPPORTED_ENTRYPOINT",
      "inputs": [],
      "outputs": [
        {
          "name": "",
          "type": "address",
          "internalType": "address"
        }
      ],
      "stateMutability": "view"
    },
    {
      "type": "function",
      "name": "_initHash",
      "inputs": [],
      "outputs": [
        {
          "name": "value",
          "type": "bytes32",
          "internalType": "bytes32"
        }
      ],
      "stateMutability": "view"
    },
    {
      "type": "function",
      "name": "hash",
      "inputs": [
        {
          "name": "data",
          "type": "tuple",
          "internalType": "struct Safe7579Launchpad.InitData",
          "components": [
            {
              "name": "singleton",
              "type": "address",
              "internalType": "address"
            },
            {
              "name": "owners",
              "type": "address[]",
              "internalType": "address[]"
            },
            {
              "name": "threshold",
              "type": "uint256",
              "internalType": "uint256"
            },
            {
              "name": "setupTo",
              "type": "address",
              "internalType": "address"
            },
            {
              "name": "setupData",
              "type": "bytes",
              "internalType": "bytes"
            },
            {
              "name": "safe7579",
              "type": "address",
              "internalType": "contract ISafe7579"
            },
            {
              "name": "validators",
              "type": "tuple[]",
              "internalType": "struct ModuleInit[]",
              "components": [
                {
                  "name": "module",
                  "type": "address",
                  "internalType": "address"
                },
                {
                  "name": "initData",
                  "type": "bytes",
                  "internalType": "bytes"
                }
              ]
            },
            {
              "name": "callData",
              "type": "bytes",
              "internalType": "bytes"
            }
          ]
        }
      ],
      "outputs": [
        {
          "name": "",
          "type": "bytes32",
          "internalType": "bytes32"
        }
      ],
      "stateMutability": "pure"
    },
    {
      "type": "function",
      "name": "initSafe7579",
      "inputs": [
        {
          "name": "safe7579",
          "type": "address",
          "internalType": "address"
        },
        {
          "name": "executors",
          "type": "tuple[]",
          "internalType": "struct ModuleInit[]",
          "components": [
            {
              "name": "module",
              "type": "address",
              "internalType": "address"
            },
            {
              "name": "initData",
              "type": "bytes",
              "internalType": "bytes"
            }
          ]
        },
        {
          "name": "fallbacks",
          "type": "tuple[]",
          "internalType": "struct ModuleInit[]",
          "components": [
            {
              "name": "module",
              "type": "address",
              "internalType": "address"
            },
            {
              "name": "initData",
              "type": "bytes",
              "internalType": "bytes"
            }
          ]
        },
        {
          "name": "hooks",
          "type": "tuple[]",
          "internalType": "struct ModuleInit[]",
          "components": [
            {
              "name": "module",
              "type": "address",
              "internalType": "address"
            },
            {
              "name": "initData",
              "type": "bytes",
              "internalType": "bytes"
            }
          ]
        },
        {
          "name": "attesters",
          "type": "address[]",
          "internalType": "address[]"
        },
        {
          "name": "threshold",
          "type": "uint8",
          "internalType": "uint8"
        }
      ],
      "outputs": [],
      "stateMutability": "nonpayable"
    },
    {
      "type": "function",
      "name": "preValidationSetup",
      "inputs": [
        {
          "name": "initHash",
          "type": "bytes32",
          "internalType": "bytes32"
        },
        {
          "name": "to",
          "type": "address",
          "internalType": "address"
        },
        {
          "name": "preInit",
          "type": "bytes",
          "internalType": "bytes"
        }
      ],
      "outputs": [],
      "stateMutability": "nonpayable"
    },
    {
      "type": "function",
      "name": "predictSafeAddress",
      "inputs": [
        {
          "name": "singleton",
          "type": "address",
          "internalType": "address"
        },
        {
          "name": "safeProxyFactory",
          "type": "address",
          "internalType": "address"
        },
        {
          "name": "creationCode",
          "type": "bytes",
          "internalType": "bytes"
        },
        {
          "name": "salt",
          "type": "bytes32",
          "internalType": "bytes32"
        },
        {
          "name": "factoryInitializer",
          "type": "bytes",
          "internalType": "bytes"
        }
      ],
      "outputs": [
        {
          "name": "safeProxy",
          "type": "address",
          "internalType": "address"
        }
      ],
      "stateMutability": "pure"
    },
    {
      "type": "function",
      "name": "setupSafe",
      "inputs": [
        {
          "name": "initData",
          "type": "tuple",
          "internalType": "struct Safe7579Launchpad.InitData",
          "components": [
            {
              "name": "singleton",
              "type": "address",
              "internalType": "address"
            },
            {
              "name": "owners",
              "type": "address[]",
              "internalType": "address[]"
            },
            {
              "name": "threshold",
              "type": "uint256",
              "internalType": "uint256"
            },
            {
              "name": "setupTo",
              "type": "address",
              "internalType": "address"
            },
            {
              "name": "setupData",
              "type": "bytes",
              "internalType": "bytes"
            },
            {
              "name": "safe7579",
              "type": "address",
              "internalType": "contract ISafe7579"
            },
            {
              "name": "validators",
              "type": "tuple[]",
              "internalType": "struct ModuleInit[]",
              "components": [
                {
                  "name": "module",
                  "type": "address",
                  "internalType": "address"
                },
                {
                  "name": "initData",
                  "type": "bytes",
                  "internalType": "bytes"
                }
              ]
            },
            {
              "name": "callData",
              "type": "bytes",
              "internalType": "bytes"
            }
          ]
        }
      ],
      "outputs": [],
      "stateMutability": "nonpayable"
    },
    {
      "type": "function",
      "name": "validateUserOp",
      "inputs": [
        {
          "name": "userOp",
          "type": "tuple",
          "internalType": "struct PackedUserOperation",
          "components": [
            {
              "name": "sender",
              "type": "address",
              "internalType": "address"
            },
            {
              "name": "nonce",
              "type": "uint256",
              "internalType": "uint256"
            },
            {
              "name": "initCode",
              "type": "bytes",
              "internalType": "bytes"
            },
            {
              "name": "callData",
              "type": "bytes",
              "internalType": "bytes"
            },
            {
              "name": "accountGasLimits",
              "type": "bytes32",
              "internalType": "bytes32"
            },
            {
              "name": "preVerificationGas",
              "type": "uint256",
              "internalType": "uint256"
            },
            {
              "name": "gasFees",
              "type": "bytes32",
              "internalType": "bytes32"
            },
            {
              "name": "paymasterAndData",
              "type": "bytes",
              "internalType": "bytes"
            },
            {
              "name": "signature",
              "type": "bytes",
              "internalType": "bytes"
            }
          ]
        },
        {
          "name": "userOpHash",
          "type": "bytes32",
          "internalType": "bytes32"
        },
        {
          "name": "missingAccountFunds",
          "type": "uint256",
          "internalType": "uint256"
        }
      ],
      "outputs": [
        {
          "name": "validationData",
          "type": "uint256",
          "internalType": "uint256"
        }
      ],
      "stateMutability": "nonpayable"
    },
    {
      "type": "event",
      "name": "ModuleInstalled",
      "inputs": [
        {
          "name": "moduleTypeId",
          "type": "uint256",
          "indexed": false,
          "internalType": "uint256"
        },
        {
          "name": "module",
          "type": "address",
          "indexed": false,
          "internalType": "address"
        }
      ],
      "anonymous": false
    },
    {
      "type": "error",
      "name": "InvalidEntryPoint",
      "inputs": []
    },
    {
      "type": "error",
      "name": "InvalidInitHash",
      "inputs": []
    },
    {
      "type": "error",
      "name": "InvalidUserOperationData",
      "inputs": []
    },
    {
      "type": "error",
      "name": "OnlyDelegatecall",
      "inputs": []
    },
    {
      "type": "error",
      "name": "OnlyProxy",
      "inputs": []
    },
    {
      "type": "error",
      "name": "PreValidationSetupFailed",
      "inputs": []
    }
  ],
  "bytecode": {
    "object": "0x60e060405234801561001057600080fd5b506040516119ec3803806119ec83398101604081905261002f91610089565b6001600160a01b03821661005657604051632039d3c960e01b815260040160405180910390fd5b306080526001600160a01b0391821660a0521660c0526100c3565b6001600160a01b038116811461008657600080fd5b50565b6000806040838503121561009c57600080fd5b82516100a781610071565b60208401519092506100b881610071565b809150509250929050565b60805160a05160c0516118e061010c6000396000818160a801526102e901526000818160f90152818161041701526109850152600081816103c2015261075401526118e06000f3fe60806040526004361061008a5760003560e01c80634fff40e1116100595780634fff40e11461016b578063663c87d81461018b578063928107f9146101ab578063c67e2d2a146101cb578063d9ed0e8f146101ed57600080fd5b806306433b1b14610096578063137e051e146100e757806315cca6381461011b57806319822f7c1461013d57600080fd5b3661009157005b600080fd5b3480156100a257600080fd5b506100ca7f000000000000000000000000000000000000000000000000000000000000000081565b6040516001600160a01b0390911681526020015b60405180910390f35b3480156100f357600080fd5b506100ca7f000000000000000000000000000000000000000000000000000000000000000081565b34801561012757600080fd5b5061013b610136366004610bdc565b61020d565b005b34801561014957600080fd5b5061015d610158366004610cc0565b6103bc565b6040519081526020016100de565b34801561017757600080fd5b5061013b610186366004610d13565b61074f565b34801561019757600080fd5b506100ca6101a6366004610e9b565b610849565b3480156101b757600080fd5b5061015d6101c6366004611092565b610928565b3480156101d757600080fd5b5060008051602061188b8339815191525461015d565b3480156101f957600080fd5b5061013b6102083660046111a8565b61097a565b33301461022d57604051630a57d61d60e01b815260040160405180910390fd5b60405163610b592560e01b81526001600160a01b038b166004820152309063610b592590602401600060405180830381600087803b15801561026e57600080fd5b505af1158015610282573d6000803e3d6000fd5b5050604080516000808252602082019092526001600160a01b038e16935063540fb4f99250906102d5565b6040805180820190915260008152606060208201528152602001906001900390816102ad5790505b508b8b8b8b8b8b60405180606001604052807f00000000000000000000000000000000000000000000000000000000000000006001600160a01b031681526020018d8d8080602002602001604051908101604052809392919081815260200183836020028082843760009201919091525050509082525060ff8c166020909101526040516001600160e01b031960e08b901b16815261037e9897969594939291906004016113f7565b600060405180830381600087803b15801561039857600080fd5b505af11580156103ac573d6000803e3d6000fd5b5050505050505050505050505050565b600080547f00000000000000000000000000000000000000000000000000000000000000006001600160a01b0390811691161461040c576040516308e3edd160e41b815260040160405180910390fd5b336001600160a01b037f0000000000000000000000000000000000000000000000000000000000000000161461045557604051632039d3c960e01b815260040160405180910390fd5b6104626060850185611497565b610471916004916000916114dd565b61047a91611507565b6001600160e01b03191663d9ed0e8f60e01b146104aa5760405163c3d40f7760e01b815260040160405180910390fd5b60006104b96060860186611497565b6104c79160049082906114dd565b8101906104d49190611092565b90506104ec60008051602061188b8339815191525490565b6104f582610928565b146105135760405163278328b160e21b815260040160405180910390fd5b60a081015160c0820151604051636a5e151560e01b81526020880135606081901c9390926001600160a01b0390911691636a5e15159161055591600401611537565b600060405180830381600087803b15801561056f57600080fd5b505af1158015610583573d6000803e3d6000fd5b50505060c08401515160009150815b818110156106a95760008660c0015182815181106105b2576105b261154a565b6020026020010151600001519050806001600160a01b0316636d61fe708860c0015184815181106105e5576105e561154a565b6020026020010151602001516040518263ffffffff1660e01b815260040161060d9190611560565b600060405180830381600087803b15801561062757600080fd5b505af115801561063b573d6000803e3d6000fd5b505060408051600181526001600160a01b03851660208201527fd21d0b289f126c4b473ea641963e766833c2f13866e4ff480abd787c100ef123935001905060405180910390a1856001600160a01b0316816001600160a01b0316036106a057600193505b50600101610592565b50816106bd57600195505050505050610748565b604051639700320360e01b81526001600160a01b038516906397003203906106eb908c908c90600401611573565b6020604051808303816000875af115801561070a573d6000803e3d6000fd5b505050506040513d601f19601f8201168201806040525081019061072e9190611672565b95508615610742576000806000808a335af1505b50505050505b9392505050565b6000547f00000000000000000000000000000000000000000000000000000000000000006001600160a01b0390811691161461079e576040516308e3edd160e41b815260040160405180910390fd5b6107b48460008051602061188b83398151915255565b6001600160a01b03831615610843576000836001600160a01b031683836040516107df92919061168b565b600060405180830381855af49150503d806000811461081a576040519150601f19603f3d011682016040523d82523d6000602084013e61081f565b606091505b505090508061084157604051631f57fed560e31b815260040160405180910390fd5b505b50505050565b600081805190602001208360405160200161086e929190918252602082015260400190565b60405160208183030381529060405280519060200120925060ff60f81b858486896001600160a01b03166040516020016108a992919061169b565b6040516020818303038152906040528051906020012060405160200161090694939291906001600160f81b031994909416845260609290921b6bffffffffffffffffffffffff191660018401526015830152603582015260550190565b60408051601f1981840301815291905280516020909101209695505050505050565b80516020808301516040808501516060860151608087015160a088015160c0890151945160009861095d9890979691016116bd565b604051602081830303815290604052805190602001209050919050565b336001600160a01b037f000000000000000000000000000000000000000000000000000000000000000016146109c357604051632039d3c960e01b815260040160405180910390fd5b6109d0602082018261172a565b600080546001600160a01b0319166001600160a01b03929092169190911790553063b63e800d610a036020840184611747565b6040850135610a18608087016060880161172a565b610a256080880188611497565b610a3560c08a0160a08b0161172a565b60008060006040518b63ffffffff1660e01b8152600401610a5f9a99989796959493929190611790565b600060405180830381600087803b158015610a7957600080fd5b505af1158015610a8d573d6000803e3d6000fd5b5050600060008051602061188b8339815191525550610aa99050565b600080610abc60c0840160a0850161172a565b6001600160a01b0316610ad260e0850185611497565b30604051602001610ae593929190611848565b60408051601f1981840301815290829052610aff9161186e565b6000604051808303816000865af19150503d8060008114610b3c576040519150601f19603f3d011682016040523d82523d6000602084013e610b41565b606091505b509150915081610b5357805160208201fd5b505050565b6001600160a01b0381168114610b6d57600080fd5b50565b8035610b7b81610b58565b919050565b60008083601f840112610b9257600080fd5b5081356001600160401b03811115610ba957600080fd5b6020830191508360208260051b8501011115610bc457600080fd5b9250929050565b803560ff81168114610b7b57600080fd5b60008060008060008060008060008060c08b8d031215610bfb57600080fd5b610c048b610b70565b995060208b01356001600160401b0380821115610c2057600080fd5b610c2c8e838f01610b80565b909b50995060408d0135915080821115610c4557600080fd5b610c518e838f01610b80565b909950975060608d0135915080821115610c6a57600080fd5b610c768e838f01610b80565b909750955060808d0135915080821115610c8f57600080fd5b50610c9c8d828e01610b80565b9094509250610caf905060a08c01610bcb565b90509295989b9194979a5092959850565b600080600060608486031215610cd557600080fd5b83356001600160401b03811115610ceb57600080fd5b84016101208187031215610cfe57600080fd5b95602085013595506040909401359392505050565b60008060008060608587031215610d2957600080fd5b843593506020850135610d3b81610b58565b925060408501356001600160401b0380821115610d5757600080fd5b818701915087601f830112610d6b57600080fd5b813581811115610d7a57600080fd5b886020828501011115610d8c57600080fd5b95989497505060200194505050565b634e487b7160e01b600052604160045260246000fd5b604080519081016001600160401b0381118282101715610dd357610dd3610d9b565b60405290565b60405161010081016001600160401b0381118282101715610dd357610dd3610d9b565b604051601f8201601f191681016001600160401b0381118282101715610e2457610e24610d9b565b604052919050565b600082601f830112610e3d57600080fd5b81356001600160401b03811115610e5657610e56610d9b565b610e69601f8201601f1916602001610dfc565b818152846020838601011115610e7e57600080fd5b816020850160208301376000918101602001919091529392505050565b600080600080600060a08688031215610eb357600080fd5b8535610ebe81610b58565b94506020860135610ece81610b58565b935060408601356001600160401b0380821115610eea57600080fd5b610ef689838a01610e2c565b9450606088013593506080880135915080821115610f1357600080fd5b50610f2088828901610e2c565b9150509295509295909350565b60006001600160401b03821115610f4657610f46610d9b565b5060051b60200190565b600082601f830112610f6157600080fd5b81356020610f76610f7183610f2d565b610dfc565b8083825260208201915060208460051b870101935086841115610f9857600080fd5b602086015b84811015610fbd578035610fb081610b58565b8352918301918301610f9d565b509695505050505050565b600082601f830112610fd957600080fd5b81356020610fe9610f7183610f2d565b82815260059290921b8401810191818101908684111561100857600080fd5b8286015b84811015610fbd5780356001600160401b038082111561102c5760008081fd5b908801906040828b03601f19018113156110465760008081fd5b61104e610db1565b8784013561105b81610b58565b81529083013590828211156110705760008081fd5b61107e8c8984870101610e2c565b81890152865250505091830191830161100c565b6000602082840312156110a457600080fd5b81356001600160401b03808211156110bb57600080fd5b9083019061010082860312156110d057600080fd5b6110d8610dd9565b6110e183610b70565b81526020830135828111156110f557600080fd5b61110187828601610f50565b6020830152506040830135604082015261111d60608401610b70565b606082015260808301358281111561113457600080fd5b61114087828601610e2c565b60808301525061115260a08401610b70565b60a082015260c08301358281111561116957600080fd5b61117587828601610fc8565b60c08301525060e08301358281111561118d57600080fd5b61119987828601610e2c565b60e08301525095945050505050565b6000602082840312156111ba57600080fd5b81356001600160401b038111156111d057600080fd5b8201610100818503121561074857600080fd5b60005b838110156111fe5781810151838201526020016111e6565b50506000910152565b6000815180845261121f8160208601602086016111e3565b601f01601f19169290920160200192915050565b600082825180855260208086019550808260051b84010181860160005b8481101561129b57858303601f19018952815180516001600160a01b03168452840151604085850181905261128781860183611207565b9a86019a9450505090830190600101611250565b5090979650505050505050565b6000808335601e198436030181126112bf57600080fd5b83016020810192503590506001600160401b038111156112de57600080fd5b803603821315610bc457600080fd5b81835281816020850137506000828201602090810191909152601f909101601f19169091010190565b60008383855260208086019550808560051b830101846000805b888110156113a457858403601f19018a52823536899003603e19018112611355578283fd5b88016040813561136481610b58565b6001600160a01b0316865261137b828801836112a8565b9250818888015261138f82880184836112ed565b9c88019c965050509285019250600101611330565b509198975050505050505050565b60008151808452602080850194506020840160005b838110156113ec5781516001600160a01b0316875295820195908201906001016113c7565b509495945050505050565b60a08152600061140a60a083018b611233565b828103602084015261141d818a8c611316565b9050828103604084015261143281888a611316565b90508281036060840152611447818688611316565b9050828103608084015260018060a01b03845116815260208401516060602083015261147660608301826113b2565b905060ff604086015116604083015280925050509998505050505050505050565b6000808335601e198436030181126114ae57600080fd5b8301803591506001600160401b038211156114c857600080fd5b602001915036819003821315610bc457600080fd5b600080858511156114ed57600080fd5b838611156114fa57600080fd5b5050820193919092039150565b6001600160e01b0319813581811691600485101561152f5780818660040360031b1b83161692505b505092915050565b6020815260006107486020830184611233565b634e487b7160e01b600052603260045260246000fd5b6020815260006107486020830184611207565b604081526115946040820161158785610b70565b6001600160a01b03169052565b6020830135606082015260006115ad60408501856112a8565b6101208060808601526115c5610160860183856112ed565b92506115d460608801886112a8565b9250603f19808786030160a08801526115ee8585846112ed565b9450608089013560c088015260a089013560e0880152610100935060c08901358488015261161f60e08a018a6112a8565b92508188870301848901526116358684836112ed565b955050611644848a018a6112a8565b94509250808786030161014088015250506116608383836112ed565b93505050508260208301529392505050565b60006020828403121561168457600080fd5b5051919050565b8183823760009101908152919050565b600083516116ad8184602088016111e3565b9190910191825250602001919050565b600060018060a01b03808a16835260e060208401526116df60e084018a6113b2565b886040850152818816606085015283810360808501526116ff8188611207565b905081861660a085015283810360c085015261171b8186611233565b9b9a5050505050505050505050565b60006020828403121561173c57600080fd5b813561074881610b58565b6000808335601e1984360301811261175e57600080fd5b8301803591506001600160401b0382111561177857600080fd5b6020019150600581901b3603821315610bc457600080fd5b61010080825281018a9052600061012082018c825b8d8110156117d65781356117b881610b58565b6001600160a01b0316835260209283019291909101906001016117a5565b50508a60208401526117f3604084018b6001600160a01b03169052565b828103606084015261180681898b6112ed565b91505061181e60808301876001600160a01b03169052565b6001600160a01b03851660a08301528360c083015261171b60e08301846001600160a01b03169052565b8284823760609190911b6bffffffffffffffffffffffff19169101908152601401919050565b600082516118808184602087016111e3565b919091019291505056fe982e06ee6a56dfc0f1ac189a5d23506361ca0a3ce45a9c7b8d33d65d43746a24a2646970667358221220f6c1cebafebd485bfa0ad0ab53b71c7e6c59efc34bc0505b6463e156ed9e1f3864736f6c63430008190033",
    "linkReferences": {}
  },
  "methodIdentifiers": {
    "REGISTRY()": "06433b1b",
    "SUPPORTED_ENTRYPOINT()": "137e051e",
    "_initHash()": "c67e2d2a",
    "hash((address,address[],uint256,address,bytes,address,(address,bytes)[],bytes))": "928107f9",
    "initSafe7579(address,(address,bytes)[],(address,bytes)[],(address,bytes)[],address[],uint8)": "15cca638",
    "preValidationSetup(bytes32,address,bytes)": "4fff40e1",
    "predictSafeAddress(address,address,bytes,bytes32,bytes)": "663c87d8",
    "setupSafe((address,address[],uint256,address,bytes,address,(address,bytes)[],bytes))": "d9ed0e8f",
    "validateUserOp((address,uint256,bytes,bytes,bytes32,uint256,bytes32,bytes,bytes),bytes32,uint256)": "19822f7c"
  },
  "id": 97
}