{
  "abi": [
    {
      "type": "constructor",
      "inputs": [
        {
          "name": "entryPoint",
          "type": "address",
          "internalType": "address"
        },
        {
          "name": "registry",
          "type": "address",
          "internalType": "contract IERC7484"
        }
      ],
      "stateMutability": "nonpayable"
    },
    {
      "type": "receive",
      "stateMutability": "payable"
    },
    {
      "type": "function",
      "name": "REGISTRY",
      "inputs": [],
      "outputs": [
        {
          "name": "",
          "type": "address",
          "internalType": "contract IERC7484"
        }
      ],
      "stateMutability": "view"
    },
    {
      "type": "function",
      "name": "SUPPORTED_ENTRYPOINT",
      "inputs": [],
      "outputs": [
        {
          "name": "",
          "type": "address",
          "internalType": "address"
        }
      ],
      "stateMutability": "view"
    },
    {
      "type": "function",
      "name": "accountId",
      "inputs": [],
      "outputs": [
        {
          "name": "accountImplementationId",
          "type": "string",
          "internalType": "string"
        }
      ],
      "stateMutability": "pure"
    },
    {
      "type": "function",
      "name": "addSafe7579",
      "inputs": [
        {
          "name": "safe7579",
          "type": "address",
          "internalType": "address"
        },
        {
          "name": "validators",
          "type": "tuple[]",
          "internalType": "struct ModuleInit[]",
          "components": [
            {
              "name": "module",
              "type": "address",
              "internalType": "address"
            },
            {
              "name": "initData",
              "type": "bytes",
              "internalType": "bytes"
            }
          ]
        },
        {
          "name": "executors",
          "type": "tuple[]",
          "internalType": "struct ModuleInit[]",
          "components": [
            {
              "name": "module",
              "type": "address",
              "internalType": "address"
            },
            {
              "name": "initData",
              "type": "bytes",
              "internalType": "bytes"
            }
          ]
        },
        {
          "name": "fallbacks",
          "type": "tuple[]",
          "internalType": "struct ModuleInit[]",
          "components": [
            {
              "name": "module",
              "type": "address",
              "internalType": "address"
            },
            {
              "name": "initData",
              "type": "bytes",
              "internalType": "bytes"
            }
          ]
        },
        {
          "name": "hooks",
          "type": "tuple[]",
          "internalType": "struct ModuleInit[]",
          "components": [
            {
              "name": "module",
              "type": "address",
              "internalType": "address"
            },
            {
              "name": "initData",
              "type": "bytes",
              "internalType": "bytes"
            }
          ]
        },
        {
          "name": "attesters",
          "type": "address[]",
          "internalType": "address[]"
        },
        {
          "name": "threshold",
          "type": "uint8",
          "internalType": "uint8"
        }
      ],
      "outputs": [],
      "stateMutability": "nonpayable"
    },
    {
      "type": "function",
      "name": "domainSeparator",
      "inputs": [],
      "outputs": [
        {
          "name": "",
          "type": "bytes32",
          "internalType": "bytes32"
        }
      ],
      "stateMutability": "view"
    },
    {
      "type": "function",
      "name": "getInitHash",
      "inputs": [],
      "outputs": [
        {
          "name": "value",
          "type": "bytes32",
          "internalType": "bytes32"
        }
      ],
      "stateMutability": "view"
    },
    {
      "type": "function",
      "name": "getSafeOp",
      "inputs": [
        {
          "name": "userOp",
          "type": "tuple",
          "internalType": "struct PackedUserOperation",
          "components": [
            {
              "name": "sender",
              "type": "address",
              "internalType": "address"
            },
            {
              "name": "nonce",
              "type": "uint256",
              "internalType": "uint256"
            },
            {
              "name": "initCode",
              "type": "bytes",
              "internalType": "bytes"
            },
            {
              "name": "callData",
              "type": "bytes",
              "internalType": "bytes"
            },
            {
              "name": "accountGasLimits",
              "type": "bytes32",
              "internalType": "bytes32"
            },
            {
              "name": "preVerificationGas",
              "type": "uint256",
              "internalType": "uint256"
            },
            {
              "name": "gasFees",
              "type": "bytes32",
              "internalType": "bytes32"
            },
            {
              "name": "paymasterAndData",
              "type": "bytes",
              "internalType": "bytes"
            },
            {
              "name": "signature",
              "type": "bytes",
              "internalType": "bytes"
            }
          ]
        },
        {
          "name": "entryPoint",
          "type": "address",
          "internalType": "address"
        }
      ],
      "outputs": [
        {
          "name": "operationData",
          "type": "bytes",
          "internalType": "bytes"
        },
        {
          "name": "validAfter",
          "type": "uint48",
          "internalType": "uint48"
        },
        {
          "name": "validUntil",
          "type": "uint48",
          "internalType": "uint48"
        },
        {
          "name": "signatures",
          "type": "bytes",
          "internalType": "bytes"
        }
      ],
      "stateMutability": "view"
    },
    {
      "type": "function",
      "name": "hash",
      "inputs": [
        {
          "name": "data",
          "type": "tuple",
          "internalType": "struct Safe7579Launchpad.InitData",
          "components": [
            {
              "name": "singleton",
              "type": "address",
              "internalType": "address"
            },
            {
              "name": "owners",
              "type": "address[]",
              "internalType": "address[]"
            },
            {
              "name": "threshold",
              "type": "uint256",
              "internalType": "uint256"
            },
            {
              "name": "setupTo",
              "type": "address",
              "internalType": "address"
            },
            {
              "name": "setupData",
              "type": "bytes",
              "internalType": "bytes"
            },
            {
              "name": "safe7579",
              "type": "address",
              "internalType": "contract ISafe7579"
            },
            {
              "name": "validators",
              "type": "tuple[]",
              "internalType": "struct ModuleInit[]",
              "components": [
                {
                  "name": "module",
                  "type": "address",
                  "internalType": "address"
                },
                {
                  "name": "initData",
                  "type": "bytes",
                  "internalType": "bytes"
                }
              ]
            },
            {
              "name": "callData",
              "type": "bytes",
              "internalType": "bytes"
            }
          ]
        }
      ],
      "outputs": [
        {
          "name": "",
          "type": "bytes32",
          "internalType": "bytes32"
        }
      ],
      "stateMutability": "pure"
    },
    {
      "type": "function",
      "name": "initSafe7579",
      "inputs": [
        {
          "name": "safe7579",
          "type": "address",
          "internalType": "address"
        },
        {
          "name": "executors",
          "type": "tuple[]",
          "internalType": "struct ModuleInit[]",
          "components": [
            {
              "name": "module",
              "type": "address",
              "internalType": "address"
            },
            {
              "name": "initData",
              "type": "bytes",
              "internalType": "bytes"
            }
          ]
        },
        {
          "name": "fallbacks",
          "type": "tuple[]",
          "internalType": "struct ModuleInit[]",
          "components": [
            {
              "name": "module",
              "type": "address",
              "internalType": "address"
            },
            {
              "name": "initData",
              "type": "bytes",
              "internalType": "bytes"
            }
          ]
        },
        {
          "name": "hooks",
          "type": "tuple[]",
          "internalType": "struct ModuleInit[]",
          "components": [
            {
              "name": "module",
              "type": "address",
              "internalType": "address"
            },
            {
              "name": "initData",
              "type": "bytes",
              "internalType": "bytes"
            }
          ]
        },
        {
          "name": "attesters",
          "type": "address[]",
          "internalType": "address[]"
        },
        {
          "name": "threshold",
          "type": "uint8",
          "internalType": "uint8"
        }
      ],
      "outputs": [],
      "stateMutability": "nonpayable"
    },
    {
      "type": "function",
      "name": "preValidationSetup",
      "inputs": [
        {
          "name": "initHash",
          "type": "bytes32",
          "internalType": "bytes32"
        },
        {
          "name": "to",
          "type": "address",
          "internalType": "address"
        },
        {
          "name": "preInit",
          "type": "bytes",
          "internalType": "bytes"
        }
      ],
      "outputs": [],
      "stateMutability": "nonpayable"
    },
    {
      "type": "function",
      "name": "predictSafeAddress",
      "inputs": [
        {
          "name": "singleton",
          "type": "address",
          "internalType": "address"
        },
        {
          "name": "safeProxyFactory",
          "type": "address",
          "internalType": "address"
        },
        {
          "name": "creationCode",
          "type": "bytes",
          "internalType": "bytes"
        },
        {
          "name": "salt",
          "type": "bytes32",
          "internalType": "bytes32"
        },
        {
          "name": "factoryInitializer",
          "type": "bytes",
          "internalType": "bytes"
        }
      ],
      "outputs": [
        {
          "name": "safeProxy",
          "type": "address",
          "internalType": "address"
        }
      ],
      "stateMutability": "pure"
    },
    {
      "type": "function",
      "name": "setupSafe",
      "inputs": [
        {
          "name": "initData",
          "type": "tuple",
          "internalType": "struct Safe7579Launchpad.InitData",
          "components": [
            {
              "name": "singleton",
              "type": "address",
              "internalType": "address"
            },
            {
              "name": "owners",
              "type": "address[]",
              "internalType": "address[]"
            },
            {
              "name": "threshold",
              "type": "uint256",
              "internalType": "uint256"
            },
            {
              "name": "setupTo",
              "type": "address",
              "internalType": "address"
            },
            {
              "name": "setupData",
              "type": "bytes",
              "internalType": "bytes"
            },
            {
              "name": "safe7579",
              "type": "address",
              "internalType": "contract ISafe7579"
            },
            {
              "name": "validators",
              "type": "tuple[]",
              "internalType": "struct ModuleInit[]",
              "components": [
                {
                  "name": "module",
                  "type": "address",
                  "internalType": "address"
                },
                {
                  "name": "initData",
                  "type": "bytes",
                  "internalType": "bytes"
                }
              ]
            },
            {
              "name": "callData",
              "type": "bytes",
              "internalType": "bytes"
            }
          ]
        }
      ],
      "outputs": [],
      "stateMutability": "nonpayable"
    },
    {
      "type": "function",
      "name": "supportsExecutionMode",
      "inputs": [
        {
          "name": "encodedMode",
          "type": "bytes32",
          "internalType": "ModeCode"
        }
      ],
      "outputs": [
        {
          "name": "supported",
          "type": "bool",
          "internalType": "bool"
        }
      ],
      "stateMutability": "pure"
    },
    {
      "type": "function",
      "name": "supportsModule",
      "inputs": [
        {
          "name": "moduleTypeId",
          "type": "uint256",
          "internalType": "uint256"
        }
      ],
      "outputs": [
        {
          "name": "",
          "type": "bool",
          "internalType": "bool"
        }
      ],
      "stateMutability": "pure"
    },
    {
      "type": "function",
      "name": "validateUserOp",
      "inputs": [
        {
          "name": "userOp",
          "type": "tuple",
          "internalType": "struct PackedUserOperation",
          "components": [
            {
              "name": "sender",
              "type": "address",
              "internalType": "address"
            },
            {
              "name": "nonce",
              "type": "uint256",
              "internalType": "uint256"
            },
            {
              "name": "initCode",
              "type": "bytes",
              "internalType": "bytes"
            },
            {
              "name": "callData",
              "type": "bytes",
              "internalType": "bytes"
            },
            {
              "name": "accountGasLimits",
              "type": "bytes32",
              "internalType": "bytes32"
            },
            {
              "name": "preVerificationGas",
              "type": "uint256",
              "internalType": "uint256"
            },
            {
              "name": "gasFees",
              "type": "bytes32",
              "internalType": "bytes32"
            },
            {
              "name": "paymasterAndData",
              "type": "bytes",
              "internalType": "bytes"
            },
            {
              "name": "signature",
              "type": "bytes",
              "internalType": "bytes"
            }
          ]
        },
        {
          "name": "userOpHash",
          "type": "bytes32",
          "internalType": "bytes32"
        },
        {
          "name": "missingAccountFunds",
          "type": "uint256",
          "internalType": "uint256"
        }
      ],
      "outputs": [
        {
          "name": "validationData",
          "type": "uint256",
          "internalType": "uint256"
        }
      ],
      "stateMutability": "nonpayable"
    },
    {
      "type": "event",
      "name": "ModuleInstalled",
      "inputs": [
        {
          "name": "moduleTypeId",
          "type": "uint256",
          "indexed": false,
          "internalType": "uint256"
        },
        {
          "name": "module",
          "type": "address",
          "indexed": false,
          "internalType": "address"
        }
      ],
      "anonymous": false
    },
    {
      "type": "event",
      "name": "ModuleUninstalled",
      "inputs": [
        {
          "name": "moduleTypeId",
          "type": "uint256",
          "indexed": false,
          "internalType": "uint256"
        },
        {
          "name": "module",
          "type": "address",
          "indexed": false,
          "internalType": "address"
        }
      ],
      "anonymous": false
    },
    {
      "type": "error",
      "name": "InvalidEntryPoint",
      "inputs": []
    },
    {
      "type": "error",
      "name": "InvalidInitHash",
      "inputs": []
    },
    {
      "type": "error",
      "name": "InvalidSetup",
      "inputs": []
    },
    {
      "type": "error",
      "name": "InvalidSignature",
      "inputs": []
    },
    {
      "type": "error",
      "name": "InvalidUserOperationData",
      "inputs": []
    },
    {
      "type": "error",
      "name": "OnlyDelegatecall",
      "inputs": []
    },
    {
      "type": "error",
      "name": "OnlyProxy",
      "inputs": []
    },
    {
      "type": "error",
      "name": "PreValidationSetupFailed",
      "inputs": []
    },
    {
      "type": "error",
      "name": "Safe7579LaunchpadAlreadyInitialized",
      "inputs": []
    },
    {
      "type": "error",
      "name": "WrongContractSignature",
      "inputs": [
        {
          "name": "contractSignature",
          "type": "bytes",
          "internalType": "bytes"
        }
      ]
    },
    {
      "type": "error",
      "name": "WrongContractSignatureFormat",
      "inputs": [
        {
          "name": "s",
          "type": "uint256",
          "internalType": "uint256"
        },
        {
          "name": "contractSignatureLen",
          "type": "uint256",
          "internalType": "uint256"
        },
        {
          "name": "signaturesLen",
          "type": "uint256",
          "internalType": "uint256"
        }
      ]
    }
  ],
  "bytecode": {
    "object": "0x60e060405234801561001057600080fd5b50604051612dea380380612dea83398101604081905261002f91610089565b6001600160a01b03821661005657604051632039d3c960e01b815260040160405180910390fd5b306080526001600160a01b0391821660a0521660c0526100c3565b6001600160a01b038116811461008657600080fd5b50565b6000806040838503121561009c57600080fd5b82516100a781610071565b60208401519092506100b881610071565b809150509250929050565b60805160a05160c051612cc161012960003960008181610159015281816104900152610fc60152600081816101aa015281816105be015281816110a701526113ea01526000818160f6015281816105690152818161099301526111100152612cc16000f3fe6080604052600436106100ec5760003560e01c8063663c87d81161008a578063d78343d911610059578063d78343d914610348578063d9ed0e8f14610368578063f2dc691d14610388578063f698da25146103a857600080fd5b8063663c87d81461028c578063928107f9146102ac5780639cfd7cff146102cc578063d03c79141461031857600080fd5b806319822f7c116100c657806319822f7c146101ec5780633c9de1b81461021a5780634fff40e11461023c57806355d559f41461025c57600080fd5b806306433b1b14610147578063137e051e1461019857806315cca638146101cc57600080fd5b36610142576000547f00000000000000000000000000000000000000000000000000000000000000006001600160a01b03908116911614610140576040516308e3edd160e41b815260040160405180910390fd5b005b600080fd5b34801561015357600080fd5b5061017b7f000000000000000000000000000000000000000000000000000000000000000081565b6040516001600160a01b0390911681526020015b60405180910390f35b3480156101a457600080fd5b5061017b7f000000000000000000000000000000000000000000000000000000000000000081565b3480156101d857600080fd5b506101406101e7366004611ab5565b6103bd565b3480156101f857600080fd5b5061020c610207366004611bc2565b610563565b60405190815260200161018f565b34801561022657600080fd5b50600080516020612c6c8339815191525461020c565b34801561024857600080fd5b50610140610257366004611c0f565b61098e565b34801561026857600080fd5b5061027c610277366004611c99565b610abe565b60405161018f9493929190611d3a565b34801561029857600080fd5b5061017b6102a7366004611e94565b610d1b565b3480156102b857600080fd5b5061020c6102c7366004612094565b610df5565b3480156102d857600080fd5b50604080518082018252601a81527f7268696e6573746f6e652e73616665373537392e76312e302e300000000000006020820152905161018f91906121c2565b34801561032457600080fd5b506103386103333660046121dc565b610e47565b604051901515815260200161018f565b34801561035457600080fd5b506101406103633660046121f5565b610ef0565b34801561037457600080fd5b50610140610383366004612321565b61109c565b34801561039457600080fd5b506103386103a33660046121dc565b611324565b3480156103b457600080fd5b5061020c611373565b3330146103dd57604051630a57d61d60e01b815260040160405180910390fd5b60405163610b592560e01b81526001600160a01b038b166004820152309063610b592590602401600060405180830381600087803b15801561041e57600080fd5b505af1158015610432573d6000803e3d6000fd5b50506040805160008082526020820190925230935063540fb4f992509061047c565b6040805180820190915260008152606060208201528152602001906001900390816104545790505b508b8b8b8b8b8b60405180606001604052807f00000000000000000000000000000000000000000000000000000000000000006001600160a01b031681526020018d8d8080602002602001604051908101604052809392919081815260200183836020028082843760009201919091525050509082525060ff8c166020909101526040516001600160e01b031960e08b901b16815261052598979695949392919060040161255c565b600060405180830381600087803b15801561053f57600080fd5b505af1158015610553573d6000803e3d6000fd5b5050505050505050505050505050565b600080547f00000000000000000000000000000000000000000000000000000000000000006001600160a01b039081169116146105b3576040516308e3edd160e41b815260040160405180910390fd5b336001600160a01b037f000000000000000000000000000000000000000000000000000000000000000016146105fc57604051632039d3c960e01b815260040160405180910390fd5b61060960608501856125cf565b61061891600491600091612615565b6106219161263f565b6001600160e01b03191663d9ed0e8f60e01b146106515760405163c3d40f7760e01b815260040160405180910390fd5b600061066060608601866125cf565b61066e916004908290612615565b81019061067b9190612094565b9050610693600080516020612c6c8339815191525490565b61069c82610df5565b146106ba5760405163278328b160e21b815260040160405180910390fd5b600080866020013590508060601c915060008360a001516001600160a01b03168460c001516040516024016106ef9190612677565b60408051601f19818403018152918152602080830180516001600160e01b0316633cd56b0760e11b1790529051610729929133910161268a565b60408051601f1981840301815290829052610743916126bc565b6000604051808303816000865af19150503d8060008114610780576040519150601f19603f3d011682016040523d82523d6000602084013e610785565b606091505b50509050806107a75760405163c3d40f7760e01b815260040160405180910390fd5b60c084015151600090815b818110156108c95760008760c0015182815181106107d2576107d26126d8565b6020026020010151600001519050806001600160a01b0316636d61fe708960c001518481518110610805576108056126d8565b6020026020010151602001516040518263ffffffff1660e01b815260040161082d91906121c2565b600060405180830381600087803b15801561084757600080fd5b505af115801561085b573d6000803e3d6000fd5b505060408051600181526001600160a01b03851660208201527fd21d0b289f126c4b473ea641963e766833c2f13866e4ff480abd787c100ef123935001905060405180910390a1866001600160a01b0316816001600160a01b0316036108c057600193505b506001016107b2565b50811561094857604051639700320360e01b81526001600160a01b038616906397003203906108fe908d908d906004016127ce565b6020604051808303816000875af115801561091d573d6000803e3d6000fd5b505050506040513d601f19601f8201168201806040525081019061094191906127f0565b965061096f565b6000806000610957898e6113cc565b92509250925061096983158383611542565b99505050505b8715610981576000806000808b335af1505b5050505050509392505050565b6000547f00000000000000000000000000000000000000000000000000000000000000006001600160a01b039081169116146109dd576040516308e3edd160e41b815260040160405180910390fd5b60006109f5600080516020612c6c8339815191525490565b14610a135760405163d4d496e560e01b815260040160405180910390fd5b610a2984600080516020612c6c83398151915255565b6001600160a01b03831615610ab8576000836001600160a01b03168383604051610a54929190612809565b600060405180830381855af49150503d8060008114610a8f576040519150601f19603f3d011682016040523d82523d6000602084013e610a94565b606091505b5050905080610ab657604051631f57fed560e31b815260040160405180910390fd5b505b50505050565b6060600080823682610ad46101008901896125cf565b9092509050610ae7600660008385612615565b610af091612819565b60d01c9450610b03600c60068385612615565b610b0c91612819565b60d01c9350610b1e81600c8185612615565b8080601f0160208091040260200160405190810160405280939291908181526020018383808284376000920182905250604080516101c081019091527fc03dfc11d8b10bf9cf703d558958c8c42777f785d998c62060d85a4f0ef6ea7f815294975095509293505060208084019250610b9a91508a018a61284f565b6001600160a01b0316815260200188602001358152602001888060400190610bc291906125cf565b604051610bd0929190612809565b6040519081900390208152602001610beb60608a018a6125cf565b604051610bf9929190612809565b60405180910390208152602001610c0f8961157a565b6001600160801b03168152602001610c2689611590565b6001600160801b031681526020018860a001358152602001610c47896115a5565b6001600160801b03168152602001610c5e896115b4565b6001600160801b03168152602001610c7960e08a018a6125cf565b604051610c87929190612809565b6040805191829003909120825265ffffffffffff80881660208401528616908201526001600160a01b0388166060909101526101c08120909150601960f81b600160f81b610cd3611373565b6040516001600160f81b031993841660208201529290911660218301526022820152604281018290526062016040516020818303038152906040529550505092959194509250565b6000818051906020012083604051602001610d40929190918252602082015260400190565b60405160208183030381529060405280519060200120925060ff60f81b858486896001600160a01b0316604051602001610d7b92919061286c565b60405160208183030381529060405280519060200120604051602001610dd394939291906001600160f81b031994909416845260609290921b6001600160601b03191660018401526015830152603582015260550190565b60408051601f1981840301815291905280516020909101209695505050505050565b80516020808301516040808501516060860151608087015160a088015160c08901519451600098610e2a98909796910161288e565b604051602081830303815290604052805190602001209050919050565b600081600881901b6001600160f81b03198216600160f81b03610e6d5760019250610ea9565b6001600160f81b03198216610e855760019250610ea9565b6001600160f81b031980831603610e9f5760019250610ea9565b5060009392505050565b828015610ebe57506001600160f81b03198116155b15610eca575050919050565b828015610ee457506001600160f81b03198116600160f81b145b15610e9f575050919050565b60405163610b592560e01b81526001600160a01b038d166004820152309063610b592590602401600060405180830381600087803b158015610f3157600080fd5b505af1158015610f45573d6000803e3d6000fd5b505060405163f08a032360e01b81526001600160a01b038f16600482015230925063f08a03239150602401600060405180830381600087803b158015610f8a57600080fd5b505af1158015610f9e573d6000803e3d6000fd5b50505050306001600160a01b031663540fb4f98c8c8c8c8c8c8c8c60405180606001604052807f00000000000000000000000000000000000000000000000000000000000000006001600160a01b031681526020018e8e8080602002602001604051908101604052809392919081815260200183836020028082843760009201919091525050509082525060ff8d166020909101526040516001600160e01b031960e08c901b16815261105c9998979695949392919060040161290b565b600060405180830381600087803b15801561107657600080fd5b505af115801561108a573d6000803e3d6000fd5b50505050505050505050505050505050565b336001600160a01b037f000000000000000000000000000000000000000000000000000000000000000016146110e557604051632039d3c960e01b815260040160405180910390fd5b6110f2602082018261284f565b600080546001600160a01b0319166001600160a01b039283161790557f000000000000000000000000000000000000000000000000000000000000000016611140608083016060840161284f565b6001600160a01b03161461116757604051633007073760e01b815260040160405180910390fd5b6302b994c760e31b61117c60808301836125cf565b61118b91600491600091612615565b6111949161263f565b6001600160e01b031916146111bc57604051633007073760e01b815260040160405180910390fd5b3063b63e800d6111cf6020840184612980565b60408501356111e4608087016060880161284f565b6111f160808801886125cf565b61120160c08a0160a08b0161284f565b60008060006040518b63ffffffff1660e01b815260040161122b9a999897969594939291906129c9565b600060405180830381600087803b15801561124557600080fd5b505af1158015611259573d6000803e3d6000fd5b50506000600080516020612c6c83398151915255506112759050565b60008061128860c0840160a0850161284f565b6001600160a01b031661129e60e08501856125cf565b306040516020016112b193929190612a80565b60408051601f19818403018152908290526112cb916126bc565b6000604051808303816000865af19150503d8060008114611308576040519150601f19603f3d011682016040523d82523d6000602084013e61130d565b606091505b50915091508161131f57805160208201fd5b505050565b60006001820361133657506001919050565b6002820361134657506001919050565b6003820361135657506001919050565b6004820361136657506001919050565b506000919050565b919050565b604080517f47e79534a245952e8b16893a336b85a3d9ea9fa8c573f3d803afb92a794692186020820152469181019190915230606082015260009060800160405160208183030381529060405280519060200120905090565b60008060006060808660a001516001600160a01b03166355d559f4877f00000000000000000000000000000000000000000000000000000000000000006040518363ffffffff1660e01b8152600401611426929190612aa1565b600060405180830381865afa158015611443573d6000803e3d6000fd5b505050506040513d6000823e601f3d908101601f1916820160405261146b9190810190612b2e565b8351602085012060408c01519298509296509294509192509060009061149490839085906115c9565b905061149f816118c1565b60208901516114ad816118c1565b6114b6816118cd565b80516000805b8281101561152e5760006114f28583815181106114db576114db6126d8565b6020026020010151876118d690919063ffffffff16565b5090508015611525578261150581612bcc565b9350508d6040015183106115255760019b5050505050505050505061153b565b506001016114bc565b5060009950505050505050505b9250925092565b600060d08265ffffffffffff16901b60a08465ffffffffffff16901b8561156a57600061156d565b60015b60ff161717949350505050565b600061158a826080013560801c90565b92915050565b60006001600160801b0360808301351661158a565b600060c082013560801c61158a565b60006001600160801b0360c08301351661158a565b606060006115d8836041612be5565b8451909150836001600160401b038111156115f5576115f5611d86565b60405190808252806020026020018201604052801561161e578160200160208202803683370190505b5092508181101561164257604051638baa579f60e01b815260040160405180910390fd5b60005b848110156118b7576000806000806116758a86604102016020810151604082015160609092015160001a92909190565b9250925092508260ff16600003611816579092508290611696896041612be5565b8110156116cc576040516338a245ff60e11b81526004810182905260006024820181905260448201526064015b60405180910390fd5b856116d8826020612bfc565b1115611708576040516338a245ff60e11b81526004810182905260006024820152604481018790526064016116c3565b6020818b018101519087908290611720908590612bfc565b61172a9190612bfc565b111561175a576040516338a245ff60e11b81526004810183905260248101829052604481018890526064016116c3565b60606020838d01019050631626ba7e60e01b6001600160e01b031916866001600160a01b0316631626ba7e8f846040518363ffffffff1660e01b81526004016117a4929190612c0f565b602060405180830381865afa1580156117c1573d6000803e3d6000fd5b505050506040513d601f19601f820116820180604052508101906117e59190612c28565b6001600160e01b0319161461180f578060405163605d348960e01b81526004016116c391906121c2565b505061187c565b601e8360ff16111561186d576118666118548c6020527b19457468657265756d205369676e6564204d6573736167653a0a3332600052603c60042090565b61185f600486612c52565b84846118f9565b935061187c565b6118798b8484846118f9565b93505b8388868151811061188f5761188f6126d8565b6001600160a01b03909216602092830291909101909101525050600190920191506116459050565b5050509392505050565b6118ca81611937565b50565b6118ca8161198c565b6000806118ee84846001600160a01b031660006119d5565b909590945092505050565b60006040518560005260ff85166020528360405282606052602060406080600060015afa5060006060523d6060185191508060405250949350505050565b8051600082528060051b82016020601f198185015b8201838111611984578051828201805182811161196b5750505061194c565b5b818601528301805182811161196c575084015261194c565b505050915250565b60028151106118ca576020810160408201600183510160051b83015b81518351146119bc57602083019250815183525b6020820191508082036119a857505081900360051c9052565b60008060001960018651600087870197505b81830160011c94508460051b8901518701905087811482841117611a2157808811611a165783850191506119e7565b6001850192506119e7565b84151597148716989290930190950295509350505050565b6001600160a01b03811681146118ca57600080fd5b803561136e81611a39565b60008083601f840112611a6b57600080fd5b5081356001600160401b03811115611a8257600080fd5b6020830191508360208260051b8501011115611a9d57600080fd5b9250929050565b803560ff8116811461136e57600080fd5b60008060008060008060008060008060c08b8d031215611ad457600080fd5b611add8b611a4e565b995060208b01356001600160401b03811115611af857600080fd5b611b048d828e01611a59565b909a5098505060408b01356001600160401b03811115611b2357600080fd5b611b2f8d828e01611a59565b90985096505060608b01356001600160401b03811115611b4e57600080fd5b611b5a8d828e01611a59565b90965094505060808b01356001600160401b03811115611b7957600080fd5b611b858d828e01611a59565b9094509250611b98905060a08c01611aa4565b90509295989b9194979a5092959850565b60006101208284031215611bbc57600080fd5b50919050565b600080600060608486031215611bd757600080fd5b83356001600160401b03811115611bed57600080fd5b611bf986828701611ba9565b9660208601359650604090950135949350505050565b60008060008060608587031215611c2557600080fd5b843593506020850135611c3781611a39565b925060408501356001600160401b03811115611c5257600080fd5b8501601f81018713611c6357600080fd5b80356001600160401b03811115611c7957600080fd5b876020828401011115611c8b57600080fd5b949793965060200194505050565b60008060408385031215611cac57600080fd5b82356001600160401b03811115611cc257600080fd5b611cce85828601611ba9565b9250506020830135611cdf81611a39565b809150509250929050565b60005b83811015611d05578181015183820152602001611ced565b50506000910152565b60008151808452611d26816020860160208601611cea565b601f01601f19169290920160200192915050565b608081526000611d4d6080830187611d0e565b65ffffffffffff8616602084015265ffffffffffff851660408401528281036060840152611d7b8185611d0e565b979650505050505050565b634e487b7160e01b600052604160045260246000fd5b604080519081016001600160401b0381118282101715611dbe57611dbe611d86565b60405290565b60405161010081016001600160401b0381118282101715611dbe57611dbe611d86565b604051601f8201601f191681016001600160401b0381118282101715611e0f57611e0f611d86565b604052919050565b60006001600160401b03821115611e3057611e30611d86565b50601f01601f191660200190565b600082601f830112611e4f57600080fd5b8135611e62611e5d82611e17565b611de7565b818152846020838601011115611e7757600080fd5b816020850160208301376000918101602001919091529392505050565b600080600080600060a08688031215611eac57600080fd5b8535611eb781611a39565b94506020860135611ec781611a39565b935060408601356001600160401b03811115611ee257600080fd5b611eee88828901611e3e565b9350506060860135915060808601356001600160401b03811115611f1157600080fd5b611f1d88828901611e3e565b9150509295509295909350565b60006001600160401b03821115611f4357611f43611d86565b5060051b60200190565b600082601f830112611f5e57600080fd5b8135611f6c611e5d82611f2a565b8082825260208201915060208360051b860101925085831115611f8e57600080fd5b602085015b83811015611fb4578035611fa681611a39565b835260209283019201611f93565b5095945050505050565b600082601f830112611fcf57600080fd5b8135611fdd611e5d82611f2a565b8082825260208201915060208360051b860101925085831115611fff57600080fd5b602085015b83811015611fb45780356001600160401b0381111561202257600080fd5b86016040818903601f1901121561203857600080fd5b612040611d9c565b602082013561204e81611a39565b815260408201356001600160401b0381111561206957600080fd5b6120788a602083860101611e3e565b6020830152508085525050602083019250602081019050612004565b6000602082840312156120a657600080fd5b81356001600160401b038111156120bc57600080fd5b820161010081850312156120cf57600080fd5b6120d7611dc4565b6120e082611a4e565b815260208201356001600160401b038111156120fb57600080fd5b61210786828501611f4d565b6020830152506040828101359082015261212360608301611a4e565b606082015260808201356001600160401b0381111561214157600080fd5b61214d86828501611e3e565b60808301525061215f60a08301611a4e565b60a082015260c08201356001600160401b0381111561217d57600080fd5b61218986828501611fbe565b60c08301525060e08201356001600160401b038111156121a857600080fd5b6121b486828501611e3e565b60e083015250949350505050565b6020815260006121d56020830184611d0e565b9392505050565b6000602082840312156121ee57600080fd5b5035919050565b60008060008060008060008060008060008060e08d8f03121561221757600080fd5b6122208d611a4e565b9b506001600160401b0360208e0135111561223a57600080fd5b61224a8e60208f01358f01611a59565b909b5099506001600160401b0360408e0135111561226757600080fd5b6122778e60408f01358f01611a59565b90995097506001600160401b0360608e0135111561229457600080fd5b6122a48e60608f01358f01611a59565b90975095506001600160401b0360808e013511156122c157600080fd5b6122d18e60808f01358f01611a59565b90955093506001600160401b0360a08e013511156122ee57600080fd5b6122fe8e60a08f01358f01611a59565b909350915061230f60c08e01611aa4565b90509295989b509295989b509295989b565b60006020828403121561233357600080fd5b81356001600160401b0381111561234957600080fd5b820161010081850312156121d557600080fd5b600082825180855260208501945060208160051b8301016020850160005b838110156123cc57848303601f19018852815180516001600160a01b031684526020908101516040918501829052906123b590850182611d0e565b6020998a019990945092909201915060010161237a565b50909695505050505050565b6000808335601e198436030181126123ef57600080fd5b83016020810192503590506001600160401b0381111561240e57600080fd5b803603821315611a9d57600080fd5b81835281816020850137506000828201602090810191909152601f909101601f19169091010190565b60008383855260208501945060208460051b8201018360005b868110156123cc57838303601f19018852813536879003603e1901811261248557600080fd5b8601803561249281611a39565b6001600160a01b031684526124aa60208201826123d8565b9150604060208601526124c160408601838361241d565b60209a8b019a9095509390930192505060010161245f565b600081518084526020840193506020830160005b828110156125145781516001600160a01b03168652602095860195909101906001016124ed565b5093949350505050565b60018060a01b038151168252600060208201516060602085015261254560608501826124d9565b60409384015160ff16949093019390935250919050565b60a08152600061256f60a083018b61235c565b8281036020840152612582818a8c612446565b9050828103604084015261259781888a612446565b905082810360608401526125ac818688612446565b905082810360808401526125c0818561251e565b9b9a5050505050505050505050565b6000808335601e198436030181126125e657600080fd5b8301803591506001600160401b0382111561260057600080fd5b602001915036819003821315611a9d57600080fd5b6000808585111561262557600080fd5b8386111561263257600080fd5b5050820193919092039150565b80356001600160e01b03198116906004841015612670576001600160e01b0319600485900360031b81901b82161691505b5092915050565b6020815260006121d5602083018461235c565b6000835161269c818460208801611cea565b60609390931b6001600160601b0319169190920190815260140192915050565b600082516126ce818460208701611cea565b9190910192915050565b634e487b7160e01b600052603260045260246000fd5b612708826126fb83611a4e565b6001600160a01b03169052565b60208181013590830152600061272160408301836123d8565b61012060408601526127386101208601828461241d565b91505061274860608401846123d8565b858303606087015261275b83828461241d565b6080868101359088015260a0808701359088015260c08087013590880152925061278b91505060e08401846123d8565b85830360e087015261279e83828461241d565b925050506127b06101008401846123d8565b8583036101008701526127c483828461241d565b9695505050505050565b6040815260006127e160408301856126ee565b90508260208301529392505050565b60006020828403121561280257600080fd5b5051919050565b8183823760009101908152919050565b80356001600160d01b03198116906006841015612670576001600160d01b031960069490940360031b84901b1690921692915050565b60006020828403121561286157600080fd5b81356121d581611a39565b6000835161287e818460208801611cea565b9190910191825250602001919050565b6001600160a01b038816815260e0602082018190526000906128b2908301896124d9565b604083018890526001600160a01b038716606084015282810360808401526128da8187611d0e565b6001600160a01b03861660a085015283810360c085015290506128fd818561235c565b9a9950505050505050505050565b60a08152600061291f60a083018b8d612446565b8281036020840152612932818a8c612446565b9050828103604084015261294781888a612446565b9050828103606084015261295c818688612446565b90508281036080840152612970818561251e565b9c9b505050505050505050505050565b6000808335601e1984360301811261299757600080fd5b8301803591506001600160401b038211156129b157600080fd5b6020019150600581901b3603821315611a9d57600080fd5b61010080825281018a905260008b6101208301825b8d811015612a0e5782356129f181611a39565b6001600160a01b03168252602092830192909101906001016129de565b508b6020850152612a2a604085018c6001600160a01b03169052565b8381036060850152612a3d818a8c61241d565b92505050612a5660808301876001600160a01b03169052565b6001600160a01b03851660a08301528360c08301526125c060e08301846001600160a01b03169052565b8284823760609190911b6001600160601b0319169101908152601401919050565b604081526000612ab460408301856126ee565b905060018060a01b03831660208301529392505050565b600082601f830112612adc57600080fd5b8151612aea611e5d82611e17565b818152846020838601011115612aff57600080fd5b612b10826020830160208701611cea565b949350505050565b805165ffffffffffff8116811461136e57600080fd5b60008060008060808587031215612b4457600080fd5b84516001600160401b03811115612b5a57600080fd5b612b6687828801612acb565b945050612b7560208601612b18565b9250612b8360408601612b18565b915060608501516001600160401b03811115612b9e57600080fd5b612baa87828801612acb565b91505092959194509250565b634e487b7160e01b600052601160045260246000fd5b600060018201612bde57612bde612bb6565b5060010190565b808202811582820484141761158a5761158a612bb6565b8082018082111561158a5761158a612bb6565b828152604060208201526000612b106040830184611d0e565b600060208284031215612c3a57600080fd5b81516001600160e01b0319811681146121d557600080fd5b60ff828116828216039081111561158a5761158a612bb656fe982e06ee6a56dfc0f1ac189a5d23506361ca0a3ce45a9c7b8d33d65d43746a24a2646970667358221220b8570cdd622e1fbbf9414238ac24ec7629c0bf87595f396efe2bec7415eff9ce64736f6c634300081a0033",
    "linkReferences": {}
  },
  "methodIdentifiers": {
    "REGISTRY()": "06433b1b",
    "SUPPORTED_ENTRYPOINT()": "137e051e",
    "accountId()": "9cfd7cff",
    "addSafe7579(address,(address,bytes)[],(address,bytes)[],(address,bytes)[],(address,bytes)[],address[],uint8)": "d78343d9",
    "domainSeparator()": "f698da25",
    "getInitHash()": "3c9de1b8",
    "getSafeOp((address,uint256,bytes,bytes,bytes32,uint256,bytes32,bytes,bytes),address)": "55d559f4",
    "hash((address,address[],uint256,address,bytes,address,(address,bytes)[],bytes))": "928107f9",
    "initSafe7579(address,(address,bytes)[],(address,bytes)[],(address,bytes)[],address[],uint8)": "15cca638",
    "preValidationSetup(bytes32,address,bytes)": "4fff40e1",
    "predictSafeAddress(address,address,bytes,bytes32,bytes)": "663c87d8",
    "setupSafe((address,address[],uint256,address,bytes,address,(address,bytes)[],bytes))": "d9ed0e8f",
    "supportsExecutionMode(bytes32)": "d03c7914",
    "supportsModule(uint256)": "f2dc691d",
    "validateUserOp((address,uint256,bytes,bytes,bytes32,uint256,bytes32,bytes,bytes),bytes32,uint256)": "19822f7c"
  },
  "id": 115
}